{
	"contracts/BlockchainMessenger.sol": {
		"BlockchainMessenger": {
			"abi": [
				{
					"inputs": [],
					"stateMutability": "nonpayable",
					"type": "constructor"
				},
				{
					"inputs": [],
					"name": "changeCounter",
					"outputs": [
						{
							"internalType": "uint256",
							"name": "",
							"type": "uint256"
						}
					],
					"stateMutability": "view",
					"type": "function"
				},
				{
					"inputs": [],
					"name": "owner",
					"outputs": [
						{
							"internalType": "address",
							"name": "",
							"type": "address"
						}
					],
					"stateMutability": "view",
					"type": "function"
				},
				{
					"inputs": [],
					"name": "theMessage",
					"outputs": [
						{
							"internalType": "string",
							"name": "",
							"type": "string"
						}
					],
					"stateMutability": "view",
					"type": "function"
				},
				{
					"inputs": [
						{
							"internalType": "string",
							"name": "_newMessage",
							"type": "string"
						}
					],
					"name": "updateTheMessage",
					"outputs": [],
					"stateMutability": "nonpayable",
					"type": "function"
				}
			],
			"devdoc": {
				"kind": "dev",
				"methods": {},
				"version": 1
			},
			"evm": {
				"assembly": "    /* \"contracts/BlockchainMessenger.sol\":61:335  contract BlockchainMessenger {... */\n  mstore(0x40, 0x80)\n    /* \"contracts/BlockchainMessenger.sol\":195:246  constructor() {... */\n  callvalue\n  dup1\n  iszero\n  tag_1\n  jumpi\n  0x00\n  dup1\n  revert\ntag_1:\n  pop\n    /* \"contracts/BlockchainMessenger.sol\":228:238  msg.sender */\n  caller\n    /* \"contracts/BlockchainMessenger.sol\":220:225  owner */\n  0x01\n  0x00\n    /* \"contracts/BlockchainMessenger.sol\":220:238  owner = msg.sender */\n  0x0100\n  exp\n  dup2\n  sload\n  dup2\n  0xffffffffffffffffffffffffffffffffffffffff\n  mul\n  not\n  and\n  swap1\n  dup4\n  0xffffffffffffffffffffffffffffffffffffffff\n  and\n  mul\n  or\n  swap1\n  sstore\n  pop\n    /* \"contracts/BlockchainMessenger.sol\":61:335  contract BlockchainMessenger {... */\n  dataSize(sub_0)\n  dup1\n  dataOffset(sub_0)\n  0x00\n  codecopy\n  0x00\n  return\nstop\n\nsub_0: assembly {\n        /* \"contracts/BlockchainMessenger.sol\":61:335  contract BlockchainMessenger {... */\n      mstore(0x40, 0x80)\n      callvalue\n      dup1\n      iszero\n      tag_1\n      jumpi\n      0x00\n      dup1\n      revert\n    tag_1:\n      pop\n      jumpi(tag_2, lt(calldatasize, 0x04))\n      shr(0xe0, calldataload(0x00))\n      dup1\n      0x67e8805f\n      eq\n      tag_3\n      jumpi\n      dup1\n      0x6a394434\n      eq\n      tag_4\n      jumpi\n      dup1\n      0x8da5cb5b\n      eq\n      tag_5\n      jumpi\n      dup1\n      0xaaf4389a\n      eq\n      tag_6\n      jumpi\n    tag_2:\n      0x00\n      dup1\n      revert\n        /* \"contracts/BlockchainMessenger.sol\":162:186  string public theMessage */\n    tag_3:\n      tag_7\n      tag_8\n      jump\t// in\n    tag_7:\n      mload(0x40)\n      tag_9\n      swap2\n      swap1\n      tag_10\n      jump\t// in\n    tag_9:\n      mload(0x40)\n      dup1\n      swap2\n      sub\n      swap1\n      return\n        /* \"contracts/BlockchainMessenger.sol\":254:332  function updateTheMessage(string memory _newMessage) public {... */\n    tag_4:\n      tag_11\n      0x04\n      dup1\n      calldatasize\n      sub\n      dup2\n      add\n      swap1\n      tag_12\n      swap2\n      swap1\n      tag_13\n      jump\t// in\n    tag_12:\n      tag_14\n      jump\t// in\n    tag_11:\n      stop\n        /* \"contracts/BlockchainMessenger.sol\":133:153  address public owner */\n    tag_5:\n      tag_15\n      tag_16\n      jump\t// in\n    tag_15:\n      mload(0x40)\n      tag_17\n      swap2\n      swap1\n      tag_18\n      jump\t// in\n    tag_17:\n      mload(0x40)\n      dup1\n      swap2\n      sub\n      swap1\n      return\n        /* \"contracts/BlockchainMessenger.sol\":99:124  uint public changeCounter */\n    tag_6:\n      tag_19\n      tag_20\n      jump\t// in\n    tag_19:\n      mload(0x40)\n      tag_21\n      swap2\n      swap1\n      tag_22\n      jump\t// in\n    tag_21:\n      mload(0x40)\n      dup1\n      swap2\n      sub\n      swap1\n      return\n        /* \"contracts/BlockchainMessenger.sol\":162:186  string public theMessage */\n    tag_8:\n      0x02\n      dup1\n      sload\n      tag_23\n      swap1\n      tag_24\n      jump\t// in\n    tag_23:\n      dup1\n      0x1f\n      add\n      0x20\n      dup1\n      swap2\n      div\n      mul\n      0x20\n      add\n      mload(0x40)\n      swap1\n      dup2\n      add\n      0x40\n      mstore\n      dup1\n      swap3\n      swap2\n      swap1\n      dup2\n      dup2\n      mstore\n      0x20\n      add\n      dup3\n      dup1\n      sload\n      tag_25\n      swap1\n      tag_24\n      jump\t// in\n    tag_25:\n      dup1\n      iszero\n      tag_26\n      jumpi\n      dup1\n      0x1f\n      lt\n      tag_27\n      jumpi\n      0x0100\n      dup1\n      dup4\n      sload\n      div\n      mul\n      dup4\n      mstore\n      swap2\n      0x20\n      add\n      swap2\n      jump(tag_26)\n    tag_27:\n      dup3\n      add\n      swap2\n      swap1\n      0x00\n      mstore\n      keccak256(0x00, 0x20)\n      swap1\n    tag_28:\n      dup2\n      sload\n      dup2\n      mstore\n      swap1\n      0x01\n      add\n      swap1\n      0x20\n      add\n      dup1\n      dup4\n      gt\n      tag_28\n      jumpi\n      dup3\n      swap1\n      sub\n      0x1f\n      and\n      dup3\n      add\n      swap2\n    tag_26:\n      pop\n      pop\n      pop\n      pop\n      pop\n      dup2\n      jump\t// out\n        /* \"contracts/BlockchainMessenger.sol\":254:332  function updateTheMessage(string memory _newMessage) public {... */\n    tag_14:\n      pop\n      jump\t// out\n        /* \"contracts/BlockchainMessenger.sol\":133:153  address public owner */\n    tag_16:\n      0x01\n      0x00\n      swap1\n      sload\n      swap1\n      0x0100\n      exp\n      swap1\n      div\n      0xffffffffffffffffffffffffffffffffffffffff\n      and\n      dup2\n      jump\t// out\n        /* \"contracts/BlockchainMessenger.sol\":99:124  uint public changeCounter */\n    tag_20:\n      sload(0x00)\n      dup2\n      jump\t// out\n        /* \"#utility.yul\":7:106   */\n    tag_30:\n        /* \"#utility.yul\":59:65   */\n      0x00\n        /* \"#utility.yul\":93:98   */\n      dup2\n        /* \"#utility.yul\":87:99   */\n      mload\n        /* \"#utility.yul\":77:99   */\n      swap1\n      pop\n        /* \"#utility.yul\":7:106   */\n      swap2\n      swap1\n      pop\n      jump\t// out\n        /* \"#utility.yul\":112:281   */\n    tag_31:\n        /* \"#utility.yul\":196:207   */\n      0x00\n        /* \"#utility.yul\":230:236   */\n      dup3\n        /* \"#utility.yul\":225:228   */\n      dup3\n        /* \"#utility.yul\":218:237   */\n      mstore\n        /* \"#utility.yul\":270:274   */\n      0x20\n        /* \"#utility.yul\":265:268   */\n      dup3\n        /* \"#utility.yul\":261:275   */\n      add\n        /* \"#utility.yul\":246:275   */\n      swap1\n      pop\n        /* \"#utility.yul\":112:281   */\n      swap3\n      swap2\n      pop\n      pop\n      jump\t// out\n        /* \"#utility.yul\":287:594   */\n    tag_32:\n        /* \"#utility.yul\":355:356   */\n      0x00\n        /* \"#utility.yul\":365:478   */\n    tag_57:\n        /* \"#utility.yul\":379:385   */\n      dup4\n        /* \"#utility.yul\":376:377   */\n      dup2\n        /* \"#utility.yul\":373:386   */\n      lt\n        /* \"#utility.yul\":365:478   */\n      iszero\n      tag_59\n      jumpi\n        /* \"#utility.yul\":464:465   */\n      dup1\n        /* \"#utility.yul\":459:462   */\n      dup3\n        /* \"#utility.yul\":455:466   */\n      add\n        /* \"#utility.yul\":449:467   */\n      mload\n        /* \"#utility.yul\":445:446   */\n      dup2\n        /* \"#utility.yul\":440:443   */\n      dup5\n        /* \"#utility.yul\":436:447   */\n      add\n        /* \"#utility.yul\":429:468   */\n      mstore\n        /* \"#utility.yul\":401:403   */\n      0x20\n        /* \"#utility.yul\":398:399   */\n      dup2\n        /* \"#utility.yul\":394:404   */\n      add\n        /* \"#utility.yul\":389:404   */\n      swap1\n      pop\n        /* \"#utility.yul\":365:478   */\n      jump(tag_57)\n    tag_59:\n        /* \"#utility.yul\":496:502   */\n      dup4\n        /* \"#utility.yul\":493:494   */\n      dup2\n        /* \"#utility.yul\":490:503   */\n      gt\n        /* \"#utility.yul\":487:588   */\n      iszero\n      tag_60\n      jumpi\n        /* \"#utility.yul\":576:577   */\n      0x00\n        /* \"#utility.yul\":567:573   */\n      dup5\n        /* \"#utility.yul\":562:565   */\n      dup5\n        /* \"#utility.yul\":558:574   */\n      add\n        /* \"#utility.yul\":551:578   */\n      mstore\n        /* \"#utility.yul\":487:588   */\n    tag_60:\n        /* \"#utility.yul\":336:594   */\n      pop\n        /* \"#utility.yul\":287:594   */\n      pop\n      pop\n      pop\n      jump\t// out\n        /* \"#utility.yul\":600:702   */\n    tag_33:\n        /* \"#utility.yul\":641:647   */\n      0x00\n        /* \"#utility.yul\":692:694   */\n      0x1f\n        /* \"#utility.yul\":688:695   */\n      not\n        /* \"#utility.yul\":683:685   */\n      0x1f\n        /* \"#utility.yul\":676:681   */\n      dup4\n        /* \"#utility.yul\":672:686   */\n      add\n        /* \"#utility.yul\":668:696   */\n      and\n        /* \"#utility.yul\":658:696   */\n      swap1\n      pop\n        /* \"#utility.yul\":600:702   */\n      swap2\n      swap1\n      pop\n      jump\t// out\n        /* \"#utility.yul\":708:1072   */\n    tag_34:\n        /* \"#utility.yul\":796:799   */\n      0x00\n        /* \"#utility.yul\":824:863   */\n      tag_63\n        /* \"#utility.yul\":857:862   */\n      dup3\n        /* \"#utility.yul\":824:863   */\n      tag_30\n      jump\t// in\n    tag_63:\n        /* \"#utility.yul\":879:950   */\n      tag_64\n        /* \"#utility.yul\":943:949   */\n      dup2\n        /* \"#utility.yul\":938:941   */\n      dup6\n        /* \"#utility.yul\":879:950   */\n      tag_31\n      jump\t// in\n    tag_64:\n        /* \"#utility.yul\":872:950   */\n      swap4\n      pop\n        /* \"#utility.yul\":959:1011   */\n      tag_65\n        /* \"#utility.yul\":1004:1010   */\n      dup2\n        /* \"#utility.yul\":999:1002   */\n      dup6\n        /* \"#utility.yul\":992:996   */\n      0x20\n        /* \"#utility.yul\":985:990   */\n      dup7\n        /* \"#utility.yul\":981:997   */\n      add\n        /* \"#utility.yul\":959:1011   */\n      tag_32\n      jump\t// in\n    tag_65:\n        /* \"#utility.yul\":1036:1065   */\n      tag_66\n        /* \"#utility.yul\":1058:1064   */\n      dup2\n        /* \"#utility.yul\":1036:1065   */\n      tag_33\n      jump\t// in\n    tag_66:\n        /* \"#utility.yul\":1031:1034   */\n      dup5\n        /* \"#utility.yul\":1027:1066   */\n      add\n        /* \"#utility.yul\":1020:1066   */\n      swap2\n      pop\n        /* \"#utility.yul\":800:1072   */\n      pop\n        /* \"#utility.yul\":708:1072   */\n      swap3\n      swap2\n      pop\n      pop\n      jump\t// out\n        /* \"#utility.yul\":1078:1391   */\n    tag_10:\n        /* \"#utility.yul\":1191:1195   */\n      0x00\n        /* \"#utility.yul\":1229:1231   */\n      0x20\n        /* \"#utility.yul\":1218:1227   */\n      dup3\n        /* \"#utility.yul\":1214:1232   */\n      add\n        /* \"#utility.yul\":1206:1232   */\n      swap1\n      pop\n        /* \"#utility.yul\":1278:1287   */\n      dup2\n        /* \"#utility.yul\":1272:1276   */\n      dup2\n        /* \"#utility.yul\":1268:1288   */\n      sub\n        /* \"#utility.yul\":1264:1265   */\n      0x00\n        /* \"#utility.yul\":1253:1262   */\n      dup4\n        /* \"#utility.yul\":1249:1266   */\n      add\n        /* \"#utility.yul\":1242:1289   */\n      mstore\n        /* \"#utility.yul\":1306:1384   */\n      tag_68\n        /* \"#utility.yul\":1379:1383   */\n      dup2\n        /* \"#utility.yul\":1370:1376   */\n      dup5\n        /* \"#utility.yul\":1306:1384   */\n      tag_34\n      jump\t// in\n    tag_68:\n        /* \"#utility.yul\":1298:1384   */\n      swap1\n      pop\n        /* \"#utility.yul\":1078:1391   */\n      swap3\n      swap2\n      pop\n      pop\n      jump\t// out\n        /* \"#utility.yul\":1397:1472   */\n    tag_35:\n        /* \"#utility.yul\":1430:1436   */\n      0x00\n        /* \"#utility.yul\":1463:1465   */\n      0x40\n        /* \"#utility.yul\":1457:1466   */\n      mload\n        /* \"#utility.yul\":1447:1466   */\n      swap1\n      pop\n        /* \"#utility.yul\":1397:1472   */\n      swap1\n      jump\t// out\n        /* \"#utility.yul\":1478:1595   */\n    tag_36:\n        /* \"#utility.yul\":1587:1588   */\n      0x00\n        /* \"#utility.yul\":1584:1585   */\n      dup1\n        /* \"#utility.yul\":1577:1589   */\n      revert\n        /* \"#utility.yul\":1601:1718   */\n    tag_37:\n        /* \"#utility.yul\":1710:1711   */\n      0x00\n        /* \"#utility.yul\":1707:1708   */\n      dup1\n        /* \"#utility.yul\":1700:1712   */\n      revert\n        /* \"#utility.yul\":1724:1841   */\n    tag_38:\n        /* \"#utility.yul\":1833:1834   */\n      0x00\n        /* \"#utility.yul\":1830:1831   */\n      dup1\n        /* \"#utility.yul\":1823:1835   */\n      revert\n        /* \"#utility.yul\":1847:1964   */\n    tag_39:\n        /* \"#utility.yul\":1956:1957   */\n      0x00\n        /* \"#utility.yul\":1953:1954   */\n      dup1\n        /* \"#utility.yul\":1946:1958   */\n      revert\n        /* \"#utility.yul\":1970:2150   */\n    tag_40:\n        /* \"#utility.yul\":2018:2095   */\n      0x4e487b7100000000000000000000000000000000000000000000000000000000\n        /* \"#utility.yul\":2015:2016   */\n      0x00\n        /* \"#utility.yul\":2008:2096   */\n      mstore\n        /* \"#utility.yul\":2115:2119   */\n      0x41\n        /* \"#utility.yul\":2112:2113   */\n      0x04\n        /* \"#utility.yul\":2105:2120   */\n      mstore\n        /* \"#utility.yul\":2139:2143   */\n      0x24\n        /* \"#utility.yul\":2136:2137   */\n      0x00\n        /* \"#utility.yul\":2129:2144   */\n      revert\n        /* \"#utility.yul\":2156:2437   */\n    tag_41:\n        /* \"#utility.yul\":2239:2266   */\n      tag_76\n        /* \"#utility.yul\":2261:2265   */\n      dup3\n        /* \"#utility.yul\":2239:2266   */\n      tag_33\n      jump\t// in\n    tag_76:\n        /* \"#utility.yul\":2231:2237   */\n      dup2\n        /* \"#utility.yul\":2227:2267   */\n      add\n        /* \"#utility.yul\":2369:2375   */\n      dup2\n        /* \"#utility.yul\":2357:2367   */\n      dup2\n        /* \"#utility.yul\":2354:2376   */\n      lt\n        /* \"#utility.yul\":2333:2351   */\n      0xffffffffffffffff\n        /* \"#utility.yul\":2321:2331   */\n      dup3\n        /* \"#utility.yul\":2318:2352   */\n      gt\n        /* \"#utility.yul\":2315:2377   */\n      or\n        /* \"#utility.yul\":2312:2400   */\n      iszero\n      tag_77\n      jumpi\n        /* \"#utility.yul\":2380:2398   */\n      tag_78\n      tag_40\n      jump\t// in\n    tag_78:\n        /* \"#utility.yul\":2312:2400   */\n    tag_77:\n        /* \"#utility.yul\":2420:2430   */\n      dup1\n        /* \"#utility.yul\":2416:2418   */\n      0x40\n        /* \"#utility.yul\":2409:2431   */\n      mstore\n        /* \"#utility.yul\":2199:2437   */\n      pop\n        /* \"#utility.yul\":2156:2437   */\n      pop\n      pop\n      jump\t// out\n        /* \"#utility.yul\":2443:2572   */\n    tag_42:\n        /* \"#utility.yul\":2477:2483   */\n      0x00\n        /* \"#utility.yul\":2504:2524   */\n      tag_80\n      tag_35\n      jump\t// in\n    tag_80:\n        /* \"#utility.yul\":2494:2524   */\n      swap1\n      pop\n        /* \"#utility.yul\":2533:2566   */\n      tag_81\n        /* \"#utility.yul\":2561:2565   */\n      dup3\n        /* \"#utility.yul\":2553:2559   */\n      dup3\n        /* \"#utility.yul\":2533:2566   */\n      tag_41\n      jump\t// in\n    tag_81:\n        /* \"#utility.yul\":2443:2572   */\n      swap2\n      swap1\n      pop\n      jump\t// out\n        /* \"#utility.yul\":2578:2886   */\n    tag_43:\n        /* \"#utility.yul\":2640:2644   */\n      0x00\n        /* \"#utility.yul\":2730:2748   */\n      0xffffffffffffffff\n        /* \"#utility.yul\":2722:2728   */\n      dup3\n        /* \"#utility.yul\":2719:2749   */\n      gt\n        /* \"#utility.yul\":2716:2772   */\n      iszero\n      tag_83\n      jumpi\n        /* \"#utility.yul\":2752:2770   */\n      tag_84\n      tag_40\n      jump\t// in\n    tag_84:\n        /* \"#utility.yul\":2716:2772   */\n    tag_83:\n        /* \"#utility.yul\":2790:2819   */\n      tag_85\n        /* \"#utility.yul\":2812:2818   */\n      dup3\n        /* \"#utility.yul\":2790:2819   */\n      tag_33\n      jump\t// in\n    tag_85:\n        /* \"#utility.yul\":2782:2819   */\n      swap1\n      pop\n        /* \"#utility.yul\":2874:2878   */\n      0x20\n        /* \"#utility.yul\":2868:2872   */\n      dup2\n        /* \"#utility.yul\":2864:2879   */\n      add\n        /* \"#utility.yul\":2856:2879   */\n      swap1\n      pop\n        /* \"#utility.yul\":2578:2886   */\n      swap2\n      swap1\n      pop\n      jump\t// out\n        /* \"#utility.yul\":2892:3046   */\n    tag_44:\n        /* \"#utility.yul\":2976:2982   */\n      dup3\n        /* \"#utility.yul\":2971:2974   */\n      dup2\n        /* \"#utility.yul\":2966:2969   */\n      dup4\n        /* \"#utility.yul\":2953:2983   */\n      calldatacopy\n        /* \"#utility.yul\":3038:3039   */\n      0x00\n        /* \"#utility.yul\":3029:3035   */\n      dup4\n        /* \"#utility.yul\":3024:3027   */\n      dup4\n        /* \"#utility.yul\":3020:3036   */\n      add\n        /* \"#utility.yul\":3013:3040   */\n      mstore\n        /* \"#utility.yul\":2892:3046   */\n      pop\n      pop\n      pop\n      jump\t// out\n        /* \"#utility.yul\":3052:3464   */\n    tag_45:\n        /* \"#utility.yul\":3130:3135   */\n      0x00\n        /* \"#utility.yul\":3155:3221   */\n      tag_88\n        /* \"#utility.yul\":3171:3220   */\n      tag_89\n        /* \"#utility.yul\":3213:3219   */\n      dup5\n        /* \"#utility.yul\":3171:3220   */\n      tag_43\n      jump\t// in\n    tag_89:\n        /* \"#utility.yul\":3155:3221   */\n      tag_42\n      jump\t// in\n    tag_88:\n        /* \"#utility.yul\":3146:3221   */\n      swap1\n      pop\n        /* \"#utility.yul\":3244:3250   */\n      dup3\n        /* \"#utility.yul\":3237:3242   */\n      dup2\n        /* \"#utility.yul\":3230:3251   */\n      mstore\n        /* \"#utility.yul\":3282:3286   */\n      0x20\n        /* \"#utility.yul\":3275:3280   */\n      dup2\n        /* \"#utility.yul\":3271:3287   */\n      add\n        /* \"#utility.yul\":3320:3323   */\n      dup5\n        /* \"#utility.yul\":3311:3317   */\n      dup5\n        /* \"#utility.yul\":3306:3309   */\n      dup5\n        /* \"#utility.yul\":3302:3318   */\n      add\n        /* \"#utility.yul\":3299:3324   */\n      gt\n        /* \"#utility.yul\":3296:3408   */\n      iszero\n      tag_90\n      jumpi\n        /* \"#utility.yul\":3327:3406   */\n      tag_91\n      tag_39\n      jump\t// in\n    tag_91:\n        /* \"#utility.yul\":3296:3408   */\n    tag_90:\n        /* \"#utility.yul\":3417:3458   */\n      tag_92\n        /* \"#utility.yul\":3451:3457   */\n      dup5\n        /* \"#utility.yul\":3446:3449   */\n      dup3\n        /* \"#utility.yul\":3441:3444   */\n      dup6\n        /* \"#utility.yul\":3417:3458   */\n      tag_44\n      jump\t// in\n    tag_92:\n        /* \"#utility.yul\":3136:3464   */\n      pop\n        /* \"#utility.yul\":3052:3464   */\n      swap4\n      swap3\n      pop\n      pop\n      pop\n      jump\t// out\n        /* \"#utility.yul\":3484:3824   */\n    tag_46:\n        /* \"#utility.yul\":3540:3545   */\n      0x00\n        /* \"#utility.yul\":3589:3592   */\n      dup3\n        /* \"#utility.yul\":3582:3586   */\n      0x1f\n        /* \"#utility.yul\":3574:3580   */\n      dup4\n        /* \"#utility.yul\":3570:3587   */\n      add\n        /* \"#utility.yul\":3566:3593   */\n      slt\n        /* \"#utility.yul\":3556:3678   */\n      tag_94\n      jumpi\n        /* \"#utility.yul\":3597:3676   */\n      tag_95\n      tag_38\n      jump\t// in\n    tag_95:\n        /* \"#utility.yul\":3556:3678   */\n    tag_94:\n        /* \"#utility.yul\":3714:3720   */\n      dup2\n        /* \"#utility.yul\":3701:3721   */\n      calldataload\n        /* \"#utility.yul\":3739:3818   */\n      tag_96\n        /* \"#utility.yul\":3814:3817   */\n      dup5\n        /* \"#utility.yul\":3806:3812   */\n      dup3\n        /* \"#utility.yul\":3799:3803   */\n      0x20\n        /* \"#utility.yul\":3791:3797   */\n      dup7\n        /* \"#utility.yul\":3787:3804   */\n      add\n        /* \"#utility.yul\":3739:3818   */\n      tag_45\n      jump\t// in\n    tag_96:\n        /* \"#utility.yul\":3730:3818   */\n      swap2\n      pop\n        /* \"#utility.yul\":3546:3824   */\n      pop\n        /* \"#utility.yul\":3484:3824   */\n      swap3\n      swap2\n      pop\n      pop\n      jump\t// out\n        /* \"#utility.yul\":3830:4339   */\n    tag_13:\n        /* \"#utility.yul\":3899:3905   */\n      0x00\n        /* \"#utility.yul\":3948:3950   */\n      0x20\n        /* \"#utility.yul\":3936:3945   */\n      dup3\n        /* \"#utility.yul\":3927:3934   */\n      dup5\n        /* \"#utility.yul\":3923:3946   */\n      sub\n        /* \"#utility.yul\":3919:3951   */\n      slt\n        /* \"#utility.yul\":3916:4035   */\n      iszero\n      tag_98\n      jumpi\n        /* \"#utility.yul\":3954:4033   */\n      tag_99\n      tag_36\n      jump\t// in\n    tag_99:\n        /* \"#utility.yul\":3916:4035   */\n    tag_98:\n        /* \"#utility.yul\":4102:4103   */\n      0x00\n        /* \"#utility.yul\":4091:4100   */\n      dup3\n        /* \"#utility.yul\":4087:4104   */\n      add\n        /* \"#utility.yul\":4074:4105   */\n      calldataload\n        /* \"#utility.yul\":4132:4150   */\n      0xffffffffffffffff\n        /* \"#utility.yul\":4124:4130   */\n      dup2\n        /* \"#utility.yul\":4121:4151   */\n      gt\n        /* \"#utility.yul\":4118:4235   */\n      iszero\n      tag_100\n      jumpi\n        /* \"#utility.yul\":4154:4233   */\n      tag_101\n      tag_37\n      jump\t// in\n    tag_101:\n        /* \"#utility.yul\":4118:4235   */\n    tag_100:\n        /* \"#utility.yul\":4259:4322   */\n      tag_102\n        /* \"#utility.yul\":4314:4321   */\n      dup5\n        /* \"#utility.yul\":4305:4311   */\n      dup3\n        /* \"#utility.yul\":4294:4303   */\n      dup6\n        /* \"#utility.yul\":4290:4312   */\n      add\n        /* \"#utility.yul\":4259:4322   */\n      tag_46\n      jump\t// in\n    tag_102:\n        /* \"#utility.yul\":4249:4322   */\n      swap2\n      pop\n        /* \"#utility.yul\":4045:4332   */\n      pop\n        /* \"#utility.yul\":3830:4339   */\n      swap3\n      swap2\n      pop\n      pop\n      jump\t// out\n        /* \"#utility.yul\":4345:4471   */\n    tag_47:\n        /* \"#utility.yul\":4382:4389   */\n      0x00\n        /* \"#utility.yul\":4422:4464   */\n      0xffffffffffffffffffffffffffffffffffffffff\n        /* \"#utility.yul\":4415:4420   */\n      dup3\n        /* \"#utility.yul\":4411:4465   */\n      and\n        /* \"#utility.yul\":4400:4465   */\n      swap1\n      pop\n        /* \"#utility.yul\":4345:4471   */\n      swap2\n      swap1\n      pop\n      jump\t// out\n        /* \"#utility.yul\":4477:4573   */\n    tag_48:\n        /* \"#utility.yul\":4514:4521   */\n      0x00\n        /* \"#utility.yul\":4543:4567   */\n      tag_105\n        /* \"#utility.yul\":4561:4566   */\n      dup3\n        /* \"#utility.yul\":4543:4567   */\n      tag_47\n      jump\t// in\n    tag_105:\n        /* \"#utility.yul\":4532:4567   */\n      swap1\n      pop\n        /* \"#utility.yul\":4477:4573   */\n      swap2\n      swap1\n      pop\n      jump\t// out\n        /* \"#utility.yul\":4579:4697   */\n    tag_49:\n        /* \"#utility.yul\":4666:4690   */\n      tag_107\n        /* \"#utility.yul\":4684:4689   */\n      dup2\n        /* \"#utility.yul\":4666:4690   */\n      tag_48\n      jump\t// in\n    tag_107:\n        /* \"#utility.yul\":4661:4664   */\n      dup3\n        /* \"#utility.yul\":4654:4691   */\n      mstore\n        /* \"#utility.yul\":4579:4697   */\n      pop\n      pop\n      jump\t// out\n        /* \"#utility.yul\":4703:4925   */\n    tag_18:\n        /* \"#utility.yul\":4796:4800   */\n      0x00\n        /* \"#utility.yul\":4834:4836   */\n      0x20\n        /* \"#utility.yul\":4823:4832   */\n      dup3\n        /* \"#utility.yul\":4819:4837   */\n      add\n        /* \"#utility.yul\":4811:4837   */\n      swap1\n      pop\n        /* \"#utility.yul\":4847:4918   */\n      tag_109\n        /* \"#utility.yul\":4915:4916   */\n      0x00\n        /* \"#utility.yul\":4904:4913   */\n      dup4\n        /* \"#utility.yul\":4900:4917   */\n      add\n        /* \"#utility.yul\":4891:4897   */\n      dup5\n        /* \"#utility.yul\":4847:4918   */\n      tag_49\n      jump\t// in\n    tag_109:\n        /* \"#utility.yul\":4703:4925   */\n      swap3\n      swap2\n      pop\n      pop\n      jump\t// out\n        /* \"#utility.yul\":4931:5008   */\n    tag_50:\n        /* \"#utility.yul\":4968:4975   */\n      0x00\n        /* \"#utility.yul\":4997:5002   */\n      dup2\n        /* \"#utility.yul\":4986:5002   */\n      swap1\n      pop\n        /* \"#utility.yul\":4931:5008   */\n      swap2\n      swap1\n      pop\n      jump\t// out\n        /* \"#utility.yul\":5014:5132   */\n    tag_51:\n        /* \"#utility.yul\":5101:5125   */\n      tag_112\n        /* \"#utility.yul\":5119:5124   */\n      dup2\n        /* \"#utility.yul\":5101:5125   */\n      tag_50\n      jump\t// in\n    tag_112:\n        /* \"#utility.yul\":5096:5099   */\n      dup3\n        /* \"#utility.yul\":5089:5126   */\n      mstore\n        /* \"#utility.yul\":5014:5132   */\n      pop\n      pop\n      jump\t// out\n        /* \"#utility.yul\":5138:5360   */\n    tag_22:\n        /* \"#utility.yul\":5231:5235   */\n      0x00\n        /* \"#utility.yul\":5269:5271   */\n      0x20\n        /* \"#utility.yul\":5258:5267   */\n      dup3\n        /* \"#utility.yul\":5254:5272   */\n      add\n        /* \"#utility.yul\":5246:5272   */\n      swap1\n      pop\n        /* \"#utility.yul\":5282:5353   */\n      tag_114\n        /* \"#utility.yul\":5350:5351   */\n      0x00\n        /* \"#utility.yul\":5339:5348   */\n      dup4\n        /* \"#utility.yul\":5335:5352   */\n      add\n        /* \"#utility.yul\":5326:5332   */\n      dup5\n        /* \"#utility.yul\":5282:5353   */\n      tag_51\n      jump\t// in\n    tag_114:\n        /* \"#utility.yul\":5138:5360   */\n      swap3\n      swap2\n      pop\n      pop\n      jump\t// out\n        /* \"#utility.yul\":5366:5546   */\n    tag_52:\n        /* \"#utility.yul\":5414:5491   */\n      0x4e487b7100000000000000000000000000000000000000000000000000000000\n        /* \"#utility.yul\":5411:5412   */\n      0x00\n        /* \"#utility.yul\":5404:5492   */\n      mstore\n        /* \"#utility.yul\":5511:5515   */\n      0x22\n        /* \"#utility.yul\":5508:5509   */\n      0x04\n        /* \"#utility.yul\":5501:5516   */\n      mstore\n        /* \"#utility.yul\":5535:5539   */\n      0x24\n        /* \"#utility.yul\":5532:5533   */\n      0x00\n        /* \"#utility.yul\":5525:5540   */\n      revert\n        /* \"#utility.yul\":5552:5872   */\n    tag_24:\n        /* \"#utility.yul\":5596:5602   */\n      0x00\n        /* \"#utility.yul\":5633:5634   */\n      0x02\n        /* \"#utility.yul\":5627:5631   */\n      dup3\n        /* \"#utility.yul\":5623:5635   */\n      div\n        /* \"#utility.yul\":5613:5635   */\n      swap1\n      pop\n        /* \"#utility.yul\":5680:5681   */\n      0x01\n        /* \"#utility.yul\":5674:5678   */\n      dup3\n        /* \"#utility.yul\":5670:5682   */\n      and\n        /* \"#utility.yul\":5701:5719   */\n      dup1\n        /* \"#utility.yul\":5691:5772   */\n      tag_117\n      jumpi\n        /* \"#utility.yul\":5757:5761   */\n      0x7f\n        /* \"#utility.yul\":5749:5755   */\n      dup3\n        /* \"#utility.yul\":5745:5762   */\n      and\n        /* \"#utility.yul\":5735:5762   */\n      swap2\n      pop\n        /* \"#utility.yul\":5691:5772   */\n    tag_117:\n        /* \"#utility.yul\":5819:5821   */\n      0x20\n        /* \"#utility.yul\":5811:5817   */\n      dup3\n        /* \"#utility.yul\":5808:5822   */\n      lt\n        /* \"#utility.yul\":5788:5806   */\n      dup2\n        /* \"#utility.yul\":5785:5823   */\n      sub\n        /* \"#utility.yul\":5782:5866   */\n      tag_118\n      jumpi\n        /* \"#utility.yul\":5838:5856   */\n      tag_119\n      tag_52\n      jump\t// in\n    tag_119:\n        /* \"#utility.yul\":5782:5866   */\n    tag_118:\n        /* \"#utility.yul\":5603:5872   */\n      pop\n        /* \"#utility.yul\":5552:5872   */\n      swap2\n      swap1\n      pop\n      jump\t// out\n\n    auxdata: 0xa26469706673582212204814eb40af6c9e9d13bdd14f55ba62287e61374a34680a01974eb9bce7823c3f64736f6c634300080f0033\n}\n",
				"bytecode": {
					"linkReferences": {},
					"object": "608060405234801561001057600080fd5b5033600160006101000a81548173ffffffffffffffffffffffffffffffffffffffff021916908373ffffffffffffffffffffffffffffffffffffffff1602179055506104f7806100616000396000f3fe608060405234801561001057600080fd5b506004361061004c5760003560e01c806367e8805f146100515780636a3944341461006f5780638da5cb5b1461008b578063aaf4389a146100a9575b600080fd5b6100596100c7565b604051610066919061021d565b60405180910390f35b61008960048036038101906100849190610388565b610155565b005b610093610158565b6040516100a09190610412565b60405180910390f35b6100b161017e565b6040516100be9190610446565b60405180910390f35b600280546100d490610490565b80601f016020809104026020016040519081016040528092919081815260200182805461010090610490565b801561014d5780601f106101225761010080835404028352916020019161014d565b820191906000526020600020905b81548152906001019060200180831161013057829003601f168201915b505050505081565b50565b600160009054906101000a900473ffffffffffffffffffffffffffffffffffffffff1681565b60005481565b600081519050919050565b600082825260208201905092915050565b60005b838110156101be5780820151818401526020810190506101a3565b838111156101cd576000848401525b50505050565b6000601f19601f8301169050919050565b60006101ef82610184565b6101f9818561018f565b93506102098185602086016101a0565b610212816101d3565b840191505092915050565b6000602082019050818103600083015261023781846101e4565b905092915050565b6000604051905090565b600080fd5b600080fd5b600080fd5b600080fd5b7f4e487b7100000000000000000000000000000000000000000000000000000000600052604160045260246000fd5b610295826101d3565b810181811067ffffffffffffffff821117156102b4576102b361025d565b5b80604052505050565b60006102c761023f565b90506102d3828261028c565b919050565b600067ffffffffffffffff8211156102f3576102f261025d565b5b6102fc826101d3565b9050602081019050919050565b82818337600083830152505050565b600061032b610326846102d8565b6102bd565b90508281526020810184848401111561034757610346610258565b5b610352848285610309565b509392505050565b600082601f83011261036f5761036e610253565b5b813561037f848260208601610318565b91505092915050565b60006020828403121561039e5761039d610249565b5b600082013567ffffffffffffffff8111156103bc576103bb61024e565b5b6103c88482850161035a565b91505092915050565b600073ffffffffffffffffffffffffffffffffffffffff82169050919050565b60006103fc826103d1565b9050919050565b61040c816103f1565b82525050565b60006020820190506104276000830184610403565b92915050565b6000819050919050565b6104408161042d565b82525050565b600060208201905061045b6000830184610437565b92915050565b7f4e487b7100000000000000000000000000000000000000000000000000000000600052602260045260246000fd5b600060028204905060018216806104a857607f821691505b6020821081036104bb576104ba610461565b5b5091905056fea26469706673582212204814eb40af6c9e9d13bdd14f55ba62287e61374a34680a01974eb9bce7823c3f64736f6c634300080f0033",
					"opcodes": "PUSH1 0x80 PUSH1 0x40 MSTORE CALLVALUE DUP1 ISZERO PUSH2 0x10 JUMPI PUSH1 0x0 DUP1 REVERT JUMPDEST POP CALLER PUSH1 0x1 PUSH1 0x0 PUSH2 0x100 EXP DUP2 SLOAD DUP2 PUSH20 0xFFFFFFFFFFFFFFFFFFFFFFFFFFFFFFFFFFFFFFFF MUL NOT AND SWAP1 DUP4 PUSH20 0xFFFFFFFFFFFFFFFFFFFFFFFFFFFFFFFFFFFFFFFF AND MUL OR SWAP1 SSTORE POP PUSH2 0x4F7 DUP1 PUSH2 0x61 PUSH1 0x0 CODECOPY PUSH1 0x0 RETURN INVALID PUSH1 0x80 PUSH1 0x40 MSTORE CALLVALUE DUP1 ISZERO PUSH2 0x10 JUMPI PUSH1 0x0 DUP1 REVERT JUMPDEST POP PUSH1 0x4 CALLDATASIZE LT PUSH2 0x4C JUMPI PUSH1 0x0 CALLDATALOAD PUSH1 0xE0 SHR DUP1 PUSH4 0x67E8805F EQ PUSH2 0x51 JUMPI DUP1 PUSH4 0x6A394434 EQ PUSH2 0x6F JUMPI DUP1 PUSH4 0x8DA5CB5B EQ PUSH2 0x8B JUMPI DUP1 PUSH4 0xAAF4389A EQ PUSH2 0xA9 JUMPI JUMPDEST PUSH1 0x0 DUP1 REVERT JUMPDEST PUSH2 0x59 PUSH2 0xC7 JUMP JUMPDEST PUSH1 0x40 MLOAD PUSH2 0x66 SWAP2 SWAP1 PUSH2 0x21D JUMP JUMPDEST PUSH1 0x40 MLOAD DUP1 SWAP2 SUB SWAP1 RETURN JUMPDEST PUSH2 0x89 PUSH1 0x4 DUP1 CALLDATASIZE SUB DUP2 ADD SWAP1 PUSH2 0x84 SWAP2 SWAP1 PUSH2 0x388 JUMP JUMPDEST PUSH2 0x155 JUMP JUMPDEST STOP JUMPDEST PUSH2 0x93 PUSH2 0x158 JUMP JUMPDEST PUSH1 0x40 MLOAD PUSH2 0xA0 SWAP2 SWAP1 PUSH2 0x412 JUMP JUMPDEST PUSH1 0x40 MLOAD DUP1 SWAP2 SUB SWAP1 RETURN JUMPDEST PUSH2 0xB1 PUSH2 0x17E JUMP JUMPDEST PUSH1 0x40 MLOAD PUSH2 0xBE SWAP2 SWAP1 PUSH2 0x446 JUMP JUMPDEST PUSH1 0x40 MLOAD DUP1 SWAP2 SUB SWAP1 RETURN JUMPDEST PUSH1 0x2 DUP1 SLOAD PUSH2 0xD4 SWAP1 PUSH2 0x490 JUMP JUMPDEST DUP1 PUSH1 0x1F ADD PUSH1 0x20 DUP1 SWAP2 DIV MUL PUSH1 0x20 ADD PUSH1 0x40 MLOAD SWAP1 DUP2 ADD PUSH1 0x40 MSTORE DUP1 SWAP3 SWAP2 SWAP1 DUP2 DUP2 MSTORE PUSH1 0x20 ADD DUP3 DUP1 SLOAD PUSH2 0x100 SWAP1 PUSH2 0x490 JUMP JUMPDEST DUP1 ISZERO PUSH2 0x14D JUMPI DUP1 PUSH1 0x1F LT PUSH2 0x122 JUMPI PUSH2 0x100 DUP1 DUP4 SLOAD DIV MUL DUP4 MSTORE SWAP2 PUSH1 0x20 ADD SWAP2 PUSH2 0x14D JUMP JUMPDEST DUP3 ADD SWAP2 SWAP1 PUSH1 0x0 MSTORE PUSH1 0x20 PUSH1 0x0 KECCAK256 SWAP1 JUMPDEST DUP2 SLOAD DUP2 MSTORE SWAP1 PUSH1 0x1 ADD SWAP1 PUSH1 0x20 ADD DUP1 DUP4 GT PUSH2 0x130 JUMPI DUP3 SWAP1 SUB PUSH1 0x1F AND DUP3 ADD SWAP2 JUMPDEST POP POP POP POP POP DUP2 JUMP JUMPDEST POP JUMP JUMPDEST PUSH1 0x1 PUSH1 0x0 SWAP1 SLOAD SWAP1 PUSH2 0x100 EXP SWAP1 DIV PUSH20 0xFFFFFFFFFFFFFFFFFFFFFFFFFFFFFFFFFFFFFFFF AND DUP2 JUMP JUMPDEST PUSH1 0x0 SLOAD DUP2 JUMP JUMPDEST PUSH1 0x0 DUP2 MLOAD SWAP1 POP SWAP2 SWAP1 POP JUMP JUMPDEST PUSH1 0x0 DUP3 DUP3 MSTORE PUSH1 0x20 DUP3 ADD SWAP1 POP SWAP3 SWAP2 POP POP JUMP JUMPDEST PUSH1 0x0 JUMPDEST DUP4 DUP2 LT ISZERO PUSH2 0x1BE JUMPI DUP1 DUP3 ADD MLOAD DUP2 DUP5 ADD MSTORE PUSH1 0x20 DUP2 ADD SWAP1 POP PUSH2 0x1A3 JUMP JUMPDEST DUP4 DUP2 GT ISZERO PUSH2 0x1CD JUMPI PUSH1 0x0 DUP5 DUP5 ADD MSTORE JUMPDEST POP POP POP POP JUMP JUMPDEST PUSH1 0x0 PUSH1 0x1F NOT PUSH1 0x1F DUP4 ADD AND SWAP1 POP SWAP2 SWAP1 POP JUMP JUMPDEST PUSH1 0x0 PUSH2 0x1EF DUP3 PUSH2 0x184 JUMP JUMPDEST PUSH2 0x1F9 DUP2 DUP6 PUSH2 0x18F JUMP JUMPDEST SWAP4 POP PUSH2 0x209 DUP2 DUP6 PUSH1 0x20 DUP7 ADD PUSH2 0x1A0 JUMP JUMPDEST PUSH2 0x212 DUP2 PUSH2 0x1D3 JUMP JUMPDEST DUP5 ADD SWAP2 POP POP SWAP3 SWAP2 POP POP JUMP JUMPDEST PUSH1 0x0 PUSH1 0x20 DUP3 ADD SWAP1 POP DUP2 DUP2 SUB PUSH1 0x0 DUP4 ADD MSTORE PUSH2 0x237 DUP2 DUP5 PUSH2 0x1E4 JUMP JUMPDEST SWAP1 POP SWAP3 SWAP2 POP POP JUMP JUMPDEST PUSH1 0x0 PUSH1 0x40 MLOAD SWAP1 POP SWAP1 JUMP JUMPDEST PUSH1 0x0 DUP1 REVERT JUMPDEST PUSH1 0x0 DUP1 REVERT JUMPDEST PUSH1 0x0 DUP1 REVERT JUMPDEST PUSH1 0x0 DUP1 REVERT JUMPDEST PUSH32 0x4E487B7100000000000000000000000000000000000000000000000000000000 PUSH1 0x0 MSTORE PUSH1 0x41 PUSH1 0x4 MSTORE PUSH1 0x24 PUSH1 0x0 REVERT JUMPDEST PUSH2 0x295 DUP3 PUSH2 0x1D3 JUMP JUMPDEST DUP2 ADD DUP2 DUP2 LT PUSH8 0xFFFFFFFFFFFFFFFF DUP3 GT OR ISZERO PUSH2 0x2B4 JUMPI PUSH2 0x2B3 PUSH2 0x25D JUMP JUMPDEST JUMPDEST DUP1 PUSH1 0x40 MSTORE POP POP POP JUMP JUMPDEST PUSH1 0x0 PUSH2 0x2C7 PUSH2 0x23F JUMP JUMPDEST SWAP1 POP PUSH2 0x2D3 DUP3 DUP3 PUSH2 0x28C JUMP JUMPDEST SWAP2 SWAP1 POP JUMP JUMPDEST PUSH1 0x0 PUSH8 0xFFFFFFFFFFFFFFFF DUP3 GT ISZERO PUSH2 0x2F3 JUMPI PUSH2 0x2F2 PUSH2 0x25D JUMP JUMPDEST JUMPDEST PUSH2 0x2FC DUP3 PUSH2 0x1D3 JUMP JUMPDEST SWAP1 POP PUSH1 0x20 DUP2 ADD SWAP1 POP SWAP2 SWAP1 POP JUMP JUMPDEST DUP3 DUP2 DUP4 CALLDATACOPY PUSH1 0x0 DUP4 DUP4 ADD MSTORE POP POP POP JUMP JUMPDEST PUSH1 0x0 PUSH2 0x32B PUSH2 0x326 DUP5 PUSH2 0x2D8 JUMP JUMPDEST PUSH2 0x2BD JUMP JUMPDEST SWAP1 POP DUP3 DUP2 MSTORE PUSH1 0x20 DUP2 ADD DUP5 DUP5 DUP5 ADD GT ISZERO PUSH2 0x347 JUMPI PUSH2 0x346 PUSH2 0x258 JUMP JUMPDEST JUMPDEST PUSH2 0x352 DUP5 DUP3 DUP6 PUSH2 0x309 JUMP JUMPDEST POP SWAP4 SWAP3 POP POP POP JUMP JUMPDEST PUSH1 0x0 DUP3 PUSH1 0x1F DUP4 ADD SLT PUSH2 0x36F JUMPI PUSH2 0x36E PUSH2 0x253 JUMP JUMPDEST JUMPDEST DUP2 CALLDATALOAD PUSH2 0x37F DUP5 DUP3 PUSH1 0x20 DUP7 ADD PUSH2 0x318 JUMP JUMPDEST SWAP2 POP POP SWAP3 SWAP2 POP POP JUMP JUMPDEST PUSH1 0x0 PUSH1 0x20 DUP3 DUP5 SUB SLT ISZERO PUSH2 0x39E JUMPI PUSH2 0x39D PUSH2 0x249 JUMP JUMPDEST JUMPDEST PUSH1 0x0 DUP3 ADD CALLDATALOAD PUSH8 0xFFFFFFFFFFFFFFFF DUP2 GT ISZERO PUSH2 0x3BC JUMPI PUSH2 0x3BB PUSH2 0x24E JUMP JUMPDEST JUMPDEST PUSH2 0x3C8 DUP5 DUP3 DUP6 ADD PUSH2 0x35A JUMP JUMPDEST SWAP2 POP POP SWAP3 SWAP2 POP POP JUMP JUMPDEST PUSH1 0x0 PUSH20 0xFFFFFFFFFFFFFFFFFFFFFFFFFFFFFFFFFFFFFFFF DUP3 AND SWAP1 POP SWAP2 SWAP1 POP JUMP JUMPDEST PUSH1 0x0 PUSH2 0x3FC DUP3 PUSH2 0x3D1 JUMP JUMPDEST SWAP1 POP SWAP2 SWAP1 POP JUMP JUMPDEST PUSH2 0x40C DUP2 PUSH2 0x3F1 JUMP JUMPDEST DUP3 MSTORE POP POP JUMP JUMPDEST PUSH1 0x0 PUSH1 0x20 DUP3 ADD SWAP1 POP PUSH2 0x427 PUSH1 0x0 DUP4 ADD DUP5 PUSH2 0x403 JUMP JUMPDEST SWAP3 SWAP2 POP POP JUMP JUMPDEST PUSH1 0x0 DUP2 SWAP1 POP SWAP2 SWAP1 POP JUMP JUMPDEST PUSH2 0x440 DUP2 PUSH2 0x42D JUMP JUMPDEST DUP3 MSTORE POP POP JUMP JUMPDEST PUSH1 0x0 PUSH1 0x20 DUP3 ADD SWAP1 POP PUSH2 0x45B PUSH1 0x0 DUP4 ADD DUP5 PUSH2 0x437 JUMP JUMPDEST SWAP3 SWAP2 POP POP JUMP JUMPDEST PUSH32 0x4E487B7100000000000000000000000000000000000000000000000000000000 PUSH1 0x0 MSTORE PUSH1 0x22 PUSH1 0x4 MSTORE PUSH1 0x24 PUSH1 0x0 REVERT JUMPDEST PUSH1 0x0 PUSH1 0x2 DUP3 DIV SWAP1 POP PUSH1 0x1 DUP3 AND DUP1 PUSH2 0x4A8 JUMPI PUSH1 0x7F DUP3 AND SWAP2 POP JUMPDEST PUSH1 0x20 DUP3 LT DUP2 SUB PUSH2 0x4BB JUMPI PUSH2 0x4BA PUSH2 0x461 JUMP JUMPDEST JUMPDEST POP SWAP2 SWAP1 POP JUMP INVALID LOG2 PUSH5 0x6970667358 0x22 SLT KECCAK256 BASEFEE EQ 0xEB BLOCKHASH 0xAF PUSH13 0x9E9D13BDD14F55BA62287E6137 0x4A CALLVALUE PUSH9 0xA01974EB9BCE7823C EXTCODEHASH PUSH5 0x736F6C6343 STOP ADDMOD 0xF STOP CALLER "
				},
				"gasEstimates": {
					"creation": {
						"codeDepositCost": "254200",
						"executionCost": "24560",
						"totalCost": "278760"
					},
					"external": {
						"changeCounter()": "2473",
						"owner()": "2536",
						"theMessage()": "infinite",
						"updateTheMessage(string)": "infinite"
					}
				},
				"methodIdentifiers": {
					"changeCounter()": "aaf4389a",
					"owner()": "8da5cb5b",
					"theMessage()": "67e8805f",
					"updateTheMessage(string)": "6a394434"
				}
			},
			"storageLayout": {
				"storage": [
					{
						"astId": 3,
						"contract": "contracts/BlockchainMessenger.sol:BlockchainMessenger",
						"label": "changeCounter",
						"offset": 0,
						"slot": "0",
						"type": "t_uint256"
					},
					{
						"astId": 5,
						"contract": "contracts/BlockchainMessenger.sol:BlockchainMessenger",
						"label": "owner",
						"offset": 0,
						"slot": "1",
						"type": "t_address"
					},
					{
						"astId": 7,
						"contract": "contracts/BlockchainMessenger.sol:BlockchainMessenger",
						"label": "theMessage",
						"offset": 0,
						"slot": "2",
						"type": "t_string_storage"
					}
				],
				"types": {
					"t_address": {
						"encoding": "inplace",
						"label": "address",
						"numberOfBytes": "20"
					},
					"t_string_storage": {
						"encoding": "bytes",
						"label": "string",
						"numberOfBytes": "32"
					},
					"t_uint256": {
						"encoding": "inplace",
						"label": "uint256",
						"numberOfBytes": "32"
					}
				}
			},
			"userdoc": {
				"kind": "user",
				"methods": {},
				"version": 1
			}
		}
	}
}