{
	"contracts/ExampleWrapAround.sol": {
		"ExampleWrapAround": {
			"abi": [
				{
					"inputs": [],
					"name": "decrementUint",
					"outputs": [],
					"stateMutability": "nonpayable",
					"type": "function"
				},
				{
					"inputs": [],
					"name": "incrementUint8",
					"outputs": [],
					"stateMutability": "nonpayable",
					"type": "function"
				},
				{
					"inputs": [],
					"name": "myUint",
					"outputs": [
						{
							"internalType": "uint256",
							"name": "",
							"type": "uint256"
						}
					],
					"stateMutability": "view",
					"type": "function"
				},
				{
					"inputs": [],
					"name": "myUint8",
					"outputs": [
						{
							"internalType": "uint8",
							"name": "",
							"type": "uint8"
						}
					],
					"stateMutability": "view",
					"type": "function"
				},
				{
					"inputs": [
						{
							"internalType": "uint256",
							"name": "_myUint",
							"type": "uint256"
						}
					],
					"name": "setMyUint",
					"outputs": [],
					"stateMutability": "nonpayable",
					"type": "function"
				}
			],
			"devdoc": {
				"kind": "dev",
				"methods": {},
				"version": 1
			},
			"evm": {
				"assembly": "    /* \"contracts/ExampleWrapAround.sol\":60:475  contract ExampleWrapAround {\r... */\n  mstore(0x40, 0x80)\n    /* \"contracts/ExampleWrapAround.sol\":165:169  2**4 */\n  0x10\n    /* \"contracts/ExampleWrapAround.sol\":142:169  uint8 public myUint8 = 2**4 */\n  0x01\n  exp(0x0100, 0x00)\n  dup2\n  sload\n  dup2\n  0xff\n  mul\n  not\n  and\n  swap1\n  dup4\n  0xff\n  and\n  mul\n  or\n  swap1\n  sstore\n  pop\n    /* \"contracts/ExampleWrapAround.sol\":60:475  contract ExampleWrapAround {\r... */\n  callvalue\n  dup1\n  iszero\n  tag_1\n  jumpi\n  0x00\n  dup1\n  revert\ntag_1:\n  pop\n  dataSize(sub_0)\n  dup1\n  dataOffset(sub_0)\n  0x00\n  codecopy\n  0x00\n  return\nstop\n\nsub_0: assembly {\n        /* \"contracts/ExampleWrapAround.sol\":60:475  contract ExampleWrapAround {\r... */\n      mstore(0x40, 0x80)\n      callvalue\n      dup1\n      iszero\n      tag_1\n      jumpi\n      0x00\n      dup1\n      revert\n    tag_1:\n      pop\n      jumpi(tag_2, lt(calldatasize, 0x04))\n      shr(0xe0, calldataload(0x00))\n      dup1\n      0x06540f7e\n      eq\n      tag_3\n      jumpi\n      dup1\n      0x84ea3606\n      eq\n      tag_4\n      jumpi\n      dup1\n      0xda50eaee\n      eq\n      tag_5\n      jumpi\n      dup1\n      0xe2a4b2af\n      eq\n      tag_6\n      jumpi\n      dup1\n      0xe492fd84\n      eq\n      tag_7\n      jumpi\n    tag_2:\n      0x00\n      dup1\n      revert\n        /* \"contracts/ExampleWrapAround.sol\":96:117  uint256 public myUint */\n    tag_3:\n      tag_8\n      tag_9\n      jump\t// in\n    tag_8:\n      mload(0x40)\n      tag_10\n      swap2\n      swap1\n      tag_11\n      jump\t// in\n    tag_10:\n      mload(0x40)\n      dup1\n      swap2\n      sub\n      swap1\n      return\n        /* \"contracts/ExampleWrapAround.sol\":275:353  function incrementUint8() public {\r... */\n    tag_4:\n      tag_12\n      tag_13\n      jump\t// in\n    tag_12:\n      stop\n        /* \"contracts/ExampleWrapAround.sol\":361:470  function decrementUint() public {\r... */\n    tag_5:\n      tag_14\n      tag_15\n      jump\t// in\n    tag_14:\n      stop\n        /* \"contracts/ExampleWrapAround.sol\":142:169  uint8 public myUint8 = 2**4 */\n    tag_6:\n      tag_16\n      tag_17\n      jump\t// in\n    tag_16:\n      mload(0x40)\n      tag_18\n      swap2\n      swap1\n      tag_19\n      jump\t// in\n    tag_18:\n      mload(0x40)\n      dup1\n      swap2\n      sub\n      swap1\n      return\n        /* \"contracts/ExampleWrapAround.sol\":192:267  function setMyUint(uint _myUint) public {\r... */\n    tag_7:\n      tag_20\n      0x04\n      dup1\n      calldatasize\n      sub\n      dup2\n      add\n      swap1\n      tag_21\n      swap2\n      swap1\n      tag_22\n      jump\t// in\n    tag_21:\n      tag_23\n      jump\t// in\n    tag_20:\n      stop\n        /* \"contracts/ExampleWrapAround.sol\":96:117  uint256 public myUint */\n    tag_9:\n      sload(0x00)\n      dup2\n      jump\t// out\n        /* \"contracts/ExampleWrapAround.sol\":275:353  function incrementUint8() public {\r... */\n    tag_13:\n        /* \"contracts/ExampleWrapAround.sol\":319:326  myUint8 */\n      0x01\n      0x00\n        /* \"contracts/ExampleWrapAround.sol\":319:328  myUint8++ */\n      dup2\n      dup2\n      swap1\n      sload\n      swap1\n      0x0100\n      exp\n      swap1\n      div\n      0xff\n      and\n      dup1\n      swap3\n      swap2\n      swap1\n      tag_25\n      swap1\n      tag_26\n      jump\t// in\n    tag_25:\n      swap2\n      swap1\n      0x0100\n      exp\n      dup2\n      sload\n      dup2\n      0xff\n      mul\n      not\n      and\n      swap1\n      dup4\n      0xff\n      and\n      mul\n      or\n      swap1\n      sstore\n      pop\n      pop\n        /* \"contracts/ExampleWrapAround.sol\":275:353  function incrementUint8() public {\r... */\n      jump\t// out\n        /* \"contracts/ExampleWrapAround.sol\":361:470  function decrementUint() public {\r... */\n    tag_15:\n        /* \"contracts/ExampleWrapAround.sol\":404:410  myUint */\n      0x00\n      dup1\n        /* \"contracts/ExampleWrapAround.sol\":404:412  myUint-- */\n      dup2\n      sload\n      dup1\n      swap3\n      swap2\n      swap1\n      tag_28\n      swap1\n      tag_29\n      jump\t// in\n    tag_28:\n      swap2\n      swap1\n      pop\n      sstore\n      pop\n        /* \"contracts/ExampleWrapAround.sol\":361:470  function decrementUint() public {\r... */\n      jump\t// out\n        /* \"contracts/ExampleWrapAround.sol\":142:169  uint8 public myUint8 = 2**4 */\n    tag_17:\n      0x01\n      0x00\n      swap1\n      sload\n      swap1\n      0x0100\n      exp\n      swap1\n      div\n      0xff\n      and\n      dup2\n      jump\t// out\n        /* \"contracts/ExampleWrapAround.sol\":192:267  function setMyUint(uint _myUint) public {\r... */\n    tag_23:\n        /* \"contracts/ExampleWrapAround.sol\":252:259  _myUint */\n      dup1\n        /* \"contracts/ExampleWrapAround.sol\":243:249  myUint */\n      0x00\n        /* \"contracts/ExampleWrapAround.sol\":243:259  myUint = _myUint */\n      dup2\n      swap1\n      sstore\n      pop\n        /* \"contracts/ExampleWrapAround.sol\":192:267  function setMyUint(uint _myUint) public {\r... */\n      pop\n      jump\t// out\n        /* \"#utility.yul\":7:146   */\n    tag_32:\n        /* \"#utility.yul\":53:58   */\n      0x00\n        /* \"#utility.yul\":91:97   */\n      dup2\n        /* \"#utility.yul\":78:98   */\n      calldataload\n        /* \"#utility.yul\":69:98   */\n      swap1\n      pop\n        /* \"#utility.yul\":107:140   */\n      tag_34\n        /* \"#utility.yul\":134:139   */\n      dup2\n        /* \"#utility.yul\":107:140   */\n      tag_35\n      jump\t// in\n    tag_34:\n        /* \"#utility.yul\":59:146   */\n      swap3\n      swap2\n      pop\n      pop\n      jump\t// out\n        /* \"#utility.yul\":152:481   */\n    tag_22:\n        /* \"#utility.yul\":211:217   */\n      0x00\n        /* \"#utility.yul\":260:262   */\n      0x20\n        /* \"#utility.yul\":248:257   */\n      dup3\n        /* \"#utility.yul\":239:246   */\n      dup5\n        /* \"#utility.yul\":235:258   */\n      sub\n        /* \"#utility.yul\":231:263   */\n      slt\n        /* \"#utility.yul\":228:230   */\n      iszero\n      tag_37\n      jumpi\n        /* \"#utility.yul\":266:345   */\n      tag_38\n      tag_39\n      jump\t// in\n    tag_38:\n        /* \"#utility.yul\":228:230   */\n    tag_37:\n        /* \"#utility.yul\":386:387   */\n      0x00\n        /* \"#utility.yul\":411:464   */\n      tag_40\n        /* \"#utility.yul\":456:463   */\n      dup5\n        /* \"#utility.yul\":447:453   */\n      dup3\n        /* \"#utility.yul\":436:445   */\n      dup6\n        /* \"#utility.yul\":432:454   */\n      add\n        /* \"#utility.yul\":411:464   */\n      tag_32\n      jump\t// in\n    tag_40:\n        /* \"#utility.yul\":401:464   */\n      swap2\n      pop\n        /* \"#utility.yul\":357:474   */\n      pop\n        /* \"#utility.yul\":218:481   */\n      swap3\n      swap2\n      pop\n      pop\n      jump\t// out\n        /* \"#utility.yul\":487:605   */\n    tag_41:\n        /* \"#utility.yul\":574:598   */\n      tag_43\n        /* \"#utility.yul\":592:597   */\n      dup2\n        /* \"#utility.yul\":574:598   */\n      tag_44\n      jump\t// in\n    tag_43:\n        /* \"#utility.yul\":569:572   */\n      dup3\n        /* \"#utility.yul\":562:599   */\n      mstore\n        /* \"#utility.yul\":552:605   */\n      pop\n      pop\n      jump\t// out\n        /* \"#utility.yul\":611:723   */\n    tag_45:\n        /* \"#utility.yul\":694:716   */\n      tag_47\n        /* \"#utility.yul\":710:715   */\n      dup2\n        /* \"#utility.yul\":694:716   */\n      tag_48\n      jump\t// in\n    tag_47:\n        /* \"#utility.yul\":689:692   */\n      dup3\n        /* \"#utility.yul\":682:717   */\n      mstore\n        /* \"#utility.yul\":672:723   */\n      pop\n      pop\n      jump\t// out\n        /* \"#utility.yul\":729:951   */\n    tag_11:\n        /* \"#utility.yul\":822:826   */\n      0x00\n        /* \"#utility.yul\":860:862   */\n      0x20\n        /* \"#utility.yul\":849:858   */\n      dup3\n        /* \"#utility.yul\":845:863   */\n      add\n        /* \"#utility.yul\":837:863   */\n      swap1\n      pop\n        /* \"#utility.yul\":873:944   */\n      tag_50\n        /* \"#utility.yul\":941:942   */\n      0x00\n        /* \"#utility.yul\":930:939   */\n      dup4\n        /* \"#utility.yul\":926:943   */\n      add\n        /* \"#utility.yul\":917:923   */\n      dup5\n        /* \"#utility.yul\":873:944   */\n      tag_41\n      jump\t// in\n    tag_50:\n        /* \"#utility.yul\":827:951   */\n      swap3\n      swap2\n      pop\n      pop\n      jump\t// out\n        /* \"#utility.yul\":957:1171   */\n    tag_19:\n        /* \"#utility.yul\":1046:1050   */\n      0x00\n        /* \"#utility.yul\":1084:1086   */\n      0x20\n        /* \"#utility.yul\":1073:1082   */\n      dup3\n        /* \"#utility.yul\":1069:1087   */\n      add\n        /* \"#utility.yul\":1061:1087   */\n      swap1\n      pop\n        /* \"#utility.yul\":1097:1164   */\n      tag_52\n        /* \"#utility.yul\":1161:1162   */\n      0x00\n        /* \"#utility.yul\":1150:1159   */\n      dup4\n        /* \"#utility.yul\":1146:1163   */\n      add\n        /* \"#utility.yul\":1137:1143   */\n      dup5\n        /* \"#utility.yul\":1097:1164   */\n      tag_45\n      jump\t// in\n    tag_52:\n        /* \"#utility.yul\":1051:1171   */\n      swap3\n      swap2\n      pop\n      pop\n      jump\t// out\n        /* \"#utility.yul\":1258:1335   */\n    tag_44:\n        /* \"#utility.yul\":1295:1302   */\n      0x00\n        /* \"#utility.yul\":1324:1329   */\n      dup2\n        /* \"#utility.yul\":1313:1329   */\n      swap1\n      pop\n        /* \"#utility.yul\":1303:1335   */\n      swap2\n      swap1\n      pop\n      jump\t// out\n        /* \"#utility.yul\":1341:1427   */\n    tag_48:\n        /* \"#utility.yul\":1376:1383   */\n      0x00\n        /* \"#utility.yul\":1416:1420   */\n      0xff\n        /* \"#utility.yul\":1409:1414   */\n      dup3\n        /* \"#utility.yul\":1405:1421   */\n      and\n        /* \"#utility.yul\":1394:1421   */\n      swap1\n      pop\n        /* \"#utility.yul\":1384:1427   */\n      swap2\n      swap1\n      pop\n      jump\t// out\n        /* \"#utility.yul\":1433:1604   */\n    tag_29:\n        /* \"#utility.yul\":1472:1475   */\n      0x00\n        /* \"#utility.yul\":1495:1519   */\n      tag_58\n        /* \"#utility.yul\":1513:1518   */\n      dup3\n        /* \"#utility.yul\":1495:1519   */\n      tag_44\n      jump\t// in\n    tag_58:\n        /* \"#utility.yul\":1486:1519   */\n      swap2\n      pop\n        /* \"#utility.yul\":1541:1545   */\n      0x00\n        /* \"#utility.yul\":1534:1539   */\n      dup3\n        /* \"#utility.yul\":1531:1546   */\n      eq\n        /* \"#utility.yul\":1528:1530   */\n      iszero\n      tag_59\n      jumpi\n        /* \"#utility.yul\":1549:1567   */\n      tag_60\n      tag_61\n      jump\t// in\n    tag_60:\n        /* \"#utility.yul\":1528:1530   */\n    tag_59:\n        /* \"#utility.yul\":1596:1597   */\n      0x01\n        /* \"#utility.yul\":1589:1594   */\n      dup3\n        /* \"#utility.yul\":1585:1598   */\n      sub\n        /* \"#utility.yul\":1578:1598   */\n      swap1\n      pop\n        /* \"#utility.yul\":1476:1604   */\n      swap2\n      swap1\n      pop\n      jump\t// out\n        /* \"#utility.yul\":1610:1777   */\n    tag_26:\n        /* \"#utility.yul\":1647:1650   */\n      0x00\n        /* \"#utility.yul\":1670:1692   */\n      tag_63\n        /* \"#utility.yul\":1686:1691   */\n      dup3\n        /* \"#utility.yul\":1670:1692   */\n      tag_48\n      jump\t// in\n    tag_63:\n        /* \"#utility.yul\":1661:1692   */\n      swap2\n      pop\n        /* \"#utility.yul\":1714:1718   */\n      0xff\n        /* \"#utility.yul\":1707:1712   */\n      dup3\n        /* \"#utility.yul\":1704:1719   */\n      eq\n        /* \"#utility.yul\":1701:1703   */\n      iszero\n      tag_64\n      jumpi\n        /* \"#utility.yul\":1722:1740   */\n      tag_65\n      tag_61\n      jump\t// in\n    tag_65:\n        /* \"#utility.yul\":1701:1703   */\n    tag_64:\n        /* \"#utility.yul\":1769:1770   */\n      0x01\n        /* \"#utility.yul\":1762:1767   */\n      dup3\n        /* \"#utility.yul\":1758:1771   */\n      add\n        /* \"#utility.yul\":1751:1771   */\n      swap1\n      pop\n        /* \"#utility.yul\":1651:1777   */\n      swap2\n      swap1\n      pop\n      jump\t// out\n        /* \"#utility.yul\":1783:1963   */\n    tag_61:\n        /* \"#utility.yul\":1831:1908   */\n      0x4e487b7100000000000000000000000000000000000000000000000000000000\n        /* \"#utility.yul\":1828:1829   */\n      0x00\n        /* \"#utility.yul\":1821:1909   */\n      mstore\n        /* \"#utility.yul\":1928:1932   */\n      0x11\n        /* \"#utility.yul\":1925:1926   */\n      0x04\n        /* \"#utility.yul\":1918:1933   */\n      mstore\n        /* \"#utility.yul\":1952:1956   */\n      0x24\n        /* \"#utility.yul\":1949:1950   */\n      0x00\n        /* \"#utility.yul\":1942:1957   */\n      revert\n        /* \"#utility.yul\":2092:2209   */\n    tag_39:\n        /* \"#utility.yul\":2201:2202   */\n      0x00\n        /* \"#utility.yul\":2198:2199   */\n      dup1\n        /* \"#utility.yul\":2191:2203   */\n      revert\n        /* \"#utility.yul\":2215:2337   */\n    tag_35:\n        /* \"#utility.yul\":2288:2312   */\n      tag_71\n        /* \"#utility.yul\":2306:2311   */\n      dup2\n        /* \"#utility.yul\":2288:2312   */\n      tag_44\n      jump\t// in\n    tag_71:\n        /* \"#utility.yul\":2281:2286   */\n      dup2\n        /* \"#utility.yul\":2278:2313   */\n      eq\n        /* \"#utility.yul\":2268:2270   */\n      tag_72\n      jumpi\n        /* \"#utility.yul\":2327:2328   */\n      0x00\n        /* \"#utility.yul\":2324:2325   */\n      dup1\n        /* \"#utility.yul\":2317:2329   */\n      revert\n        /* \"#utility.yul\":2268:2270   */\n    tag_72:\n        /* \"#utility.yul\":2258:2337   */\n      pop\n      jump\t// out\n\n    auxdata: 0xa2646970667358221220f7ea1cc80068200f01b0cd18a2abe297f60f9ca97b0acae1ecc22767f6ad68dd64736f6c63430008050033\n}\n",
				"bytecode": {
					"linkReferences": {},
					"object": "60806040526010600160006101000a81548160ff021916908360ff16021790555034801561002c57600080fd5b506102c08061003c6000396000f3fe608060405234801561001057600080fd5b50600436106100575760003560e01c806306540f7e1461005c57806384ea36061461007a578063da50eaee14610084578063e2a4b2af1461008e578063e492fd84146100ac575b600080fd5b6100646100c8565b604051610071919061019e565b60405180910390f35b6100826100ce565b005b61008c610108565b005b610096610121565b6040516100a391906101b9565b60405180910390f35b6100c660048036038101906100c19190610153565b610134565b005b60005481565b6001600081819054906101000a900460ff16809291906100ed90610215565b91906101000a81548160ff021916908360ff16021790555050565b60008081548092919061011a906101eb565b9190505550565b600160009054906101000a900460ff1681565b8060008190555050565b60008135905061014d81610273565b92915050565b6000602082840312156101695761016861026e565b5b60006101778482850161013e565b91505092915050565b610189816101d4565b82525050565b610198816101de565b82525050565b60006020820190506101b36000830184610180565b92915050565b60006020820190506101ce600083018461018f565b92915050565b6000819050919050565b600060ff82169050919050565b60006101f6826101d4565b9150600082141561020a5761020961023f565b5b600182039050919050565b6000610220826101de565b915060ff8214156102345761023361023f565b5b600182019050919050565b7f4e487b7100000000000000000000000000000000000000000000000000000000600052601160045260246000fd5b600080fd5b61027c816101d4565b811461028757600080fd5b5056fea2646970667358221220f7ea1cc80068200f01b0cd18a2abe297f60f9ca97b0acae1ecc22767f6ad68dd64736f6c63430008050033",
					"opcodes": "PUSH1 0x80 PUSH1 0x40 MSTORE PUSH1 0x10 PUSH1 0x1 PUSH1 0x0 PUSH2 0x100 EXP DUP2 SLOAD DUP2 PUSH1 0xFF MUL NOT AND SWAP1 DUP4 PUSH1 0xFF AND MUL OR SWAP1 SSTORE POP CALLVALUE DUP1 ISZERO PUSH2 0x2C JUMPI PUSH1 0x0 DUP1 REVERT JUMPDEST POP PUSH2 0x2C0 DUP1 PUSH2 0x3C PUSH1 0x0 CODECOPY PUSH1 0x0 RETURN INVALID PUSH1 0x80 PUSH1 0x40 MSTORE CALLVALUE DUP1 ISZERO PUSH2 0x10 JUMPI PUSH1 0x0 DUP1 REVERT JUMPDEST POP PUSH1 0x4 CALLDATASIZE LT PUSH2 0x57 JUMPI PUSH1 0x0 CALLDATALOAD PUSH1 0xE0 SHR DUP1 PUSH4 0x6540F7E EQ PUSH2 0x5C JUMPI DUP1 PUSH4 0x84EA3606 EQ PUSH2 0x7A JUMPI DUP1 PUSH4 0xDA50EAEE EQ PUSH2 0x84 JUMPI DUP1 PUSH4 0xE2A4B2AF EQ PUSH2 0x8E JUMPI DUP1 PUSH4 0xE492FD84 EQ PUSH2 0xAC JUMPI JUMPDEST PUSH1 0x0 DUP1 REVERT JUMPDEST PUSH2 0x64 PUSH2 0xC8 JUMP JUMPDEST PUSH1 0x40 MLOAD PUSH2 0x71 SWAP2 SWAP1 PUSH2 0x19E JUMP JUMPDEST PUSH1 0x40 MLOAD DUP1 SWAP2 SUB SWAP1 RETURN JUMPDEST PUSH2 0x82 PUSH2 0xCE JUMP JUMPDEST STOP JUMPDEST PUSH2 0x8C PUSH2 0x108 JUMP JUMPDEST STOP JUMPDEST PUSH2 0x96 PUSH2 0x121 JUMP JUMPDEST PUSH1 0x40 MLOAD PUSH2 0xA3 SWAP2 SWAP1 PUSH2 0x1B9 JUMP JUMPDEST PUSH1 0x40 MLOAD DUP1 SWAP2 SUB SWAP1 RETURN JUMPDEST PUSH2 0xC6 PUSH1 0x4 DUP1 CALLDATASIZE SUB DUP2 ADD SWAP1 PUSH2 0xC1 SWAP2 SWAP1 PUSH2 0x153 JUMP JUMPDEST PUSH2 0x134 JUMP JUMPDEST STOP JUMPDEST PUSH1 0x0 SLOAD DUP2 JUMP JUMPDEST PUSH1 0x1 PUSH1 0x0 DUP2 DUP2 SWAP1 SLOAD SWAP1 PUSH2 0x100 EXP SWAP1 DIV PUSH1 0xFF AND DUP1 SWAP3 SWAP2 SWAP1 PUSH2 0xED SWAP1 PUSH2 0x215 JUMP JUMPDEST SWAP2 SWAP1 PUSH2 0x100 EXP DUP2 SLOAD DUP2 PUSH1 0xFF MUL NOT AND SWAP1 DUP4 PUSH1 0xFF AND MUL OR SWAP1 SSTORE POP POP JUMP JUMPDEST PUSH1 0x0 DUP1 DUP2 SLOAD DUP1 SWAP3 SWAP2 SWAP1 PUSH2 0x11A SWAP1 PUSH2 0x1EB JUMP JUMPDEST SWAP2 SWAP1 POP SSTORE POP JUMP JUMPDEST PUSH1 0x1 PUSH1 0x0 SWAP1 SLOAD SWAP1 PUSH2 0x100 EXP SWAP1 DIV PUSH1 0xFF AND DUP2 JUMP JUMPDEST DUP1 PUSH1 0x0 DUP2 SWAP1 SSTORE POP POP JUMP JUMPDEST PUSH1 0x0 DUP2 CALLDATALOAD SWAP1 POP PUSH2 0x14D DUP2 PUSH2 0x273 JUMP JUMPDEST SWAP3 SWAP2 POP POP JUMP JUMPDEST PUSH1 0x0 PUSH1 0x20 DUP3 DUP5 SUB SLT ISZERO PUSH2 0x169 JUMPI PUSH2 0x168 PUSH2 0x26E JUMP JUMPDEST JUMPDEST PUSH1 0x0 PUSH2 0x177 DUP5 DUP3 DUP6 ADD PUSH2 0x13E JUMP JUMPDEST SWAP2 POP POP SWAP3 SWAP2 POP POP JUMP JUMPDEST PUSH2 0x189 DUP2 PUSH2 0x1D4 JUMP JUMPDEST DUP3 MSTORE POP POP JUMP JUMPDEST PUSH2 0x198 DUP2 PUSH2 0x1DE JUMP JUMPDEST DUP3 MSTORE POP POP JUMP JUMPDEST PUSH1 0x0 PUSH1 0x20 DUP3 ADD SWAP1 POP PUSH2 0x1B3 PUSH1 0x0 DUP4 ADD DUP5 PUSH2 0x180 JUMP JUMPDEST SWAP3 SWAP2 POP POP JUMP JUMPDEST PUSH1 0x0 PUSH1 0x20 DUP3 ADD SWAP1 POP PUSH2 0x1CE PUSH1 0x0 DUP4 ADD DUP5 PUSH2 0x18F JUMP JUMPDEST SWAP3 SWAP2 POP POP JUMP JUMPDEST PUSH1 0x0 DUP2 SWAP1 POP SWAP2 SWAP1 POP JUMP JUMPDEST PUSH1 0x0 PUSH1 0xFF DUP3 AND SWAP1 POP SWAP2 SWAP1 POP JUMP JUMPDEST PUSH1 0x0 PUSH2 0x1F6 DUP3 PUSH2 0x1D4 JUMP JUMPDEST SWAP2 POP PUSH1 0x0 DUP3 EQ ISZERO PUSH2 0x20A JUMPI PUSH2 0x209 PUSH2 0x23F JUMP JUMPDEST JUMPDEST PUSH1 0x1 DUP3 SUB SWAP1 POP SWAP2 SWAP1 POP JUMP JUMPDEST PUSH1 0x0 PUSH2 0x220 DUP3 PUSH2 0x1DE JUMP JUMPDEST SWAP2 POP PUSH1 0xFF DUP3 EQ ISZERO PUSH2 0x234 JUMPI PUSH2 0x233 PUSH2 0x23F JUMP JUMPDEST JUMPDEST PUSH1 0x1 DUP3 ADD SWAP1 POP SWAP2 SWAP1 POP JUMP JUMPDEST PUSH32 0x4E487B7100000000000000000000000000000000000000000000000000000000 PUSH1 0x0 MSTORE PUSH1 0x11 PUSH1 0x4 MSTORE PUSH1 0x24 PUSH1 0x0 REVERT JUMPDEST PUSH1 0x0 DUP1 REVERT JUMPDEST PUSH2 0x27C DUP2 PUSH2 0x1D4 JUMP JUMPDEST DUP2 EQ PUSH2 0x287 JUMPI PUSH1 0x0 DUP1 REVERT JUMPDEST POP JUMP INVALID LOG2 PUSH5 0x6970667358 0x22 SLT KECCAK256 0xF7 0xEA SHR 0xC8 STOP PUSH9 0x200F01B0CD18A2ABE2 SWAP8 0xF6 0xF SWAP13 0xA9 PUSH28 0xACAE1ECC22767F6AD68DD64736F6C63430008050033000000000000 "
				},
				"gasEstimates": {
					"creation": {
						"codeDepositCost": "140800",
						"executionCost": "24450",
						"totalCost": "165250"
					},
					"external": {
						"decrementUint()": "24526",
						"incrementUint8()": "26702",
						"myUint()": "2407",
						"myUint8()": "2515",
						"setMyUint(uint256)": "22586"
					}
				},
				"methodIdentifiers": {
					"decrementUint()": "da50eaee",
					"incrementUint8()": "84ea3606",
					"myUint()": "06540f7e",
					"myUint8()": "e2a4b2af",
					"setMyUint(uint256)": "e492fd84"
				}
			},
			"storageLayout": {
				"storage": [
					{
						"astId": 3,
						"contract": "contracts/ExampleWrapAround.sol:ExampleWrapAround",
						"label": "myUint",
						"offset": 0,
						"slot": "0",
						"type": "t_uint256"
					},
					{
						"astId": 8,
						"contract": "contracts/ExampleWrapAround.sol:ExampleWrapAround",
						"label": "myUint8",
						"offset": 0,
						"slot": "1",
						"type": "t_uint8"
					}
				],
				"types": {
					"t_uint256": {
						"encoding": "inplace",
						"label": "uint256",
						"numberOfBytes": "32"
					},
					"t_uint8": {
						"encoding": "inplace",
						"label": "uint8",
						"numberOfBytes": "1"
					}
				}
			},
			"userdoc": {
				"kind": "user",
				"methods": {},
				"version": 1
			}
		}
	}
}