{
	"contracts/SmartContractWallet.sol": {
		"SmartContractWallet": {
			"abi": [
				{
					"inputs": [],
					"stateMutability": "nonpayable",
					"type": "constructor"
				},
				{
					"inputs": [
						{
							"internalType": "address",
							"name": "",
							"type": "address"
						}
					],
					"name": "allowance",
					"outputs": [
						{
							"internalType": "uint256",
							"name": "",
							"type": "uint256"
						}
					],
					"stateMutability": "view",
					"type": "function"
				},
				{
					"inputs": [],
					"name": "confirmationsFromGuardiansForReset",
					"outputs": [
						{
							"internalType": "uint256",
							"name": "",
							"type": "uint256"
						}
					],
					"stateMutability": "view",
					"type": "function"
				},
				{
					"inputs": [
						{
							"internalType": "address",
							"name": "",
							"type": "address"
						}
					],
					"name": "guardians",
					"outputs": [
						{
							"internalType": "bool",
							"name": "",
							"type": "bool"
						}
					],
					"stateMutability": "view",
					"type": "function"
				},
				{
					"inputs": [
						{
							"internalType": "address",
							"name": "",
							"type": "address"
						}
					],
					"name": "isAllowedToSend",
					"outputs": [
						{
							"internalType": "bool",
							"name": "",
							"type": "bool"
						}
					],
					"stateMutability": "view",
					"type": "function"
				},
				{
					"inputs": [],
					"name": "owner",
					"outputs": [
						{
							"internalType": "address payable",
							"name": "",
							"type": "address"
						}
					],
					"stateMutability": "view",
					"type": "function"
				},
				{
					"inputs": [
						{
							"internalType": "address payable",
							"name": "_newOwner",
							"type": "address"
						}
					],
					"name": "proposeNewOwner",
					"outputs": [],
					"stateMutability": "nonpayable",
					"type": "function"
				},
				{
					"inputs": [
						{
							"internalType": "address",
							"name": "_for",
							"type": "address"
						},
						{
							"internalType": "uint256",
							"name": "_amount",
							"type": "uint256"
						}
					],
					"name": "setAllowance",
					"outputs": [],
					"stateMutability": "nonpayable",
					"type": "function"
				},
				{
					"inputs": [
						{
							"internalType": "address",
							"name": "_guardian",
							"type": "address"
						},
						{
							"internalType": "bool",
							"name": "_isGuardian",
							"type": "bool"
						}
					],
					"name": "setGaurdian",
					"outputs": [],
					"stateMutability": "nonpayable",
					"type": "function"
				},
				{
					"inputs": [
						{
							"internalType": "address payable",
							"name": "_to",
							"type": "address"
						},
						{
							"internalType": "uint256",
							"name": "_amount",
							"type": "uint256"
						},
						{
							"internalType": "bytes",
							"name": "_payload",
							"type": "bytes"
						}
					],
					"name": "transfer",
					"outputs": [
						{
							"internalType": "bytes",
							"name": "",
							"type": "bytes"
						}
					],
					"stateMutability": "nonpayable",
					"type": "function"
				},
				{
					"stateMutability": "payable",
					"type": "receive"
				}
			],
			"devdoc": {
				"kind": "dev",
				"methods": {},
				"version": 1
			},
			"evm": {
				"assembly": "    /* \"contracts/SmartContractWallet.sol\":62:2445  contract SmartContractWallet {... */\n  mstore(0x40, 0x80)\n    /* \"contracts/SmartContractWallet.sol\":498:558  constructor() {... */\n  callvalue\n  dup1\n  iszero\n  tag_1\n  jumpi\n  0x00\n  dup1\n  revert\ntag_1:\n  pop\n    /* \"contracts/SmartContractWallet.sol\":539:549  msg.sender */\n  caller\n    /* \"contracts/SmartContractWallet.sol\":523:528  owner */\n  0x00\n  dup1\n    /* \"contracts/SmartContractWallet.sol\":523:550  owner = payable(msg.sender) */\n  0x0100\n  exp\n  dup2\n  sload\n  dup2\n  0xffffffffffffffffffffffffffffffffffffffff\n  mul\n  not\n  and\n  swap1\n  dup4\n  0xffffffffffffffffffffffffffffffffffffffff\n  and\n  mul\n  or\n  swap1\n  sstore\n  pop\n    /* \"contracts/SmartContractWallet.sol\":62:2445  contract SmartContractWallet {... */\n  dataSize(sub_0)\n  dup1\n  dataOffset(sub_0)\n  0x00\n  codecopy\n  0x00\n  return\nstop\n\nsub_0: assembly {\n        /* \"contracts/SmartContractWallet.sol\":62:2445  contract SmartContractWallet {... */\n      mstore(0x40, 0x80)\n      jumpi(tag_1, lt(calldatasize, 0x04))\n      shr(0xe0, calldataload(0x00))\n      dup1\n      0x83012be1\n      gt\n      tag_12\n      jumpi\n      dup1\n      0x83012be1\n      eq\n      tag_7\n      jumpi\n      dup1\n      0x8da5cb5b\n      eq\n      tag_8\n      jumpi\n      dup1\n      0xa364c09f\n      eq\n      tag_9\n      jumpi\n      dup1\n      0xb1f8100d\n      eq\n      tag_10\n      jumpi\n      dup1\n      0xbe45fd62\n      eq\n      tag_11\n      jumpi\n      jump(tag_2)\n    tag_12:\n      dup1\n      0x0633b14a\n      eq\n      tag_3\n      jumpi\n      dup1\n      0x0bc605ad\n      eq\n      tag_4\n      jumpi\n      dup1\n      0x310ec4a7\n      eq\n      tag_5\n      jumpi\n      dup1\n      0x3e5beab9\n      eq\n      tag_6\n      jumpi\n      jump(tag_2)\n    tag_1:\n      jumpi(tag_2, calldatasize)\n      stop\n    tag_2:\n      0x00\n      dup1\n      revert\n        /* \"contracts/SmartContractWallet.sol\":241:282  mapping(address => bool) public guardians */\n    tag_3:\n      callvalue\n      dup1\n      iszero\n      tag_15\n      jumpi\n      0x00\n      dup1\n      revert\n    tag_15:\n      pop\n      tag_16\n      0x04\n      dup1\n      calldatasize\n      sub\n      dup2\n      add\n      swap1\n      tag_17\n      swap2\n      swap1\n      tag_18\n      jump\t// in\n    tag_17:\n      tag_19\n      jump\t// in\n    tag_16:\n      mload(0x40)\n      tag_20\n      swap2\n      swap1\n      tag_21\n      jump\t// in\n    tag_20:\n      mload(0x40)\n      dup1\n      swap2\n      sub\n      swap1\n      return\n        /* \"contracts/SmartContractWallet.sol\":185:232  mapping(address => bool) public isAllowedToSend */\n    tag_4:\n      callvalue\n      dup1\n      iszero\n      tag_22\n      jumpi\n      0x00\n      dup1\n      revert\n    tag_22:\n      pop\n      tag_23\n      0x04\n      dup1\n      calldatasize\n      sub\n      dup2\n      add\n      swap1\n      tag_24\n      swap2\n      swap1\n      tag_18\n      jump\t// in\n    tag_24:\n      tag_25\n      jump\t// in\n    tag_23:\n      mload(0x40)\n      tag_26\n      swap2\n      swap1\n      tag_21\n      jump\t// in\n    tag_26:\n      mload(0x40)\n      dup1\n      swap2\n      sub\n      swap1\n      return\n        /* \"contracts/SmartContractWallet.sol\":1362:1683  function setAllowance(address _for, uint _amount) public {... */\n    tag_5:\n      callvalue\n      dup1\n      iszero\n      tag_27\n      jumpi\n      0x00\n      dup1\n      revert\n    tag_27:\n      pop\n      tag_28\n      0x04\n      dup1\n      calldatasize\n      sub\n      dup2\n      add\n      swap1\n      tag_29\n      swap2\n      swap1\n      tag_30\n      jump\t// in\n    tag_29:\n      tag_31\n      jump\t// in\n    tag_28:\n      stop\n        /* \"contracts/SmartContractWallet.sol\":137:178  mapping(address => uint) public allowance */\n    tag_6:\n      callvalue\n      dup1\n      iszero\n      tag_32\n      jumpi\n      0x00\n      dup1\n      revert\n    tag_32:\n      pop\n      tag_33\n      0x04\n      dup1\n      calldatasize\n      sub\n      dup2\n      add\n      swap1\n      tag_34\n      swap2\n      swap1\n      tag_18\n      jump\t// in\n    tag_34:\n      tag_35\n      jump\t// in\n    tag_33:\n      mload(0x40)\n      tag_36\n      swap2\n      swap1\n      tag_37\n      jump\t// in\n    tag_36:\n      mload(0x40)\n      dup1\n      swap2\n      sub\n      swap1\n      return\n        /* \"contracts/SmartContractWallet.sol\":430:489  uint public constant confirmationsFromGuardiansForReset = 3 */\n    tag_7:\n      callvalue\n      dup1\n      iszero\n      tag_38\n      jumpi\n      0x00\n      dup1\n      revert\n    tag_38:\n      pop\n      tag_39\n      tag_40\n      jump\t// in\n    tag_39:\n      mload(0x40)\n      tag_41\n      swap2\n      swap1\n      tag_37\n      jump\t// in\n    tag_41:\n      mload(0x40)\n      dup1\n      swap2\n      sub\n      swap1\n      return\n        /* \"contracts/SmartContractWallet.sol\":100:128  address payable public owner */\n    tag_8:\n      callvalue\n      dup1\n      iszero\n      tag_42\n      jumpi\n      0x00\n      dup1\n      revert\n    tag_42:\n      pop\n      tag_43\n      tag_44\n      jump\t// in\n    tag_43:\n      mload(0x40)\n      tag_45\n      swap2\n      swap1\n      tag_46\n      jump\t// in\n    tag_45:\n      mload(0x40)\n      dup1\n      swap2\n      sub\n      swap1\n      return\n        /* \"contracts/SmartContractWallet.sol\":566:758  function setGaurdian(address _guardian, bool _isGuardian) public {... */\n    tag_9:\n      callvalue\n      dup1\n      iszero\n      tag_47\n      jumpi\n      0x00\n      dup1\n      revert\n    tag_47:\n      pop\n      tag_48\n      0x04\n      dup1\n      calldatasize\n      sub\n      dup2\n      add\n      swap1\n      tag_49\n      swap2\n      swap1\n      tag_50\n      jump\t// in\n    tag_49:\n      tag_51\n      jump\t// in\n    tag_48:\n      stop\n        /* \"contracts/SmartContractWallet.sol\":766:1354  function proposeNewOwner(address payable _newOwner) public {... */\n    tag_10:\n      callvalue\n      dup1\n      iszero\n      tag_52\n      jumpi\n      0x00\n      dup1\n      revert\n    tag_52:\n      pop\n      tag_53\n      0x04\n      dup1\n      calldatasize\n      sub\n      dup2\n      add\n      swap1\n      tag_54\n      swap2\n      swap1\n      tag_55\n      jump\t// in\n    tag_54:\n      tag_56\n      jump\t// in\n    tag_53:\n      stop\n        /* \"contracts/SmartContractWallet.sol\":1691:2403  function transfer(address payable _to, uint _amount, bytes memory _payload) public returns(bytes memory) {... */\n    tag_11:\n      callvalue\n      dup1\n      iszero\n      tag_57\n      jumpi\n      0x00\n      dup1\n      revert\n    tag_57:\n      pop\n      tag_58\n      0x04\n      dup1\n      calldatasize\n      sub\n      dup2\n      add\n      swap1\n      tag_59\n      swap2\n      swap1\n      tag_60\n      jump\t// in\n    tag_59:\n      tag_61\n      jump\t// in\n    tag_58:\n      mload(0x40)\n      tag_62\n      swap2\n      swap1\n      tag_63\n      jump\t// in\n    tag_62:\n      mload(0x40)\n      dup1\n      swap2\n      sub\n      swap1\n      return\n        /* \"contracts/SmartContractWallet.sol\":241:282  mapping(address => bool) public guardians */\n    tag_19:\n      mstore(0x20, 0x03)\n      dup1\n      0x00\n      mstore\n      keccak256(0x00, 0x40)\n      0x00\n      swap2\n      pop\n      sload\n      swap1\n      0x0100\n      exp\n      swap1\n      div\n      0xff\n      and\n      dup2\n      jump\t// out\n        /* \"contracts/SmartContractWallet.sol\":185:232  mapping(address => bool) public isAllowedToSend */\n    tag_25:\n      mstore(0x20, 0x02)\n      dup1\n      0x00\n      mstore\n      keccak256(0x00, 0x40)\n      0x00\n      swap2\n      pop\n      sload\n      swap1\n      0x0100\n      exp\n      swap1\n      div\n      0xff\n      and\n      dup2\n      jump\t// out\n        /* \"contracts/SmartContractWallet.sol\":1362:1683  function setAllowance(address _for, uint _amount) public {... */\n    tag_31:\n        /* \"contracts/SmartContractWallet.sol\":1452:1457  owner */\n      0x00\n      dup1\n      sload\n      swap1\n      0x0100\n      exp\n      swap1\n      div\n      0xffffffffffffffffffffffffffffffffffffffff\n      and\n        /* \"contracts/SmartContractWallet.sol\":1438:1457  msg.sender == owner */\n      0xffffffffffffffffffffffffffffffffffffffff\n      and\n        /* \"contracts/SmartContractWallet.sol\":1438:1448  msg.sender */\n      caller\n        /* \"contracts/SmartContractWallet.sol\":1438:1457  msg.sender == owner */\n      0xffffffffffffffffffffffffffffffffffffffff\n      and\n      eq\n        /* \"contracts/SmartContractWallet.sol\":1430:1493  require(msg.sender == owner, \"You are not the owner, aborting\") */\n      tag_65\n      jumpi\n      mload(0x40)\n      0x08c379a000000000000000000000000000000000000000000000000000000000\n      dup2\n      mstore\n      0x04\n      add\n      tag_66\n      swap1\n      tag_67\n      jump\t// in\n    tag_66:\n      mload(0x40)\n      dup1\n      swap2\n      sub\n      swap1\n      revert\n    tag_65:\n        /* \"contracts/SmartContractWallet.sol\":1522:1529  _amount */\n      dup1\n        /* \"contracts/SmartContractWallet.sol\":1504:1513  allowance */\n      0x01\n        /* \"contracts/SmartContractWallet.sol\":1504:1519  allowance[_for] */\n      0x00\n        /* \"contracts/SmartContractWallet.sol\":1514:1518  _for */\n      dup5\n        /* \"contracts/SmartContractWallet.sol\":1504:1519  allowance[_for] */\n      0xffffffffffffffffffffffffffffffffffffffff\n      and\n      0xffffffffffffffffffffffffffffffffffffffff\n      and\n      dup2\n      mstore\n      0x20\n      add\n      swap1\n      dup2\n      mstore\n      0x20\n      add\n      0x00\n      keccak256\n        /* \"contracts/SmartContractWallet.sol\":1504:1529  allowance[_for] = _amount */\n      dup2\n      swap1\n      sstore\n      pop\n        /* \"contracts/SmartContractWallet.sol\":1555:1556  0 */\n      0x00\n        /* \"contracts/SmartContractWallet.sol\":1545:1552  _amount */\n      dup2\n        /* \"contracts/SmartContractWallet.sol\":1545:1556  _amount > 0 */\n      gt\n        /* \"contracts/SmartContractWallet.sol\":1542:1676  if(_amount > 0) {... */\n      iszero\n      tag_68\n      jumpi\n        /* \"contracts/SmartContractWallet.sol\":1598:1602  true */\n      0x01\n        /* \"contracts/SmartContractWallet.sol\":1573:1588  isAllowedToSend */\n      0x02\n        /* \"contracts/SmartContractWallet.sol\":1573:1595  isAllowedToSend [_for] */\n      0x00\n        /* \"contracts/SmartContractWallet.sol\":1590:1594  _for */\n      dup5\n        /* \"contracts/SmartContractWallet.sol\":1573:1595  isAllowedToSend [_for] */\n      0xffffffffffffffffffffffffffffffffffffffff\n      and\n      0xffffffffffffffffffffffffffffffffffffffff\n      and\n      dup2\n      mstore\n      0x20\n      add\n      swap1\n      dup2\n      mstore\n      0x20\n      add\n      0x00\n      keccak256\n      0x00\n        /* \"contracts/SmartContractWallet.sol\":1573:1602  isAllowedToSend [_for] = true */\n      0x0100\n      exp\n      dup2\n      sload\n      dup2\n      0xff\n      mul\n      not\n      and\n      swap1\n      dup4\n      iszero\n      iszero\n      mul\n      or\n      swap1\n      sstore\n      pop\n        /* \"contracts/SmartContractWallet.sol\":1542:1676  if(_amount > 0) {... */\n      jump(tag_69)\n    tag_68:\n        /* \"contracts/SmartContractWallet.sol\":1659:1664  false */\n      0x00\n        /* \"contracts/SmartContractWallet.sol\":1635:1650  isAllowedToSend */\n      0x02\n        /* \"contracts/SmartContractWallet.sol\":1635:1656  isAllowedToSend[_for] */\n      0x00\n        /* \"contracts/SmartContractWallet.sol\":1651:1655  _for */\n      dup5\n        /* \"contracts/SmartContractWallet.sol\":1635:1656  isAllowedToSend[_for] */\n      0xffffffffffffffffffffffffffffffffffffffff\n      and\n      0xffffffffffffffffffffffffffffffffffffffff\n      and\n      dup2\n      mstore\n      0x20\n      add\n      swap1\n      dup2\n      mstore\n      0x20\n      add\n      0x00\n      keccak256\n      0x00\n        /* \"contracts/SmartContractWallet.sol\":1635:1664  isAllowedToSend[_for] = false */\n      0x0100\n      exp\n      dup2\n      sload\n      dup2\n      0xff\n      mul\n      not\n      and\n      swap1\n      dup4\n      iszero\n      iszero\n      mul\n      or\n      swap1\n      sstore\n      pop\n        /* \"contracts/SmartContractWallet.sol\":1542:1676  if(_amount > 0) {... */\n    tag_69:\n        /* \"contracts/SmartContractWallet.sol\":1362:1683  function setAllowance(address _for, uint _amount) public {... */\n      pop\n      pop\n      jump\t// out\n        /* \"contracts/SmartContractWallet.sol\":137:178  mapping(address => uint) public allowance */\n    tag_35:\n      mstore(0x20, 0x01)\n      dup1\n      0x00\n      mstore\n      keccak256(0x00, 0x40)\n      0x00\n      swap2\n      pop\n      swap1\n      pop\n      sload\n      dup2\n      jump\t// out\n        /* \"contracts/SmartContractWallet.sol\":430:489  uint public constant confirmationsFromGuardiansForReset = 3 */\n    tag_40:\n        /* \"contracts/SmartContractWallet.sol\":488:489  3 */\n      0x03\n        /* \"contracts/SmartContractWallet.sol\":430:489  uint public constant confirmationsFromGuardiansForReset = 3 */\n      dup2\n      jump\t// out\n        /* \"contracts/SmartContractWallet.sol\":100:128  address payable public owner */\n    tag_44:\n      0x00\n      dup1\n      sload\n      swap1\n      0x0100\n      exp\n      swap1\n      div\n      0xffffffffffffffffffffffffffffffffffffffff\n      and\n      dup2\n      jump\t// out\n        /* \"contracts/SmartContractWallet.sol\":566:758  function setGaurdian(address _guardian, bool _isGuardian) public {... */\n    tag_51:\n        /* \"contracts/SmartContractWallet.sol\":664:669  owner */\n      0x00\n      dup1\n      sload\n      swap1\n      0x0100\n      exp\n      swap1\n      div\n      0xffffffffffffffffffffffffffffffffffffffff\n      and\n        /* \"contracts/SmartContractWallet.sol\":650:669  msg.sender == owner */\n      0xffffffffffffffffffffffffffffffffffffffff\n      and\n        /* \"contracts/SmartContractWallet.sol\":650:660  msg.sender */\n      caller\n        /* \"contracts/SmartContractWallet.sol\":650:669  msg.sender == owner */\n      0xffffffffffffffffffffffffffffffffffffffff\n      and\n      eq\n        /* \"contracts/SmartContractWallet.sol\":642:705  require(msg.sender == owner, \"You are not the owner, aborting\") */\n      tag_71\n      jumpi\n      mload(0x40)\n      0x08c379a000000000000000000000000000000000000000000000000000000000\n      dup2\n      mstore\n      0x04\n      add\n      tag_72\n      swap1\n      tag_67\n      jump\t// in\n    tag_72:\n      mload(0x40)\n      dup1\n      swap2\n      sub\n      swap1\n      revert\n    tag_71:\n        /* \"contracts/SmartContractWallet.sol\":739:750  _isGuardian */\n      dup1\n        /* \"contracts/SmartContractWallet.sol\":716:725  guardians */\n      0x03\n        /* \"contracts/SmartContractWallet.sol\":716:736  guardians[_guardian] */\n      0x00\n        /* \"contracts/SmartContractWallet.sol\":726:735  _guardian */\n      dup5\n        /* \"contracts/SmartContractWallet.sol\":716:736  guardians[_guardian] */\n      0xffffffffffffffffffffffffffffffffffffffff\n      and\n      0xffffffffffffffffffffffffffffffffffffffff\n      and\n      dup2\n      mstore\n      0x20\n      add\n      swap1\n      dup2\n      mstore\n      0x20\n      add\n      0x00\n      keccak256\n      0x00\n        /* \"contracts/SmartContractWallet.sol\":716:750  guardians[_guardian] = _isGuardian */\n      0x0100\n      exp\n      dup2\n      sload\n      dup2\n      0xff\n      mul\n      not\n      and\n      swap1\n      dup4\n      iszero\n      iszero\n      mul\n      or\n      swap1\n      sstore\n      pop\n        /* \"contracts/SmartContractWallet.sol\":566:758  function setGaurdian(address _guardian, bool _isGuardian) public {... */\n      pop\n      pop\n      jump\t// out\n        /* \"contracts/SmartContractWallet.sol\":766:1354  function proposeNewOwner(address payable _newOwner) public {... */\n    tag_56:\n        /* \"contracts/SmartContractWallet.sol\":844:853  guardians */\n      0x03\n        /* \"contracts/SmartContractWallet.sol\":844:865  guardians[msg.sender] */\n      0x00\n        /* \"contracts/SmartContractWallet.sol\":854:864  msg.sender */\n      caller\n        /* \"contracts/SmartContractWallet.sol\":844:865  guardians[msg.sender] */\n      0xffffffffffffffffffffffffffffffffffffffff\n      and\n      0xffffffffffffffffffffffffffffffffffffffff\n      and\n      dup2\n      mstore\n      0x20\n      add\n      swap1\n      dup2\n      mstore\n      0x20\n      add\n      0x00\n      keccak256\n      0x00\n      swap1\n      sload\n      swap1\n      0x0100\n      exp\n      swap1\n      div\n      0xff\n      and\n        /* \"contracts/SmartContractWallet.sol\":836:917  require(guardians[msg.sender], \"You are not a guardian of this wallet, aborting\") */\n      tag_74\n      jumpi\n      mload(0x40)\n      0x08c379a000000000000000000000000000000000000000000000000000000000\n      dup2\n      mstore\n      0x04\n      add\n      tag_75\n      swap1\n      tag_76\n      jump\t// in\n    tag_75:\n      mload(0x40)\n      dup1\n      swap2\n      sub\n      swap1\n      revert\n    tag_74:\n        /* \"contracts/SmartContractWallet.sol\":988:993  false */\n      0x00\n        /* \"contracts/SmartContractWallet.sol\":936:993  nextOwnerGuardianVotedBool[_newOwner][msg.sender] ==false */\n      iszero\n      iszero\n        /* \"contracts/SmartContractWallet.sol\":936:962  nextOwnerGuardianVotedBool */\n      0x05\n        /* \"contracts/SmartContractWallet.sol\":936:973  nextOwnerGuardianVotedBool[_newOwner] */\n      0x00\n        /* \"contracts/SmartContractWallet.sol\":963:972  _newOwner */\n      dup4\n        /* \"contracts/SmartContractWallet.sol\":936:973  nextOwnerGuardianVotedBool[_newOwner] */\n      0xffffffffffffffffffffffffffffffffffffffff\n      and\n      0xffffffffffffffffffffffffffffffffffffffff\n      and\n      dup2\n      mstore\n      0x20\n      add\n      swap1\n      dup2\n      mstore\n      0x20\n      add\n      0x00\n      keccak256\n        /* \"contracts/SmartContractWallet.sol\":936:985  nextOwnerGuardianVotedBool[_newOwner][msg.sender] */\n      0x00\n        /* \"contracts/SmartContractWallet.sol\":974:984  msg.sender */\n      caller\n        /* \"contracts/SmartContractWallet.sol\":936:985  nextOwnerGuardianVotedBool[_newOwner][msg.sender] */\n      0xffffffffffffffffffffffffffffffffffffffff\n      and\n      0xffffffffffffffffffffffffffffffffffffffff\n      and\n      dup2\n      mstore\n      0x20\n      add\n      swap1\n      dup2\n      mstore\n      0x20\n      add\n      0x00\n      keccak256\n      0x00\n      swap1\n      sload\n      swap1\n      0x0100\n      exp\n      swap1\n      div\n      0xff\n      and\n        /* \"contracts/SmartContractWallet.sol\":936:993  nextOwnerGuardianVotedBool[_newOwner][msg.sender] ==false */\n      iszero\n      iszero\n      eq\n        /* \"contracts/SmartContractWallet.sol\":928:1025  require(nextOwnerGuardianVotedBool[_newOwner][msg.sender] ==false, \"You already voted, aborting\") */\n      tag_77\n      jumpi\n      mload(0x40)\n      0x08c379a000000000000000000000000000000000000000000000000000000000\n      dup2\n      mstore\n      0x04\n      add\n      tag_78\n      swap1\n      tag_79\n      jump\t// in\n    tag_78:\n      mload(0x40)\n      dup1\n      swap2\n      sub\n      swap1\n      revert\n    tag_77:\n        /* \"contracts/SmartContractWallet.sol\":1052:1061  nextOwner */\n      0x04\n      0x00\n      swap1\n      sload\n      swap1\n      0x0100\n      exp\n      swap1\n      div\n      0xffffffffffffffffffffffffffffffffffffffff\n      and\n        /* \"contracts/SmartContractWallet.sol\":1039:1061  _newOwner != nextOwner */\n      0xffffffffffffffffffffffffffffffffffffffff\n      and\n        /* \"contracts/SmartContractWallet.sol\":1039:1048  _newOwner */\n      dup2\n        /* \"contracts/SmartContractWallet.sol\":1039:1061  _newOwner != nextOwner */\n      0xffffffffffffffffffffffffffffffffffffffff\n      and\n      eq\n        /* \"contracts/SmartContractWallet.sol\":1036:1149  if(_newOwner != nextOwner) {... */\n      tag_80\n      jumpi\n        /* \"contracts/SmartContractWallet.sol\":1090:1099  _newOwner */\n      dup1\n        /* \"contracts/SmartContractWallet.sol\":1078:1087  nextOwner */\n      0x04\n      0x00\n        /* \"contracts/SmartContractWallet.sol\":1078:1099  nextOwner = _newOwner */\n      0x0100\n      exp\n      dup2\n      sload\n      dup2\n      0xffffffffffffffffffffffffffffffffffffffff\n      mul\n      not\n      and\n      swap1\n      dup4\n      0xffffffffffffffffffffffffffffffffffffffff\n      and\n      mul\n      or\n      swap1\n      sstore\n      pop\n        /* \"contracts/SmartContractWallet.sol\":1136:1137  0 */\n      0x00\n        /* \"contracts/SmartContractWallet.sol\":1114:1133  guardiansResetCount */\n      0x06\n        /* \"contracts/SmartContractWallet.sol\":1114:1137  guardiansResetCount = 0 */\n      dup2\n      swap1\n      sstore\n      pop\n        /* \"contracts/SmartContractWallet.sol\":1036:1149  if(_newOwner != nextOwner) {... */\n    tag_80:\n        /* \"contracts/SmartContractWallet.sol\":1161:1180  guardiansResetCount */\n      0x06\n      0x00\n        /* \"contracts/SmartContractWallet.sol\":1161:1182  guardiansResetCount++ */\n      dup2\n      sload\n      dup1\n      swap3\n      swap2\n      swap1\n      tag_81\n      swap1\n      tag_82\n      jump\t// in\n    tag_81:\n      swap2\n      swap1\n      pop\n      sstore\n      pop\n        /* \"contracts/SmartContractWallet.sol\":488:489  3 */\n      0x03\n        /* \"contracts/SmartContractWallet.sol\":1198:1217  guardiansResetCount */\n      sload(0x06)\n        /* \"contracts/SmartContractWallet.sol\":1198:1255  guardiansResetCount >= confirmationsFromGuardiansForReset */\n      lt\n        /* \"contracts/SmartContractWallet.sol\":1195:1347  if(guardiansResetCount >= confirmationsFromGuardiansForReset) {... */\n      tag_83\n      jumpi\n        /* \"contracts/SmartContractWallet.sol\":1280:1289  nextOwner */\n      0x04\n      0x00\n      swap1\n      sload\n      swap1\n      0x0100\n      exp\n      swap1\n      div\n      0xffffffffffffffffffffffffffffffffffffffff\n      and\n        /* \"contracts/SmartContractWallet.sol\":1272:1277  owner */\n      0x00\n      dup1\n        /* \"contracts/SmartContractWallet.sol\":1272:1289  owner = nextOwner */\n      0x0100\n      exp\n      dup2\n      sload\n      dup2\n      0xffffffffffffffffffffffffffffffffffffffff\n      mul\n      not\n      and\n      swap1\n      dup4\n      0xffffffffffffffffffffffffffffffffffffffff\n      and\n      mul\n      or\n      swap1\n      sstore\n      pop\n        /* \"contracts/SmartContractWallet.sol\":1332:1333  0 */\n      0x00\n        /* \"contracts/SmartContractWallet.sol\":1304:1313  nextOwner */\n      0x04\n      0x00\n        /* \"contracts/SmartContractWallet.sol\":1304:1335  nextOwner = payable(address(0)) */\n      0x0100\n      exp\n      dup2\n      sload\n      dup2\n      0xffffffffffffffffffffffffffffffffffffffff\n      mul\n      not\n      and\n      swap1\n      dup4\n      0xffffffffffffffffffffffffffffffffffffffff\n      and\n      mul\n      or\n      swap1\n      sstore\n      pop\n        /* \"contracts/SmartContractWallet.sol\":1195:1347  if(guardiansResetCount >= confirmationsFromGuardiansForReset) {... */\n    tag_83:\n        /* \"contracts/SmartContractWallet.sol\":766:1354  function proposeNewOwner(address payable _newOwner) public {... */\n      pop\n      jump\t// out\n        /* \"contracts/SmartContractWallet.sol\":1691:2403  function transfer(address payable _to, uint _amount, bytes memory _payload) public returns(bytes memory) {... */\n    tag_61:\n        /* \"contracts/SmartContractWallet.sol\":1782:1794  bytes memory */\n      0x60\n        /* \"contracts/SmartContractWallet.sol\":1900:1905  owner */\n      0x00\n      dup1\n      sload\n      swap1\n      0x0100\n      exp\n      swap1\n      div\n      0xffffffffffffffffffffffffffffffffffffffff\n      and\n        /* \"contracts/SmartContractWallet.sol\":1886:1905  msg.sender != owner */\n      0xffffffffffffffffffffffffffffffffffffffff\n      and\n        /* \"contracts/SmartContractWallet.sol\":1886:1896  msg.sender */\n      caller\n        /* \"contracts/SmartContractWallet.sol\":1886:1905  msg.sender != owner */\n      0xffffffffffffffffffffffffffffffffffffffff\n      and\n      eq\n        /* \"contracts/SmartContractWallet.sol\":1883:2215  if(msg.sender != owner) {... */\n      tag_85\n      jumpi\n        /* \"contracts/SmartContractWallet.sol\":1930:1945  isAllowedToSend */\n      0x02\n        /* \"contracts/SmartContractWallet.sol\":1930:1957  isAllowedToSend[msg.sender] */\n      0x00\n        /* \"contracts/SmartContractWallet.sol\":1946:1956  msg.sender */\n      caller\n        /* \"contracts/SmartContractWallet.sol\":1930:1957  isAllowedToSend[msg.sender] */\n      0xffffffffffffffffffffffffffffffffffffffff\n      and\n      0xffffffffffffffffffffffffffffffffffffffff\n      and\n      dup2\n      mstore\n      0x20\n      add\n      swap1\n      dup2\n      mstore\n      0x20\n      add\n      0x00\n      keccak256\n      0x00\n      swap1\n      sload\n      swap1\n      0x0100\n      exp\n      swap1\n      div\n      0xff\n      and\n        /* \"contracts/SmartContractWallet.sol\":1922:2033  require(isAllowedToSend[msg.sender], \"You are not allowed to send anything from this smart contract, aborting\") */\n      tag_86\n      jumpi\n      mload(0x40)\n      0x08c379a000000000000000000000000000000000000000000000000000000000\n      dup2\n      mstore\n      0x04\n      add\n      tag_87\n      swap1\n      tag_88\n      jump\t// in\n    tag_87:\n      mload(0x40)\n      dup1\n      swap2\n      sub\n      swap1\n      revert\n    tag_86:\n        /* \"contracts/SmartContractWallet.sol\":2081:2088  _amount */\n      dup3\n        /* \"contracts/SmartContractWallet.sol\":2056:2065  allowance */\n      0x01\n        /* \"contracts/SmartContractWallet.sol\":2056:2077  allowance[msg.sender] */\n      0x00\n        /* \"contracts/SmartContractWallet.sol\":2066:2076  msg.sender */\n      caller\n        /* \"contracts/SmartContractWallet.sol\":2056:2077  allowance[msg.sender] */\n      0xffffffffffffffffffffffffffffffffffffffff\n      and\n      0xffffffffffffffffffffffffffffffffffffffff\n      and\n      dup2\n      mstore\n      0x20\n      add\n      swap1\n      dup2\n      mstore\n      0x20\n      add\n      0x00\n      keccak256\n      sload\n        /* \"contracts/SmartContractWallet.sol\":2056:2088  allowance[msg.sender] >= _amount */\n      lt\n      iszero\n        /* \"contracts/SmartContractWallet.sol\":2048:2154  require(allowance[msg.sender] >= _amount, \"You are trying to send more than you are allowed to, aborting\") */\n      tag_89\n      jumpi\n      mload(0x40)\n      0x08c379a000000000000000000000000000000000000000000000000000000000\n      dup2\n      mstore\n      0x04\n      add\n      tag_90\n      swap1\n      tag_91\n      jump\t// in\n    tag_90:\n      mload(0x40)\n      dup1\n      swap2\n      sub\n      swap1\n      revert\n    tag_89:\n        /* \"contracts/SmartContractWallet.sol\":2196:2203  _amount */\n      dup3\n        /* \"contracts/SmartContractWallet.sol\":2171:2180  allowance */\n      0x01\n        /* \"contracts/SmartContractWallet.sol\":2171:2192  allowance[msg.sender] */\n      0x00\n        /* \"contracts/SmartContractWallet.sol\":2181:2191  msg.sender */\n      caller\n        /* \"contracts/SmartContractWallet.sol\":2171:2192  allowance[msg.sender] */\n      0xffffffffffffffffffffffffffffffffffffffff\n      and\n      0xffffffffffffffffffffffffffffffffffffffff\n      and\n      dup2\n      mstore\n      0x20\n      add\n      swap1\n      dup2\n      mstore\n      0x20\n      add\n      0x00\n      keccak256\n      0x00\n        /* \"contracts/SmartContractWallet.sol\":2171:2203  allowance[msg.sender] -= _amount */\n      dup3\n      dup3\n      sload\n      tag_92\n      swap2\n      swap1\n      tag_93\n      jump\t// in\n    tag_92:\n      swap3\n      pop\n      pop\n      dup2\n      swap1\n      sstore\n      pop\n        /* \"contracts/SmartContractWallet.sol\":1883:2215  if(msg.sender != owner) {... */\n    tag_85:\n        /* \"contracts/SmartContractWallet.sol\":2228:2240  bool success */\n      0x00\n        /* \"contracts/SmartContractWallet.sol\":2242:2265  bytes memory returnData */\n      dup1\n        /* \"contracts/SmartContractWallet.sol\":2269:2272  _to */\n      dup6\n        /* \"contracts/SmartContractWallet.sol\":2269:2277  _to.call */\n      0xffffffffffffffffffffffffffffffffffffffff\n      and\n        /* \"contracts/SmartContractWallet.sol\":2285:2292  _amount */\n      dup6\n        /* \"contracts/SmartContractWallet.sol\":2294:2302  _payload */\n      dup6\n        /* \"contracts/SmartContractWallet.sol\":2269:2303  _to.call{value: _amount}(_payload) */\n      mload(0x40)\n      tag_94\n      swap2\n      swap1\n      tag_95\n      jump\t// in\n    tag_94:\n      0x00\n      mload(0x40)\n      dup1\n      dup4\n      sub\n      dup2\n      dup6\n      dup8\n      gas\n      call\n      swap3\n      pop\n      pop\n      pop\n      returndatasize\n      dup1\n      0x00\n      dup2\n      eq\n      tag_98\n      jumpi\n      mload(0x40)\n      swap2\n      pop\n      and(add(returndatasize, 0x3f), not(0x1f))\n      dup3\n      add\n      0x40\n      mstore\n      returndatasize\n      dup3\n      mstore\n      returndatasize\n      0x00\n      0x20\n      dup5\n      add\n      returndatacopy\n      jump(tag_97)\n    tag_98:\n      0x60\n      swap2\n      pop\n    tag_97:\n      pop\n        /* \"contracts/SmartContractWallet.sol\":2227:2303  (bool success, bytes memory returnData) = _to.call{value: _amount}(_payload) */\n      swap2\n      pop\n      swap2\n      pop\n        /* \"contracts/SmartContractWallet.sol\":2322:2329  success */\n      dup2\n        /* \"contracts/SmartContractWallet.sol\":2314:2367  require(success, \"Aborting, call was not successful\") */\n      tag_99\n      jumpi\n      mload(0x40)\n      0x08c379a000000000000000000000000000000000000000000000000000000000\n      dup2\n      mstore\n      0x04\n      add\n      tag_100\n      swap1\n      tag_101\n      jump\t// in\n    tag_100:\n      mload(0x40)\n      dup1\n      swap2\n      sub\n      swap1\n      revert\n    tag_99:\n        /* \"contracts/SmartContractWallet.sol\":2385:2395  returnData */\n      dup1\n        /* \"contracts/SmartContractWallet.sol\":2378:2395  return returnData */\n      swap3\n      pop\n      pop\n      pop\n        /* \"contracts/SmartContractWallet.sol\":1691:2403  function transfer(address payable _to, uint _amount, bytes memory _payload) public returns(bytes memory) {... */\n      swap4\n      swap3\n      pop\n      pop\n      pop\n      jump\t// out\n        /* \"#utility.yul\":7:82   */\n    tag_102:\n        /* \"#utility.yul\":40:46   */\n      0x00\n        /* \"#utility.yul\":73:75   */\n      0x40\n        /* \"#utility.yul\":67:76   */\n      mload\n        /* \"#utility.yul\":57:76   */\n      swap1\n      pop\n        /* \"#utility.yul\":7:82   */\n      swap1\n      jump\t// out\n        /* \"#utility.yul\":88:205   */\n    tag_103:\n        /* \"#utility.yul\":197:198   */\n      0x00\n        /* \"#utility.yul\":194:195   */\n      dup1\n        /* \"#utility.yul\":187:199   */\n      revert\n        /* \"#utility.yul\":211:328   */\n    tag_104:\n        /* \"#utility.yul\":320:321   */\n      0x00\n        /* \"#utility.yul\":317:318   */\n      dup1\n        /* \"#utility.yul\":310:322   */\n      revert\n        /* \"#utility.yul\":334:460   */\n    tag_105:\n        /* \"#utility.yul\":371:378   */\n      0x00\n        /* \"#utility.yul\":411:453   */\n      0xffffffffffffffffffffffffffffffffffffffff\n        /* \"#utility.yul\":404:409   */\n      dup3\n        /* \"#utility.yul\":400:454   */\n      and\n        /* \"#utility.yul\":389:454   */\n      swap1\n      pop\n        /* \"#utility.yul\":334:460   */\n      swap2\n      swap1\n      pop\n      jump\t// out\n        /* \"#utility.yul\":466:562   */\n    tag_106:\n        /* \"#utility.yul\":503:510   */\n      0x00\n        /* \"#utility.yul\":532:556   */\n      tag_157\n        /* \"#utility.yul\":550:555   */\n      dup3\n        /* \"#utility.yul\":532:556   */\n      tag_105\n      jump\t// in\n    tag_157:\n        /* \"#utility.yul\":521:556   */\n      swap1\n      pop\n        /* \"#utility.yul\":466:562   */\n      swap2\n      swap1\n      pop\n      jump\t// out\n        /* \"#utility.yul\":568:690   */\n    tag_107:\n        /* \"#utility.yul\":641:665   */\n      tag_159\n        /* \"#utility.yul\":659:664   */\n      dup2\n        /* \"#utility.yul\":641:665   */\n      tag_106\n      jump\t// in\n    tag_159:\n        /* \"#utility.yul\":634:639   */\n      dup2\n        /* \"#utility.yul\":631:666   */\n      eq\n        /* \"#utility.yul\":621:684   */\n      tag_160\n      jumpi\n        /* \"#utility.yul\":680:681   */\n      0x00\n        /* \"#utility.yul\":677:678   */\n      dup1\n        /* \"#utility.yul\":670:682   */\n      revert\n        /* \"#utility.yul\":621:684   */\n    tag_160:\n        /* \"#utility.yul\":568:690   */\n      pop\n      jump\t// out\n        /* \"#utility.yul\":696:835   */\n    tag_108:\n        /* \"#utility.yul\":742:747   */\n      0x00\n        /* \"#utility.yul\":780:786   */\n      dup2\n        /* \"#utility.yul\":767:787   */\n      calldataload\n        /* \"#utility.yul\":758:787   */\n      swap1\n      pop\n        /* \"#utility.yul\":796:829   */\n      tag_162\n        /* \"#utility.yul\":823:828   */\n      dup2\n        /* \"#utility.yul\":796:829   */\n      tag_107\n      jump\t// in\n    tag_162:\n        /* \"#utility.yul\":696:835   */\n      swap3\n      swap2\n      pop\n      pop\n      jump\t// out\n        /* \"#utility.yul\":841:1170   */\n    tag_18:\n        /* \"#utility.yul\":900:906   */\n      0x00\n        /* \"#utility.yul\":949:951   */\n      0x20\n        /* \"#utility.yul\":937:946   */\n      dup3\n        /* \"#utility.yul\":928:935   */\n      dup5\n        /* \"#utility.yul\":924:947   */\n      sub\n        /* \"#utility.yul\":920:952   */\n      slt\n        /* \"#utility.yul\":917:1036   */\n      iszero\n      tag_164\n      jumpi\n        /* \"#utility.yul\":955:1034   */\n      tag_165\n      tag_103\n      jump\t// in\n    tag_165:\n        /* \"#utility.yul\":917:1036   */\n    tag_164:\n        /* \"#utility.yul\":1075:1076   */\n      0x00\n        /* \"#utility.yul\":1100:1153   */\n      tag_166\n        /* \"#utility.yul\":1145:1152   */\n      dup5\n        /* \"#utility.yul\":1136:1142   */\n      dup3\n        /* \"#utility.yul\":1125:1134   */\n      dup6\n        /* \"#utility.yul\":1121:1143   */\n      add\n        /* \"#utility.yul\":1100:1153   */\n      tag_108\n      jump\t// in\n    tag_166:\n        /* \"#utility.yul\":1090:1153   */\n      swap2\n      pop\n        /* \"#utility.yul\":1046:1163   */\n      pop\n        /* \"#utility.yul\":841:1170   */\n      swap3\n      swap2\n      pop\n      pop\n      jump\t// out\n        /* \"#utility.yul\":1176:1266   */\n    tag_109:\n        /* \"#utility.yul\":1210:1217   */\n      0x00\n        /* \"#utility.yul\":1253:1258   */\n      dup2\n        /* \"#utility.yul\":1246:1259   */\n      iszero\n        /* \"#utility.yul\":1239:1260   */\n      iszero\n        /* \"#utility.yul\":1228:1260   */\n      swap1\n      pop\n        /* \"#utility.yul\":1176:1266   */\n      swap2\n      swap1\n      pop\n      jump\t// out\n        /* \"#utility.yul\":1272:1381   */\n    tag_110:\n        /* \"#utility.yul\":1353:1374   */\n      tag_169\n        /* \"#utility.yul\":1368:1373   */\n      dup2\n        /* \"#utility.yul\":1353:1374   */\n      tag_109\n      jump\t// in\n    tag_169:\n        /* \"#utility.yul\":1348:1351   */\n      dup3\n        /* \"#utility.yul\":1341:1375   */\n      mstore\n        /* \"#utility.yul\":1272:1381   */\n      pop\n      pop\n      jump\t// out\n        /* \"#utility.yul\":1387:1597   */\n    tag_21:\n        /* \"#utility.yul\":1474:1478   */\n      0x00\n        /* \"#utility.yul\":1512:1514   */\n      0x20\n        /* \"#utility.yul\":1501:1510   */\n      dup3\n        /* \"#utility.yul\":1497:1515   */\n      add\n        /* \"#utility.yul\":1489:1515   */\n      swap1\n      pop\n        /* \"#utility.yul\":1525:1590   */\n      tag_171\n        /* \"#utility.yul\":1587:1588   */\n      0x00\n        /* \"#utility.yul\":1576:1585   */\n      dup4\n        /* \"#utility.yul\":1572:1589   */\n      add\n        /* \"#utility.yul\":1563:1569   */\n      dup5\n        /* \"#utility.yul\":1525:1590   */\n      tag_110\n      jump\t// in\n    tag_171:\n        /* \"#utility.yul\":1387:1597   */\n      swap3\n      swap2\n      pop\n      pop\n      jump\t// out\n        /* \"#utility.yul\":1603:1680   */\n    tag_111:\n        /* \"#utility.yul\":1640:1647   */\n      0x00\n        /* \"#utility.yul\":1669:1674   */\n      dup2\n        /* \"#utility.yul\":1658:1674   */\n      swap1\n      pop\n        /* \"#utility.yul\":1603:1680   */\n      swap2\n      swap1\n      pop\n      jump\t// out\n        /* \"#utility.yul\":1686:1808   */\n    tag_112:\n        /* \"#utility.yul\":1759:1783   */\n      tag_174\n        /* \"#utility.yul\":1777:1782   */\n      dup2\n        /* \"#utility.yul\":1759:1783   */\n      tag_111\n      jump\t// in\n    tag_174:\n        /* \"#utility.yul\":1752:1757   */\n      dup2\n        /* \"#utility.yul\":1749:1784   */\n      eq\n        /* \"#utility.yul\":1739:1802   */\n      tag_175\n      jumpi\n        /* \"#utility.yul\":1798:1799   */\n      0x00\n        /* \"#utility.yul\":1795:1796   */\n      dup1\n        /* \"#utility.yul\":1788:1800   */\n      revert\n        /* \"#utility.yul\":1739:1802   */\n    tag_175:\n        /* \"#utility.yul\":1686:1808   */\n      pop\n      jump\t// out\n        /* \"#utility.yul\":1814:1953   */\n    tag_113:\n        /* \"#utility.yul\":1860:1865   */\n      0x00\n        /* \"#utility.yul\":1898:1904   */\n      dup2\n        /* \"#utility.yul\":1885:1905   */\n      calldataload\n        /* \"#utility.yul\":1876:1905   */\n      swap1\n      pop\n        /* \"#utility.yul\":1914:1947   */\n      tag_177\n        /* \"#utility.yul\":1941:1946   */\n      dup2\n        /* \"#utility.yul\":1914:1947   */\n      tag_112\n      jump\t// in\n    tag_177:\n        /* \"#utility.yul\":1814:1953   */\n      swap3\n      swap2\n      pop\n      pop\n      jump\t// out\n        /* \"#utility.yul\":1959:2433   */\n    tag_30:\n        /* \"#utility.yul\":2027:2033   */\n      0x00\n        /* \"#utility.yul\":2035:2041   */\n      dup1\n        /* \"#utility.yul\":2084:2086   */\n      0x40\n        /* \"#utility.yul\":2072:2081   */\n      dup4\n        /* \"#utility.yul\":2063:2070   */\n      dup6\n        /* \"#utility.yul\":2059:2082   */\n      sub\n        /* \"#utility.yul\":2055:2087   */\n      slt\n        /* \"#utility.yul\":2052:2171   */\n      iszero\n      tag_179\n      jumpi\n        /* \"#utility.yul\":2090:2169   */\n      tag_180\n      tag_103\n      jump\t// in\n    tag_180:\n        /* \"#utility.yul\":2052:2171   */\n    tag_179:\n        /* \"#utility.yul\":2210:2211   */\n      0x00\n        /* \"#utility.yul\":2235:2288   */\n      tag_181\n        /* \"#utility.yul\":2280:2287   */\n      dup6\n        /* \"#utility.yul\":2271:2277   */\n      dup3\n        /* \"#utility.yul\":2260:2269   */\n      dup7\n        /* \"#utility.yul\":2256:2278   */\n      add\n        /* \"#utility.yul\":2235:2288   */\n      tag_108\n      jump\t// in\n    tag_181:\n        /* \"#utility.yul\":2225:2288   */\n      swap3\n      pop\n        /* \"#utility.yul\":2181:2298   */\n      pop\n        /* \"#utility.yul\":2337:2339   */\n      0x20\n        /* \"#utility.yul\":2363:2416   */\n      tag_182\n        /* \"#utility.yul\":2408:2415   */\n      dup6\n        /* \"#utility.yul\":2399:2405   */\n      dup3\n        /* \"#utility.yul\":2388:2397   */\n      dup7\n        /* \"#utility.yul\":2384:2406   */\n      add\n        /* \"#utility.yul\":2363:2416   */\n      tag_113\n      jump\t// in\n    tag_182:\n        /* \"#utility.yul\":2353:2416   */\n      swap2\n      pop\n        /* \"#utility.yul\":2308:2426   */\n      pop\n        /* \"#utility.yul\":1959:2433   */\n      swap3\n      pop\n      swap3\n      swap1\n      pop\n      jump\t// out\n        /* \"#utility.yul\":2439:2557   */\n    tag_114:\n        /* \"#utility.yul\":2526:2550   */\n      tag_184\n        /* \"#utility.yul\":2544:2549   */\n      dup2\n        /* \"#utility.yul\":2526:2550   */\n      tag_111\n      jump\t// in\n    tag_184:\n        /* \"#utility.yul\":2521:2524   */\n      dup3\n        /* \"#utility.yul\":2514:2551   */\n      mstore\n        /* \"#utility.yul\":2439:2557   */\n      pop\n      pop\n      jump\t// out\n        /* \"#utility.yul\":2563:2785   */\n    tag_37:\n        /* \"#utility.yul\":2656:2660   */\n      0x00\n        /* \"#utility.yul\":2694:2696   */\n      0x20\n        /* \"#utility.yul\":2683:2692   */\n      dup3\n        /* \"#utility.yul\":2679:2697   */\n      add\n        /* \"#utility.yul\":2671:2697   */\n      swap1\n      pop\n        /* \"#utility.yul\":2707:2778   */\n      tag_186\n        /* \"#utility.yul\":2775:2776   */\n      0x00\n        /* \"#utility.yul\":2764:2773   */\n      dup4\n        /* \"#utility.yul\":2760:2777   */\n      add\n        /* \"#utility.yul\":2751:2757   */\n      dup5\n        /* \"#utility.yul\":2707:2778   */\n      tag_114\n      jump\t// in\n    tag_186:\n        /* \"#utility.yul\":2563:2785   */\n      swap3\n      swap2\n      pop\n      pop\n      jump\t// out\n        /* \"#utility.yul\":2791:2895   */\n    tag_115:\n        /* \"#utility.yul\":2836:2843   */\n      0x00\n        /* \"#utility.yul\":2865:2889   */\n      tag_188\n        /* \"#utility.yul\":2883:2888   */\n      dup3\n        /* \"#utility.yul\":2865:2889   */\n      tag_105\n      jump\t// in\n    tag_188:\n        /* \"#utility.yul\":2854:2889   */\n      swap1\n      pop\n        /* \"#utility.yul\":2791:2895   */\n      swap2\n      swap1\n      pop\n      jump\t// out\n        /* \"#utility.yul\":2901:3043   */\n    tag_116:\n        /* \"#utility.yul\":3004:3036   */\n      tag_190\n        /* \"#utility.yul\":3030:3035   */\n      dup2\n        /* \"#utility.yul\":3004:3036   */\n      tag_115\n      jump\t// in\n    tag_190:\n        /* \"#utility.yul\":2999:3002   */\n      dup3\n        /* \"#utility.yul\":2992:3037   */\n      mstore\n        /* \"#utility.yul\":2901:3043   */\n      pop\n      pop\n      jump\t// out\n        /* \"#utility.yul\":3049:3303   */\n    tag_46:\n        /* \"#utility.yul\":3158:3162   */\n      0x00\n        /* \"#utility.yul\":3196:3198   */\n      0x20\n        /* \"#utility.yul\":3185:3194   */\n      dup3\n        /* \"#utility.yul\":3181:3199   */\n      add\n        /* \"#utility.yul\":3173:3199   */\n      swap1\n      pop\n        /* \"#utility.yul\":3209:3296   */\n      tag_192\n        /* \"#utility.yul\":3293:3294   */\n      0x00\n        /* \"#utility.yul\":3282:3291   */\n      dup4\n        /* \"#utility.yul\":3278:3295   */\n      add\n        /* \"#utility.yul\":3269:3275   */\n      dup5\n        /* \"#utility.yul\":3209:3296   */\n      tag_116\n      jump\t// in\n    tag_192:\n        /* \"#utility.yul\":3049:3303   */\n      swap3\n      swap2\n      pop\n      pop\n      jump\t// out\n        /* \"#utility.yul\":3309:3425   */\n    tag_117:\n        /* \"#utility.yul\":3379:3400   */\n      tag_194\n        /* \"#utility.yul\":3394:3399   */\n      dup2\n        /* \"#utility.yul\":3379:3400   */\n      tag_109\n      jump\t// in\n    tag_194:\n        /* \"#utility.yul\":3372:3377   */\n      dup2\n        /* \"#utility.yul\":3369:3401   */\n      eq\n        /* \"#utility.yul\":3359:3419   */\n      tag_195\n      jumpi\n        /* \"#utility.yul\":3415:3416   */\n      0x00\n        /* \"#utility.yul\":3412:3413   */\n      dup1\n        /* \"#utility.yul\":3405:3417   */\n      revert\n        /* \"#utility.yul\":3359:3419   */\n    tag_195:\n        /* \"#utility.yul\":3309:3425   */\n      pop\n      jump\t// out\n        /* \"#utility.yul\":3431:3564   */\n    tag_118:\n        /* \"#utility.yul\":3474:3479   */\n      0x00\n        /* \"#utility.yul\":3512:3518   */\n      dup2\n        /* \"#utility.yul\":3499:3519   */\n      calldataload\n        /* \"#utility.yul\":3490:3519   */\n      swap1\n      pop\n        /* \"#utility.yul\":3528:3558   */\n      tag_197\n        /* \"#utility.yul\":3552:3557   */\n      dup2\n        /* \"#utility.yul\":3528:3558   */\n      tag_117\n      jump\t// in\n    tag_197:\n        /* \"#utility.yul\":3431:3564   */\n      swap3\n      swap2\n      pop\n      pop\n      jump\t// out\n        /* \"#utility.yul\":3570:4038   */\n    tag_50:\n        /* \"#utility.yul\":3635:3641   */\n      0x00\n        /* \"#utility.yul\":3643:3649   */\n      dup1\n        /* \"#utility.yul\":3692:3694   */\n      0x40\n        /* \"#utility.yul\":3680:3689   */\n      dup4\n        /* \"#utility.yul\":3671:3678   */\n      dup6\n        /* \"#utility.yul\":3667:3690   */\n      sub\n        /* \"#utility.yul\":3663:3695   */\n      slt\n        /* \"#utility.yul\":3660:3779   */\n      iszero\n      tag_199\n      jumpi\n        /* \"#utility.yul\":3698:3777   */\n      tag_200\n      tag_103\n      jump\t// in\n    tag_200:\n        /* \"#utility.yul\":3660:3779   */\n    tag_199:\n        /* \"#utility.yul\":3818:3819   */\n      0x00\n        /* \"#utility.yul\":3843:3896   */\n      tag_201\n        /* \"#utility.yul\":3888:3895   */\n      dup6\n        /* \"#utility.yul\":3879:3885   */\n      dup3\n        /* \"#utility.yul\":3868:3877   */\n      dup7\n        /* \"#utility.yul\":3864:3886   */\n      add\n        /* \"#utility.yul\":3843:3896   */\n      tag_108\n      jump\t// in\n    tag_201:\n        /* \"#utility.yul\":3833:3896   */\n      swap3\n      pop\n        /* \"#utility.yul\":3789:3906   */\n      pop\n        /* \"#utility.yul\":3945:3947   */\n      0x20\n        /* \"#utility.yul\":3971:4021   */\n      tag_202\n        /* \"#utility.yul\":4013:4020   */\n      dup6\n        /* \"#utility.yul\":4004:4010   */\n      dup3\n        /* \"#utility.yul\":3993:4002   */\n      dup7\n        /* \"#utility.yul\":3989:4011   */\n      add\n        /* \"#utility.yul\":3971:4021   */\n      tag_118\n      jump\t// in\n    tag_202:\n        /* \"#utility.yul\":3961:4021   */\n      swap2\n      pop\n        /* \"#utility.yul\":3916:4031   */\n      pop\n        /* \"#utility.yul\":3570:4038   */\n      swap3\n      pop\n      swap3\n      swap1\n      pop\n      jump\t// out\n        /* \"#utility.yul\":4044:4182   */\n    tag_119:\n        /* \"#utility.yul\":4125:4157   */\n      tag_204\n        /* \"#utility.yul\":4151:4156   */\n      dup2\n        /* \"#utility.yul\":4125:4157   */\n      tag_115\n      jump\t// in\n    tag_204:\n        /* \"#utility.yul\":4118:4123   */\n      dup2\n        /* \"#utility.yul\":4115:4158   */\n      eq\n        /* \"#utility.yul\":4105:4176   */\n      tag_205\n      jumpi\n        /* \"#utility.yul\":4172:4173   */\n      0x00\n        /* \"#utility.yul\":4169:4170   */\n      dup1\n        /* \"#utility.yul\":4162:4174   */\n      revert\n        /* \"#utility.yul\":4105:4176   */\n    tag_205:\n        /* \"#utility.yul\":4044:4182   */\n      pop\n      jump\t// out\n        /* \"#utility.yul\":4188:4343   */\n    tag_120:\n        /* \"#utility.yul\":4242:4247   */\n      0x00\n        /* \"#utility.yul\":4280:4286   */\n      dup2\n        /* \"#utility.yul\":4267:4287   */\n      calldataload\n        /* \"#utility.yul\":4258:4287   */\n      swap1\n      pop\n        /* \"#utility.yul\":4296:4337   */\n      tag_207\n        /* \"#utility.yul\":4331:4336   */\n      dup2\n        /* \"#utility.yul\":4296:4337   */\n      tag_119\n      jump\t// in\n    tag_207:\n        /* \"#utility.yul\":4188:4343   */\n      swap3\n      swap2\n      pop\n      pop\n      jump\t// out\n        /* \"#utility.yul\":4349:4694   */\n    tag_55:\n        /* \"#utility.yul\":4416:4422   */\n      0x00\n        /* \"#utility.yul\":4465:4467   */\n      0x20\n        /* \"#utility.yul\":4453:4462   */\n      dup3\n        /* \"#utility.yul\":4444:4451   */\n      dup5\n        /* \"#utility.yul\":4440:4463   */\n      sub\n        /* \"#utility.yul\":4436:4468   */\n      slt\n        /* \"#utility.yul\":4433:4552   */\n      iszero\n      tag_209\n      jumpi\n        /* \"#utility.yul\":4471:4550   */\n      tag_210\n      tag_103\n      jump\t// in\n    tag_210:\n        /* \"#utility.yul\":4433:4552   */\n    tag_209:\n        /* \"#utility.yul\":4591:4592   */\n      0x00\n        /* \"#utility.yul\":4616:4677   */\n      tag_211\n        /* \"#utility.yul\":4669:4676   */\n      dup5\n        /* \"#utility.yul\":4660:4666   */\n      dup3\n        /* \"#utility.yul\":4649:4658   */\n      dup6\n        /* \"#utility.yul\":4645:4667   */\n      add\n        /* \"#utility.yul\":4616:4677   */\n      tag_120\n      jump\t// in\n    tag_211:\n        /* \"#utility.yul\":4606:4677   */\n      swap2\n      pop\n        /* \"#utility.yul\":4562:4687   */\n      pop\n        /* \"#utility.yul\":4349:4694   */\n      swap3\n      swap2\n      pop\n      pop\n      jump\t// out\n        /* \"#utility.yul\":4700:4817   */\n    tag_121:\n        /* \"#utility.yul\":4809:4810   */\n      0x00\n        /* \"#utility.yul\":4806:4807   */\n      dup1\n        /* \"#utility.yul\":4799:4811   */\n      revert\n        /* \"#utility.yul\":4823:4940   */\n    tag_122:\n        /* \"#utility.yul\":4932:4933   */\n      0x00\n        /* \"#utility.yul\":4929:4930   */\n      dup1\n        /* \"#utility.yul\":4922:4934   */\n      revert\n        /* \"#utility.yul\":4946:5048   */\n    tag_123:\n        /* \"#utility.yul\":4987:4993   */\n      0x00\n        /* \"#utility.yul\":5038:5040   */\n      0x1f\n        /* \"#utility.yul\":5034:5041   */\n      not\n        /* \"#utility.yul\":5029:5031   */\n      0x1f\n        /* \"#utility.yul\":5022:5027   */\n      dup4\n        /* \"#utility.yul\":5018:5032   */\n      add\n        /* \"#utility.yul\":5014:5042   */\n      and\n        /* \"#utility.yul\":5004:5042   */\n      swap1\n      pop\n        /* \"#utility.yul\":4946:5048   */\n      swap2\n      swap1\n      pop\n      jump\t// out\n        /* \"#utility.yul\":5054:5234   */\n    tag_124:\n        /* \"#utility.yul\":5102:5179   */\n      0x4e487b7100000000000000000000000000000000000000000000000000000000\n        /* \"#utility.yul\":5099:5100   */\n      0x00\n        /* \"#utility.yul\":5092:5180   */\n      mstore\n        /* \"#utility.yul\":5199:5203   */\n      0x41\n        /* \"#utility.yul\":5196:5197   */\n      0x04\n        /* \"#utility.yul\":5189:5204   */\n      mstore\n        /* \"#utility.yul\":5223:5227   */\n      0x24\n        /* \"#utility.yul\":5220:5221   */\n      0x00\n        /* \"#utility.yul\":5213:5228   */\n      revert\n        /* \"#utility.yul\":5240:5521   */\n    tag_125:\n        /* \"#utility.yul\":5323:5350   */\n      tag_217\n        /* \"#utility.yul\":5345:5349   */\n      dup3\n        /* \"#utility.yul\":5323:5350   */\n      tag_123\n      jump\t// in\n    tag_217:\n        /* \"#utility.yul\":5315:5321   */\n      dup2\n        /* \"#utility.yul\":5311:5351   */\n      add\n        /* \"#utility.yul\":5453:5459   */\n      dup2\n        /* \"#utility.yul\":5441:5451   */\n      dup2\n        /* \"#utility.yul\":5438:5460   */\n      lt\n        /* \"#utility.yul\":5417:5435   */\n      0xffffffffffffffff\n        /* \"#utility.yul\":5405:5415   */\n      dup3\n        /* \"#utility.yul\":5402:5436   */\n      gt\n        /* \"#utility.yul\":5399:5461   */\n      or\n        /* \"#utility.yul\":5396:5484   */\n      iszero\n      tag_218\n      jumpi\n        /* \"#utility.yul\":5464:5482   */\n      tag_219\n      tag_124\n      jump\t// in\n    tag_219:\n        /* \"#utility.yul\":5396:5484   */\n    tag_218:\n        /* \"#utility.yul\":5504:5514   */\n      dup1\n        /* \"#utility.yul\":5500:5502   */\n      0x40\n        /* \"#utility.yul\":5493:5515   */\n      mstore\n        /* \"#utility.yul\":5283:5521   */\n      pop\n        /* \"#utility.yul\":5240:5521   */\n      pop\n      pop\n      jump\t// out\n        /* \"#utility.yul\":5527:5656   */\n    tag_126:\n        /* \"#utility.yul\":5561:5567   */\n      0x00\n        /* \"#utility.yul\":5588:5608   */\n      tag_221\n      tag_102\n      jump\t// in\n    tag_221:\n        /* \"#utility.yul\":5578:5608   */\n      swap1\n      pop\n        /* \"#utility.yul\":5617:5650   */\n      tag_222\n        /* \"#utility.yul\":5645:5649   */\n      dup3\n        /* \"#utility.yul\":5637:5643   */\n      dup3\n        /* \"#utility.yul\":5617:5650   */\n      tag_125\n      jump\t// in\n    tag_222:\n        /* \"#utility.yul\":5527:5656   */\n      swap2\n      swap1\n      pop\n      jump\t// out\n        /* \"#utility.yul\":5662:5969   */\n    tag_127:\n        /* \"#utility.yul\":5723:5727   */\n      0x00\n        /* \"#utility.yul\":5813:5831   */\n      0xffffffffffffffff\n        /* \"#utility.yul\":5805:5811   */\n      dup3\n        /* \"#utility.yul\":5802:5832   */\n      gt\n        /* \"#utility.yul\":5799:5855   */\n      iszero\n      tag_224\n      jumpi\n        /* \"#utility.yul\":5835:5853   */\n      tag_225\n      tag_124\n      jump\t// in\n    tag_225:\n        /* \"#utility.yul\":5799:5855   */\n    tag_224:\n        /* \"#utility.yul\":5873:5902   */\n      tag_226\n        /* \"#utility.yul\":5895:5901   */\n      dup3\n        /* \"#utility.yul\":5873:5902   */\n      tag_123\n      jump\t// in\n    tag_226:\n        /* \"#utility.yul\":5865:5902   */\n      swap1\n      pop\n        /* \"#utility.yul\":5957:5961   */\n      0x20\n        /* \"#utility.yul\":5951:5955   */\n      dup2\n        /* \"#utility.yul\":5947:5962   */\n      add\n        /* \"#utility.yul\":5939:5962   */\n      swap1\n      pop\n        /* \"#utility.yul\":5662:5969   */\n      swap2\n      swap1\n      pop\n      jump\t// out\n        /* \"#utility.yul\":5975:6121   */\n    tag_128:\n        /* \"#utility.yul\":6072:6078   */\n      dup3\n        /* \"#utility.yul\":6067:6070   */\n      dup2\n        /* \"#utility.yul\":6062:6065   */\n      dup4\n        /* \"#utility.yul\":6049:6079   */\n      calldatacopy\n        /* \"#utility.yul\":6113:6114   */\n      0x00\n        /* \"#utility.yul\":6104:6110   */\n      dup4\n        /* \"#utility.yul\":6099:6102   */\n      dup4\n        /* \"#utility.yul\":6095:6111   */\n      add\n        /* \"#utility.yul\":6088:6115   */\n      mstore\n        /* \"#utility.yul\":5975:6121   */\n      pop\n      pop\n      pop\n      jump\t// out\n        /* \"#utility.yul\":6127:6550   */\n    tag_129:\n        /* \"#utility.yul\":6204:6209   */\n      0x00\n        /* \"#utility.yul\":6229:6294   */\n      tag_229\n        /* \"#utility.yul\":6245:6293   */\n      tag_230\n        /* \"#utility.yul\":6286:6292   */\n      dup5\n        /* \"#utility.yul\":6245:6293   */\n      tag_127\n      jump\t// in\n    tag_230:\n        /* \"#utility.yul\":6229:6294   */\n      tag_126\n      jump\t// in\n    tag_229:\n        /* \"#utility.yul\":6220:6294   */\n      swap1\n      pop\n        /* \"#utility.yul\":6317:6323   */\n      dup3\n        /* \"#utility.yul\":6310:6315   */\n      dup2\n        /* \"#utility.yul\":6303:6324   */\n      mstore\n        /* \"#utility.yul\":6355:6359   */\n      0x20\n        /* \"#utility.yul\":6348:6353   */\n      dup2\n        /* \"#utility.yul\":6344:6360   */\n      add\n        /* \"#utility.yul\":6393:6396   */\n      dup5\n        /* \"#utility.yul\":6384:6390   */\n      dup5\n        /* \"#utility.yul\":6379:6382   */\n      dup5\n        /* \"#utility.yul\":6375:6391   */\n      add\n        /* \"#utility.yul\":6372:6397   */\n      gt\n        /* \"#utility.yul\":6369:6481   */\n      iszero\n      tag_231\n      jumpi\n        /* \"#utility.yul\":6400:6479   */\n      tag_232\n      tag_122\n      jump\t// in\n    tag_232:\n        /* \"#utility.yul\":6369:6481   */\n    tag_231:\n        /* \"#utility.yul\":6490:6544   */\n      tag_233\n        /* \"#utility.yul\":6537:6543   */\n      dup5\n        /* \"#utility.yul\":6532:6535   */\n      dup3\n        /* \"#utility.yul\":6527:6530   */\n      dup6\n        /* \"#utility.yul\":6490:6544   */\n      tag_128\n      jump\t// in\n    tag_233:\n        /* \"#utility.yul\":6210:6550   */\n      pop\n        /* \"#utility.yul\":6127:6550   */\n      swap4\n      swap3\n      pop\n      pop\n      pop\n      jump\t// out\n        /* \"#utility.yul\":6569:6907   */\n    tag_130:\n        /* \"#utility.yul\":6624:6629   */\n      0x00\n        /* \"#utility.yul\":6673:6676   */\n      dup3\n        /* \"#utility.yul\":6666:6670   */\n      0x1f\n        /* \"#utility.yul\":6658:6664   */\n      dup4\n        /* \"#utility.yul\":6654:6671   */\n      add\n        /* \"#utility.yul\":6650:6677   */\n      slt\n        /* \"#utility.yul\":6640:6762   */\n      tag_235\n      jumpi\n        /* \"#utility.yul\":6681:6760   */\n      tag_236\n      tag_121\n      jump\t// in\n    tag_236:\n        /* \"#utility.yul\":6640:6762   */\n    tag_235:\n        /* \"#utility.yul\":6798:6804   */\n      dup2\n        /* \"#utility.yul\":6785:6805   */\n      calldataload\n        /* \"#utility.yul\":6823:6901   */\n      tag_237\n        /* \"#utility.yul\":6897:6900   */\n      dup5\n        /* \"#utility.yul\":6889:6895   */\n      dup3\n        /* \"#utility.yul\":6882:6886   */\n      0x20\n        /* \"#utility.yul\":6874:6880   */\n      dup7\n        /* \"#utility.yul\":6870:6887   */\n      add\n        /* \"#utility.yul\":6823:6901   */\n      tag_129\n      jump\t// in\n    tag_237:\n        /* \"#utility.yul\":6814:6901   */\n      swap2\n      pop\n        /* \"#utility.yul\":6630:6907   */\n      pop\n        /* \"#utility.yul\":6569:6907   */\n      swap3\n      swap2\n      pop\n      pop\n      jump\t// out\n        /* \"#utility.yul\":6913:7726   */\n    tag_60:\n        /* \"#utility.yul\":7007:7013   */\n      0x00\n        /* \"#utility.yul\":7015:7021   */\n      dup1\n        /* \"#utility.yul\":7023:7029   */\n      0x00\n        /* \"#utility.yul\":7072:7074   */\n      0x60\n        /* \"#utility.yul\":7060:7069   */\n      dup5\n        /* \"#utility.yul\":7051:7058   */\n      dup7\n        /* \"#utility.yul\":7047:7070   */\n      sub\n        /* \"#utility.yul\":7043:7075   */\n      slt\n        /* \"#utility.yul\":7040:7159   */\n      iszero\n      tag_239\n      jumpi\n        /* \"#utility.yul\":7078:7157   */\n      tag_240\n      tag_103\n      jump\t// in\n    tag_240:\n        /* \"#utility.yul\":7040:7159   */\n    tag_239:\n        /* \"#utility.yul\":7198:7199   */\n      0x00\n        /* \"#utility.yul\":7223:7284   */\n      tag_241\n        /* \"#utility.yul\":7276:7283   */\n      dup7\n        /* \"#utility.yul\":7267:7273   */\n      dup3\n        /* \"#utility.yul\":7256:7265   */\n      dup8\n        /* \"#utility.yul\":7252:7274   */\n      add\n        /* \"#utility.yul\":7223:7284   */\n      tag_120\n      jump\t// in\n    tag_241:\n        /* \"#utility.yul\":7213:7284   */\n      swap4\n      pop\n        /* \"#utility.yul\":7169:7294   */\n      pop\n        /* \"#utility.yul\":7333:7335   */\n      0x20\n        /* \"#utility.yul\":7359:7412   */\n      tag_242\n        /* \"#utility.yul\":7404:7411   */\n      dup7\n        /* \"#utility.yul\":7395:7401   */\n      dup3\n        /* \"#utility.yul\":7384:7393   */\n      dup8\n        /* \"#utility.yul\":7380:7402   */\n      add\n        /* \"#utility.yul\":7359:7412   */\n      tag_113\n      jump\t// in\n    tag_242:\n        /* \"#utility.yul\":7349:7412   */\n      swap3\n      pop\n        /* \"#utility.yul\":7304:7422   */\n      pop\n        /* \"#utility.yul\":7489:7491   */\n      0x40\n        /* \"#utility.yul\":7478:7487   */\n      dup5\n        /* \"#utility.yul\":7474:7492   */\n      add\n        /* \"#utility.yul\":7461:7493   */\n      calldataload\n        /* \"#utility.yul\":7520:7538   */\n      0xffffffffffffffff\n        /* \"#utility.yul\":7512:7518   */\n      dup2\n        /* \"#utility.yul\":7509:7539   */\n      gt\n        /* \"#utility.yul\":7506:7623   */\n      iszero\n      tag_243\n      jumpi\n        /* \"#utility.yul\":7542:7621   */\n      tag_244\n      tag_104\n      jump\t// in\n    tag_244:\n        /* \"#utility.yul\":7506:7623   */\n    tag_243:\n        /* \"#utility.yul\":7647:7709   */\n      tag_245\n        /* \"#utility.yul\":7701:7708   */\n      dup7\n        /* \"#utility.yul\":7692:7698   */\n      dup3\n        /* \"#utility.yul\":7681:7690   */\n      dup8\n        /* \"#utility.yul\":7677:7699   */\n      add\n        /* \"#utility.yul\":7647:7709   */\n      tag_130\n      jump\t// in\n    tag_245:\n        /* \"#utility.yul\":7637:7709   */\n      swap2\n      pop\n        /* \"#utility.yul\":7432:7719   */\n      pop\n        /* \"#utility.yul\":6913:7726   */\n      swap3\n      pop\n      swap3\n      pop\n      swap3\n      jump\t// out\n        /* \"#utility.yul\":7732:7830   */\n    tag_131:\n        /* \"#utility.yul\":7783:7789   */\n      0x00\n        /* \"#utility.yul\":7817:7822   */\n      dup2\n        /* \"#utility.yul\":7811:7823   */\n      mload\n        /* \"#utility.yul\":7801:7823   */\n      swap1\n      pop\n        /* \"#utility.yul\":7732:7830   */\n      swap2\n      swap1\n      pop\n      jump\t// out\n        /* \"#utility.yul\":7836:8004   */\n    tag_132:\n        /* \"#utility.yul\":7919:7930   */\n      0x00\n        /* \"#utility.yul\":7953:7959   */\n      dup3\n        /* \"#utility.yul\":7948:7951   */\n      dup3\n        /* \"#utility.yul\":7941:7960   */\n      mstore\n        /* \"#utility.yul\":7993:7997   */\n      0x20\n        /* \"#utility.yul\":7988:7991   */\n      dup3\n        /* \"#utility.yul\":7984:7998   */\n      add\n        /* \"#utility.yul\":7969:7998   */\n      swap1\n      pop\n        /* \"#utility.yul\":7836:8004   */\n      swap3\n      swap2\n      pop\n      pop\n      jump\t// out\n        /* \"#utility.yul\":8010:8256   */\n    tag_133:\n        /* \"#utility.yul\":8091:8092   */\n      0x00\n        /* \"#utility.yul\":8101:8214   */\n    tag_249:\n        /* \"#utility.yul\":8115:8121   */\n      dup4\n        /* \"#utility.yul\":8112:8113   */\n      dup2\n        /* \"#utility.yul\":8109:8122   */\n      lt\n        /* \"#utility.yul\":8101:8214   */\n      iszero\n      tag_251\n      jumpi\n        /* \"#utility.yul\":8200:8201   */\n      dup1\n        /* \"#utility.yul\":8195:8198   */\n      dup3\n        /* \"#utility.yul\":8191:8202   */\n      add\n        /* \"#utility.yul\":8185:8203   */\n      mload\n        /* \"#utility.yul\":8181:8182   */\n      dup2\n        /* \"#utility.yul\":8176:8179   */\n      dup5\n        /* \"#utility.yul\":8172:8183   */\n      add\n        /* \"#utility.yul\":8165:8204   */\n      mstore\n        /* \"#utility.yul\":8137:8139   */\n      0x20\n        /* \"#utility.yul\":8134:8135   */\n      dup2\n        /* \"#utility.yul\":8130:8140   */\n      add\n        /* \"#utility.yul\":8125:8140   */\n      swap1\n      pop\n        /* \"#utility.yul\":8101:8214   */\n      jump(tag_249)\n    tag_251:\n        /* \"#utility.yul\":8248:8249   */\n      0x00\n        /* \"#utility.yul\":8239:8245   */\n      dup5\n        /* \"#utility.yul\":8234:8237   */\n      dup5\n        /* \"#utility.yul\":8230:8246   */\n      add\n        /* \"#utility.yul\":8223:8250   */\n      mstore\n        /* \"#utility.yul\":8072:8256   */\n      pop\n        /* \"#utility.yul\":8010:8256   */\n      pop\n      pop\n      pop\n      jump\t// out\n        /* \"#utility.yul\":8262:8635   */\n    tag_134:\n        /* \"#utility.yul\":8348:8351   */\n      0x00\n        /* \"#utility.yul\":8376:8414   */\n      tag_253\n        /* \"#utility.yul\":8408:8413   */\n      dup3\n        /* \"#utility.yul\":8376:8414   */\n      tag_131\n      jump\t// in\n    tag_253:\n        /* \"#utility.yul\":8430:8500   */\n      tag_254\n        /* \"#utility.yul\":8493:8499   */\n      dup2\n        /* \"#utility.yul\":8488:8491   */\n      dup6\n        /* \"#utility.yul\":8430:8500   */\n      tag_132\n      jump\t// in\n    tag_254:\n        /* \"#utility.yul\":8423:8500   */\n      swap4\n      pop\n        /* \"#utility.yul\":8509:8574   */\n      tag_255\n        /* \"#utility.yul\":8567:8573   */\n      dup2\n        /* \"#utility.yul\":8562:8565   */\n      dup6\n        /* \"#utility.yul\":8555:8559   */\n      0x20\n        /* \"#utility.yul\":8548:8553   */\n      dup7\n        /* \"#utility.yul\":8544:8560   */\n      add\n        /* \"#utility.yul\":8509:8574   */\n      tag_133\n      jump\t// in\n    tag_255:\n        /* \"#utility.yul\":8599:8628   */\n      tag_256\n        /* \"#utility.yul\":8621:8627   */\n      dup2\n        /* \"#utility.yul\":8599:8628   */\n      tag_123\n      jump\t// in\n    tag_256:\n        /* \"#utility.yul\":8594:8597   */\n      dup5\n        /* \"#utility.yul\":8590:8629   */\n      add\n        /* \"#utility.yul\":8583:8629   */\n      swap2\n      pop\n        /* \"#utility.yul\":8352:8635   */\n      pop\n        /* \"#utility.yul\":8262:8635   */\n      swap3\n      swap2\n      pop\n      pop\n      jump\t// out\n        /* \"#utility.yul\":8641:8950   */\n    tag_63:\n        /* \"#utility.yul\":8752:8756   */\n      0x00\n        /* \"#utility.yul\":8790:8792   */\n      0x20\n        /* \"#utility.yul\":8779:8788   */\n      dup3\n        /* \"#utility.yul\":8775:8793   */\n      add\n        /* \"#utility.yul\":8767:8793   */\n      swap1\n      pop\n        /* \"#utility.yul\":8839:8848   */\n      dup2\n        /* \"#utility.yul\":8833:8837   */\n      dup2\n        /* \"#utility.yul\":8829:8849   */\n      sub\n        /* \"#utility.yul\":8825:8826   */\n      0x00\n        /* \"#utility.yul\":8814:8823   */\n      dup4\n        /* \"#utility.yul\":8810:8827   */\n      add\n        /* \"#utility.yul\":8803:8850   */\n      mstore\n        /* \"#utility.yul\":8867:8943   */\n      tag_258\n        /* \"#utility.yul\":8938:8942   */\n      dup2\n        /* \"#utility.yul\":8929:8935   */\n      dup5\n        /* \"#utility.yul\":8867:8943   */\n      tag_134\n      jump\t// in\n    tag_258:\n        /* \"#utility.yul\":8859:8943   */\n      swap1\n      pop\n        /* \"#utility.yul\":8641:8950   */\n      swap3\n      swap2\n      pop\n      pop\n      jump\t// out\n        /* \"#utility.yul\":8956:9125   */\n    tag_135:\n        /* \"#utility.yul\":9040:9051   */\n      0x00\n        /* \"#utility.yul\":9074:9080   */\n      dup3\n        /* \"#utility.yul\":9069:9072   */\n      dup3\n        /* \"#utility.yul\":9062:9081   */\n      mstore\n        /* \"#utility.yul\":9114:9118   */\n      0x20\n        /* \"#utility.yul\":9109:9112   */\n      dup3\n        /* \"#utility.yul\":9105:9119   */\n      add\n        /* \"#utility.yul\":9090:9119   */\n      swap1\n      pop\n        /* \"#utility.yul\":8956:9125   */\n      swap3\n      swap2\n      pop\n      pop\n      jump\t// out\n        /* \"#utility.yul\":9131:9312   */\n    tag_136:\n        /* \"#utility.yul\":9271:9304   */\n      0x596f7520617265206e6f7420746865206f776e65722c2061626f7274696e6700\n        /* \"#utility.yul\":9267:9268   */\n      0x00\n        /* \"#utility.yul\":9259:9265   */\n      dup3\n        /* \"#utility.yul\":9255:9269   */\n      add\n        /* \"#utility.yul\":9248:9305   */\n      mstore\n        /* \"#utility.yul\":9131:9312   */\n      pop\n      jump\t// out\n        /* \"#utility.yul\":9318:9684   */\n    tag_137:\n        /* \"#utility.yul\":9460:9463   */\n      0x00\n        /* \"#utility.yul\":9481:9548   */\n      tag_262\n        /* \"#utility.yul\":9545:9547   */\n      0x1f\n        /* \"#utility.yul\":9540:9543   */\n      dup4\n        /* \"#utility.yul\":9481:9548   */\n      tag_135\n      jump\t// in\n    tag_262:\n        /* \"#utility.yul\":9474:9548   */\n      swap2\n      pop\n        /* \"#utility.yul\":9557:9650   */\n      tag_263\n        /* \"#utility.yul\":9646:9649   */\n      dup3\n        /* \"#utility.yul\":9557:9650   */\n      tag_136\n      jump\t// in\n    tag_263:\n        /* \"#utility.yul\":9675:9677   */\n      0x20\n        /* \"#utility.yul\":9670:9673   */\n      dup3\n        /* \"#utility.yul\":9666:9678   */\n      add\n        /* \"#utility.yul\":9659:9678   */\n      swap1\n      pop\n        /* \"#utility.yul\":9318:9684   */\n      swap2\n      swap1\n      pop\n      jump\t// out\n        /* \"#utility.yul\":9690:10109   */\n    tag_67:\n        /* \"#utility.yul\":9856:9860   */\n      0x00\n        /* \"#utility.yul\":9894:9896   */\n      0x20\n        /* \"#utility.yul\":9883:9892   */\n      dup3\n        /* \"#utility.yul\":9879:9897   */\n      add\n        /* \"#utility.yul\":9871:9897   */\n      swap1\n      pop\n        /* \"#utility.yul\":9943:9952   */\n      dup2\n        /* \"#utility.yul\":9937:9941   */\n      dup2\n        /* \"#utility.yul\":9933:9953   */\n      sub\n        /* \"#utility.yul\":9929:9930   */\n      0x00\n        /* \"#utility.yul\":9918:9927   */\n      dup4\n        /* \"#utility.yul\":9914:9931   */\n      add\n        /* \"#utility.yul\":9907:9954   */\n      mstore\n        /* \"#utility.yul\":9971:10102   */\n      tag_265\n        /* \"#utility.yul\":10097:10101   */\n      dup2\n        /* \"#utility.yul\":9971:10102   */\n      tag_137\n      jump\t// in\n    tag_265:\n        /* \"#utility.yul\":9963:10102   */\n      swap1\n      pop\n        /* \"#utility.yul\":9690:10109   */\n      swap2\n      swap1\n      pop\n      jump\t// out\n        /* \"#utility.yul\":10115:10349   */\n    tag_138:\n        /* \"#utility.yul\":10255:10289   */\n      0x596f7520617265206e6f74206120677561726469616e206f6620746869732077\n        /* \"#utility.yul\":10251:10252   */\n      0x00\n        /* \"#utility.yul\":10243:10249   */\n      dup3\n        /* \"#utility.yul\":10239:10253   */\n      add\n        /* \"#utility.yul\":10232:10290   */\n      mstore\n        /* \"#utility.yul\":10324:10341   */\n      0x616c6c65742c2061626f7274696e670000000000000000000000000000000000\n        /* \"#utility.yul\":10319:10321   */\n      0x20\n        /* \"#utility.yul\":10311:10317   */\n      dup3\n        /* \"#utility.yul\":10307:10322   */\n      add\n        /* \"#utility.yul\":10300:10342   */\n      mstore\n        /* \"#utility.yul\":10115:10349   */\n      pop\n      jump\t// out\n        /* \"#utility.yul\":10355:10721   */\n    tag_139:\n        /* \"#utility.yul\":10497:10500   */\n      0x00\n        /* \"#utility.yul\":10518:10585   */\n      tag_268\n        /* \"#utility.yul\":10582:10584   */\n      0x2f\n        /* \"#utility.yul\":10577:10580   */\n      dup4\n        /* \"#utility.yul\":10518:10585   */\n      tag_135\n      jump\t// in\n    tag_268:\n        /* \"#utility.yul\":10511:10585   */\n      swap2\n      pop\n        /* \"#utility.yul\":10594:10687   */\n      tag_269\n        /* \"#utility.yul\":10683:10686   */\n      dup3\n        /* \"#utility.yul\":10594:10687   */\n      tag_138\n      jump\t// in\n    tag_269:\n        /* \"#utility.yul\":10712:10714   */\n      0x40\n        /* \"#utility.yul\":10707:10710   */\n      dup3\n        /* \"#utility.yul\":10703:10715   */\n      add\n        /* \"#utility.yul\":10696:10715   */\n      swap1\n      pop\n        /* \"#utility.yul\":10355:10721   */\n      swap2\n      swap1\n      pop\n      jump\t// out\n        /* \"#utility.yul\":10727:11146   */\n    tag_76:\n        /* \"#utility.yul\":10893:10897   */\n      0x00\n        /* \"#utility.yul\":10931:10933   */\n      0x20\n        /* \"#utility.yul\":10920:10929   */\n      dup3\n        /* \"#utility.yul\":10916:10934   */\n      add\n        /* \"#utility.yul\":10908:10934   */\n      swap1\n      pop\n        /* \"#utility.yul\":10980:10989   */\n      dup2\n        /* \"#utility.yul\":10974:10978   */\n      dup2\n        /* \"#utility.yul\":10970:10990   */\n      sub\n        /* \"#utility.yul\":10966:10967   */\n      0x00\n        /* \"#utility.yul\":10955:10964   */\n      dup4\n        /* \"#utility.yul\":10951:10968   */\n      add\n        /* \"#utility.yul\":10944:10991   */\n      mstore\n        /* \"#utility.yul\":11008:11139   */\n      tag_271\n        /* \"#utility.yul\":11134:11138   */\n      dup2\n        /* \"#utility.yul\":11008:11139   */\n      tag_139\n      jump\t// in\n    tag_271:\n        /* \"#utility.yul\":11000:11139   */\n      swap1\n      pop\n        /* \"#utility.yul\":10727:11146   */\n      swap2\n      swap1\n      pop\n      jump\t// out\n        /* \"#utility.yul\":11152:11329   */\n    tag_140:\n        /* \"#utility.yul\":11292:11321   */\n      0x596f7520616c726561647920766f7465642c2061626f7274696e670000000000\n        /* \"#utility.yul\":11288:11289   */\n      0x00\n        /* \"#utility.yul\":11280:11286   */\n      dup3\n        /* \"#utility.yul\":11276:11290   */\n      add\n        /* \"#utility.yul\":11269:11322   */\n      mstore\n        /* \"#utility.yul\":11152:11329   */\n      pop\n      jump\t// out\n        /* \"#utility.yul\":11335:11701   */\n    tag_141:\n        /* \"#utility.yul\":11477:11480   */\n      0x00\n        /* \"#utility.yul\":11498:11565   */\n      tag_274\n        /* \"#utility.yul\":11562:11564   */\n      0x1b\n        /* \"#utility.yul\":11557:11560   */\n      dup4\n        /* \"#utility.yul\":11498:11565   */\n      tag_135\n      jump\t// in\n    tag_274:\n        /* \"#utility.yul\":11491:11565   */\n      swap2\n      pop\n        /* \"#utility.yul\":11574:11667   */\n      tag_275\n        /* \"#utility.yul\":11663:11666   */\n      dup3\n        /* \"#utility.yul\":11574:11667   */\n      tag_140\n      jump\t// in\n    tag_275:\n        /* \"#utility.yul\":11692:11694   */\n      0x20\n        /* \"#utility.yul\":11687:11690   */\n      dup3\n        /* \"#utility.yul\":11683:11695   */\n      add\n        /* \"#utility.yul\":11676:11695   */\n      swap1\n      pop\n        /* \"#utility.yul\":11335:11701   */\n      swap2\n      swap1\n      pop\n      jump\t// out\n        /* \"#utility.yul\":11707:12126   */\n    tag_79:\n        /* \"#utility.yul\":11873:11877   */\n      0x00\n        /* \"#utility.yul\":11911:11913   */\n      0x20\n        /* \"#utility.yul\":11900:11909   */\n      dup3\n        /* \"#utility.yul\":11896:11914   */\n      add\n        /* \"#utility.yul\":11888:11914   */\n      swap1\n      pop\n        /* \"#utility.yul\":11960:11969   */\n      dup2\n        /* \"#utility.yul\":11954:11958   */\n      dup2\n        /* \"#utility.yul\":11950:11970   */\n      sub\n        /* \"#utility.yul\":11946:11947   */\n      0x00\n        /* \"#utility.yul\":11935:11944   */\n      dup4\n        /* \"#utility.yul\":11931:11948   */\n      add\n        /* \"#utility.yul\":11924:11971   */\n      mstore\n        /* \"#utility.yul\":11988:12119   */\n      tag_277\n        /* \"#utility.yul\":12114:12118   */\n      dup2\n        /* \"#utility.yul\":11988:12119   */\n      tag_141\n      jump\t// in\n    tag_277:\n        /* \"#utility.yul\":11980:12119   */\n      swap1\n      pop\n        /* \"#utility.yul\":11707:12126   */\n      swap2\n      swap1\n      pop\n      jump\t// out\n        /* \"#utility.yul\":12132:12312   */\n    tag_142:\n        /* \"#utility.yul\":12180:12257   */\n      0x4e487b7100000000000000000000000000000000000000000000000000000000\n        /* \"#utility.yul\":12177:12178   */\n      0x00\n        /* \"#utility.yul\":12170:12258   */\n      mstore\n        /* \"#utility.yul\":12277:12281   */\n      0x11\n        /* \"#utility.yul\":12274:12275   */\n      0x04\n        /* \"#utility.yul\":12267:12282   */\n      mstore\n        /* \"#utility.yul\":12301:12305   */\n      0x24\n        /* \"#utility.yul\":12298:12299   */\n      0x00\n        /* \"#utility.yul\":12291:12306   */\n      revert\n        /* \"#utility.yul\":12318:12551   */\n    tag_82:\n        /* \"#utility.yul\":12357:12360   */\n      0x00\n        /* \"#utility.yul\":12380:12404   */\n      tag_280\n        /* \"#utility.yul\":12398:12403   */\n      dup3\n        /* \"#utility.yul\":12380:12404   */\n      tag_111\n      jump\t// in\n    tag_280:\n        /* \"#utility.yul\":12371:12404   */\n      swap2\n      pop\n        /* \"#utility.yul\":12426:12492   */\n      0xffffffffffffffffffffffffffffffffffffffffffffffffffffffffffffffff\n        /* \"#utility.yul\":12419:12424   */\n      dup3\n        /* \"#utility.yul\":12416:12493   */\n      sub\n        /* \"#utility.yul\":12413:12516   */\n      tag_281\n      jumpi\n        /* \"#utility.yul\":12496:12514   */\n      tag_282\n      tag_142\n      jump\t// in\n    tag_282:\n        /* \"#utility.yul\":12413:12516   */\n    tag_281:\n        /* \"#utility.yul\":12543:12544   */\n      0x01\n        /* \"#utility.yul\":12536:12541   */\n      dup3\n        /* \"#utility.yul\":12532:12545   */\n      add\n        /* \"#utility.yul\":12525:12545   */\n      swap1\n      pop\n        /* \"#utility.yul\":12318:12551   */\n      swap2\n      swap1\n      pop\n      jump\t// out\n        /* \"#utility.yul\":12557:12852   */\n    tag_143:\n        /* \"#utility.yul\":12697:12731   */\n      0x596f7520617265206e6f7420616c6c6f77656420746f2073656e6420616e7974\n        /* \"#utility.yul\":12693:12694   */\n      0x00\n        /* \"#utility.yul\":12685:12691   */\n      dup3\n        /* \"#utility.yul\":12681:12695   */\n      add\n        /* \"#utility.yul\":12674:12732   */\n      mstore\n        /* \"#utility.yul\":12766:12800   */\n      0x68696e672066726f6d207468697320736d61727420636f6e74726163742c2061\n        /* \"#utility.yul\":12761:12763   */\n      0x20\n        /* \"#utility.yul\":12753:12759   */\n      dup3\n        /* \"#utility.yul\":12749:12764   */\n      add\n        /* \"#utility.yul\":12742:12801   */\n      mstore\n        /* \"#utility.yul\":12835:12844   */\n      0x626f7274696e6700000000000000000000000000000000000000000000000000\n        /* \"#utility.yul\":12830:12832   */\n      0x40\n        /* \"#utility.yul\":12822:12828   */\n      dup3\n        /* \"#utility.yul\":12818:12833   */\n      add\n        /* \"#utility.yul\":12811:12845   */\n      mstore\n        /* \"#utility.yul\":12557:12852   */\n      pop\n      jump\t// out\n        /* \"#utility.yul\":12858:13224   */\n    tag_144:\n        /* \"#utility.yul\":13000:13003   */\n      0x00\n        /* \"#utility.yul\":13021:13088   */\n      tag_285\n        /* \"#utility.yul\":13085:13087   */\n      0x47\n        /* \"#utility.yul\":13080:13083   */\n      dup4\n        /* \"#utility.yul\":13021:13088   */\n      tag_135\n      jump\t// in\n    tag_285:\n        /* \"#utility.yul\":13014:13088   */\n      swap2\n      pop\n        /* \"#utility.yul\":13097:13190   */\n      tag_286\n        /* \"#utility.yul\":13186:13189   */\n      dup3\n        /* \"#utility.yul\":13097:13190   */\n      tag_143\n      jump\t// in\n    tag_286:\n        /* \"#utility.yul\":13215:13217   */\n      0x60\n        /* \"#utility.yul\":13210:13213   */\n      dup3\n        /* \"#utility.yul\":13206:13218   */\n      add\n        /* \"#utility.yul\":13199:13218   */\n      swap1\n      pop\n        /* \"#utility.yul\":12858:13224   */\n      swap2\n      swap1\n      pop\n      jump\t// out\n        /* \"#utility.yul\":13230:13649   */\n    tag_88:\n        /* \"#utility.yul\":13396:13400   */\n      0x00\n        /* \"#utility.yul\":13434:13436   */\n      0x20\n        /* \"#utility.yul\":13423:13432   */\n      dup3\n        /* \"#utility.yul\":13419:13437   */\n      add\n        /* \"#utility.yul\":13411:13437   */\n      swap1\n      pop\n        /* \"#utility.yul\":13483:13492   */\n      dup2\n        /* \"#utility.yul\":13477:13481   */\n      dup2\n        /* \"#utility.yul\":13473:13493   */\n      sub\n        /* \"#utility.yul\":13469:13470   */\n      0x00\n        /* \"#utility.yul\":13458:13467   */\n      dup4\n        /* \"#utility.yul\":13454:13471   */\n      add\n        /* \"#utility.yul\":13447:13494   */\n      mstore\n        /* \"#utility.yul\":13511:13642   */\n      tag_288\n        /* \"#utility.yul\":13637:13641   */\n      dup2\n        /* \"#utility.yul\":13511:13642   */\n      tag_144\n      jump\t// in\n    tag_288:\n        /* \"#utility.yul\":13503:13642   */\n      swap1\n      pop\n        /* \"#utility.yul\":13230:13649   */\n      swap2\n      swap1\n      pop\n      jump\t// out\n        /* \"#utility.yul\":13655:13903   */\n    tag_145:\n        /* \"#utility.yul\":13795:13829   */\n      0x596f752061726520747279696e6720746f2073656e64206d6f7265207468616e\n        /* \"#utility.yul\":13791:13792   */\n      0x00\n        /* \"#utility.yul\":13783:13789   */\n      dup3\n        /* \"#utility.yul\":13779:13793   */\n      add\n        /* \"#utility.yul\":13772:13830   */\n      mstore\n        /* \"#utility.yul\":13864:13895   */\n      0x20796f752061726520616c6c6f77656420746f2c2061626f7274696e67000000\n        /* \"#utility.yul\":13859:13861   */\n      0x20\n        /* \"#utility.yul\":13851:13857   */\n      dup3\n        /* \"#utility.yul\":13847:13862   */\n      add\n        /* \"#utility.yul\":13840:13896   */\n      mstore\n        /* \"#utility.yul\":13655:13903   */\n      pop\n      jump\t// out\n        /* \"#utility.yul\":13909:14275   */\n    tag_146:\n        /* \"#utility.yul\":14051:14054   */\n      0x00\n        /* \"#utility.yul\":14072:14139   */\n      tag_291\n        /* \"#utility.yul\":14136:14138   */\n      0x3d\n        /* \"#utility.yul\":14131:14134   */\n      dup4\n        /* \"#utility.yul\":14072:14139   */\n      tag_135\n      jump\t// in\n    tag_291:\n        /* \"#utility.yul\":14065:14139   */\n      swap2\n      pop\n        /* \"#utility.yul\":14148:14241   */\n      tag_292\n        /* \"#utility.yul\":14237:14240   */\n      dup3\n        /* \"#utility.yul\":14148:14241   */\n      tag_145\n      jump\t// in\n    tag_292:\n        /* \"#utility.yul\":14266:14268   */\n      0x40\n        /* \"#utility.yul\":14261:14264   */\n      dup3\n        /* \"#utility.yul\":14257:14269   */\n      add\n        /* \"#utility.yul\":14250:14269   */\n      swap1\n      pop\n        /* \"#utility.yul\":13909:14275   */\n      swap2\n      swap1\n      pop\n      jump\t// out\n        /* \"#utility.yul\":14281:14700   */\n    tag_91:\n        /* \"#utility.yul\":14447:14451   */\n      0x00\n        /* \"#utility.yul\":14485:14487   */\n      0x20\n        /* \"#utility.yul\":14474:14483   */\n      dup3\n        /* \"#utility.yul\":14470:14488   */\n      add\n        /* \"#utility.yul\":14462:14488   */\n      swap1\n      pop\n        /* \"#utility.yul\":14534:14543   */\n      dup2\n        /* \"#utility.yul\":14528:14532   */\n      dup2\n        /* \"#utility.yul\":14524:14544   */\n      sub\n        /* \"#utility.yul\":14520:14521   */\n      0x00\n        /* \"#utility.yul\":14509:14518   */\n      dup4\n        /* \"#utility.yul\":14505:14522   */\n      add\n        /* \"#utility.yul\":14498:14545   */\n      mstore\n        /* \"#utility.yul\":14562:14693   */\n      tag_294\n        /* \"#utility.yul\":14688:14692   */\n      dup2\n        /* \"#utility.yul\":14562:14693   */\n      tag_146\n      jump\t// in\n    tag_294:\n        /* \"#utility.yul\":14554:14693   */\n      swap1\n      pop\n        /* \"#utility.yul\":14281:14700   */\n      swap2\n      swap1\n      pop\n      jump\t// out\n        /* \"#utility.yul\":14706:14900   */\n    tag_93:\n        /* \"#utility.yul\":14746:14750   */\n      0x00\n        /* \"#utility.yul\":14766:14786   */\n      tag_296\n        /* \"#utility.yul\":14784:14785   */\n      dup3\n        /* \"#utility.yul\":14766:14786   */\n      tag_111\n      jump\t// in\n    tag_296:\n        /* \"#utility.yul\":14761:14786   */\n      swap2\n      pop\n        /* \"#utility.yul\":14800:14820   */\n      tag_297\n        /* \"#utility.yul\":14818:14819   */\n      dup4\n        /* \"#utility.yul\":14800:14820   */\n      tag_111\n      jump\t// in\n    tag_297:\n        /* \"#utility.yul\":14795:14820   */\n      swap3\n      pop\n        /* \"#utility.yul\":14844:14845   */\n      dup3\n        /* \"#utility.yul\":14841:14842   */\n      dup3\n        /* \"#utility.yul\":14837:14846   */\n      sub\n        /* \"#utility.yul\":14829:14846   */\n      swap1\n      pop\n        /* \"#utility.yul\":14868:14869   */\n      dup2\n        /* \"#utility.yul\":14862:14866   */\n      dup2\n        /* \"#utility.yul\":14859:14870   */\n      gt\n        /* \"#utility.yul\":14856:14893   */\n      iszero\n      tag_298\n      jumpi\n        /* \"#utility.yul\":14873:14891   */\n      tag_299\n      tag_142\n      jump\t// in\n    tag_299:\n        /* \"#utility.yul\":14856:14893   */\n    tag_298:\n        /* \"#utility.yul\":14706:14900   */\n      swap3\n      swap2\n      pop\n      pop\n      jump\t// out\n        /* \"#utility.yul\":14906:15053   */\n    tag_147:\n        /* \"#utility.yul\":15007:15018   */\n      0x00\n        /* \"#utility.yul\":15044:15047   */\n      dup2\n        /* \"#utility.yul\":15029:15047   */\n      swap1\n      pop\n        /* \"#utility.yul\":14906:15053   */\n      swap3\n      swap2\n      pop\n      pop\n      jump\t// out\n        /* \"#utility.yul\":15059:15445   */\n    tag_148:\n        /* \"#utility.yul\":15163:15166   */\n      0x00\n        /* \"#utility.yul\":15191:15229   */\n      tag_302\n        /* \"#utility.yul\":15223:15228   */\n      dup3\n        /* \"#utility.yul\":15191:15229   */\n      tag_131\n      jump\t// in\n    tag_302:\n        /* \"#utility.yul\":15245:15333   */\n      tag_303\n        /* \"#utility.yul\":15326:15332   */\n      dup2\n        /* \"#utility.yul\":15321:15324   */\n      dup6\n        /* \"#utility.yul\":15245:15333   */\n      tag_147\n      jump\t// in\n    tag_303:\n        /* \"#utility.yul\":15238:15333   */\n      swap4\n      pop\n        /* \"#utility.yul\":15342:15407   */\n      tag_304\n        /* \"#utility.yul\":15400:15406   */\n      dup2\n        /* \"#utility.yul\":15395:15398   */\n      dup6\n        /* \"#utility.yul\":15388:15392   */\n      0x20\n        /* \"#utility.yul\":15381:15386   */\n      dup7\n        /* \"#utility.yul\":15377:15393   */\n      add\n        /* \"#utility.yul\":15342:15407   */\n      tag_133\n      jump\t// in\n    tag_304:\n        /* \"#utility.yul\":15432:15438   */\n      dup1\n        /* \"#utility.yul\":15427:15430   */\n      dup5\n        /* \"#utility.yul\":15423:15439   */\n      add\n        /* \"#utility.yul\":15416:15439   */\n      swap2\n      pop\n        /* \"#utility.yul\":15167:15445   */\n      pop\n        /* \"#utility.yul\":15059:15445   */\n      swap3\n      swap2\n      pop\n      pop\n      jump\t// out\n        /* \"#utility.yul\":15451:15722   */\n    tag_95:\n        /* \"#utility.yul\":15581:15584   */\n      0x00\n        /* \"#utility.yul\":15603:15696   */\n      tag_306\n        /* \"#utility.yul\":15692:15695   */\n      dup3\n        /* \"#utility.yul\":15683:15689   */\n      dup5\n        /* \"#utility.yul\":15603:15696   */\n      tag_148\n      jump\t// in\n    tag_306:\n        /* \"#utility.yul\":15596:15696   */\n      swap2\n      pop\n        /* \"#utility.yul\":15713:15716   */\n      dup2\n        /* \"#utility.yul\":15706:15716   */\n      swap1\n      pop\n        /* \"#utility.yul\":15451:15722   */\n      swap3\n      swap2\n      pop\n      pop\n      jump\t// out\n        /* \"#utility.yul\":15728:15948   */\n    tag_149:\n        /* \"#utility.yul\":15868:15902   */\n      0x41626f7274696e672c2063616c6c20776173206e6f7420737563636573736675\n        /* \"#utility.yul\":15864:15865   */\n      0x00\n        /* \"#utility.yul\":15856:15862   */\n      dup3\n        /* \"#utility.yul\":15852:15866   */\n      add\n        /* \"#utility.yul\":15845:15903   */\n      mstore\n        /* \"#utility.yul\":15937:15940   */\n      0x6c00000000000000000000000000000000000000000000000000000000000000\n        /* \"#utility.yul\":15932:15934   */\n      0x20\n        /* \"#utility.yul\":15924:15930   */\n      dup3\n        /* \"#utility.yul\":15920:15935   */\n      add\n        /* \"#utility.yul\":15913:15941   */\n      mstore\n        /* \"#utility.yul\":15728:15948   */\n      pop\n      jump\t// out\n        /* \"#utility.yul\":15954:16320   */\n    tag_150:\n        /* \"#utility.yul\":16096:16099   */\n      0x00\n        /* \"#utility.yul\":16117:16184   */\n      tag_309\n        /* \"#utility.yul\":16181:16183   */\n      0x21\n        /* \"#utility.yul\":16176:16179   */\n      dup4\n        /* \"#utility.yul\":16117:16184   */\n      tag_135\n      jump\t// in\n    tag_309:\n        /* \"#utility.yul\":16110:16184   */\n      swap2\n      pop\n        /* \"#utility.yul\":16193:16286   */\n      tag_310\n        /* \"#utility.yul\":16282:16285   */\n      dup3\n        /* \"#utility.yul\":16193:16286   */\n      tag_149\n      jump\t// in\n    tag_310:\n        /* \"#utility.yul\":16311:16313   */\n      0x40\n        /* \"#utility.yul\":16306:16309   */\n      dup3\n        /* \"#utility.yul\":16302:16314   */\n      add\n        /* \"#utility.yul\":16295:16314   */\n      swap1\n      pop\n        /* \"#utility.yul\":15954:16320   */\n      swap2\n      swap1\n      pop\n      jump\t// out\n        /* \"#utility.yul\":16326:16745   */\n    tag_101:\n        /* \"#utility.yul\":16492:16496   */\n      0x00\n        /* \"#utility.yul\":16530:16532   */\n      0x20\n        /* \"#utility.yul\":16519:16528   */\n      dup3\n        /* \"#utility.yul\":16515:16533   */\n      add\n        /* \"#utility.yul\":16507:16533   */\n      swap1\n      pop\n        /* \"#utility.yul\":16579:16588   */\n      dup2\n        /* \"#utility.yul\":16573:16577   */\n      dup2\n        /* \"#utility.yul\":16569:16589   */\n      sub\n        /* \"#utility.yul\":16565:16566   */\n      0x00\n        /* \"#utility.yul\":16554:16563   */\n      dup4\n        /* \"#utility.yul\":16550:16567   */\n      add\n        /* \"#utility.yul\":16543:16590   */\n      mstore\n        /* \"#utility.yul\":16607:16738   */\n      tag_312\n        /* \"#utility.yul\":16733:16737   */\n      dup2\n        /* \"#utility.yul\":16607:16738   */\n      tag_150\n      jump\t// in\n    tag_312:\n        /* \"#utility.yul\":16599:16738   */\n      swap1\n      pop\n        /* \"#utility.yul\":16326:16745   */\n      swap2\n      swap1\n      pop\n      jump\t// out\n\n    auxdata: 0xa2646970667358221220971016f70276f85ada9978a94d496aa6d6159eeca025ed6cac5a75a424b469c364736f6c63430008100033\n}\n",
				"bytecode": {
					"linkReferences": {},
					"object": "608060405234801561001057600080fd5b50336000806101000a81548173ffffffffffffffffffffffffffffffffffffffff021916908373ffffffffffffffffffffffffffffffffffffffff1602179055506113ec806100606000396000f3fe60806040526004361061008a5760003560e01c806383012be11161005957806383012be1146101765780638da5cb5b146101a1578063a364c09f146101cc578063b1f8100d146101f5578063be45fd621461021e57610091565b80630633b14a146100965780630bc605ad146100d3578063310ec4a7146101105780633e5beab91461013957610091565b3661009157005b600080fd5b3480156100a257600080fd5b506100bd60048036038101906100b89190610b07565b61025b565b6040516100ca9190610b4f565b60405180910390f35b3480156100df57600080fd5b506100fa60048036038101906100f59190610b07565b61027b565b6040516101079190610b4f565b60405180910390f35b34801561011c57600080fd5b5061013760048036038101906101329190610ba0565b61029b565b005b34801561014557600080fd5b50610160600480360381019061015b9190610b07565b610430565b60405161016d9190610bef565b60405180910390f35b34801561018257600080fd5b5061018b610448565b6040516101989190610bef565b60405180910390f35b3480156101ad57600080fd5b506101b661044d565b6040516101c39190610c2b565b60405180910390f35b3480156101d857600080fd5b506101f360048036038101906101ee9190610c72565b610471565b005b34801561020157600080fd5b5061021c60048036038101906102179190610cde565b61055a565b005b34801561022a57600080fd5b5061024560048036038101906102409190610e51565b61081f565b6040516102529190610f3f565b60405180910390f35b60036020528060005260406000206000915054906101000a900460ff1681565b60026020528060005260406000206000915054906101000a900460ff1681565b60008054906101000a900473ffffffffffffffffffffffffffffffffffffffff1673ffffffffffffffffffffffffffffffffffffffff163373ffffffffffffffffffffffffffffffffffffffff1614610329576040517f08c379a000000000000000000000000000000000000000000000000000000000815260040161032090610fbe565b60405180910390fd5b80600160008473ffffffffffffffffffffffffffffffffffffffff1673ffffffffffffffffffffffffffffffffffffffff1681526020019081526020016000208190555060008111156103d3576001600260008473ffffffffffffffffffffffffffffffffffffffff1673ffffffffffffffffffffffffffffffffffffffff16815260200190815260200160002060006101000a81548160ff02191690831515021790555061042c565b6000600260008473ffffffffffffffffffffffffffffffffffffffff1673ffffffffffffffffffffffffffffffffffffffff16815260200190815260200160002060006101000a81548160ff0219169083151502179055505b5050565b60016020528060005260406000206000915090505481565b600381565b60008054906101000a900473ffffffffffffffffffffffffffffffffffffffff1681565b60008054906101000a900473ffffffffffffffffffffffffffffffffffffffff1673ffffffffffffffffffffffffffffffffffffffff163373ffffffffffffffffffffffffffffffffffffffff16146104ff576040517f08c379a00000000000000000000000000000000000000000000000000000000081526004016104f690610fbe565b60405180910390fd5b80600360008473ffffffffffffffffffffffffffffffffffffffff1673ffffffffffffffffffffffffffffffffffffffff16815260200190815260200160002060006101000a81548160ff0219169083151502179055505050565b600360003373ffffffffffffffffffffffffffffffffffffffff1673ffffffffffffffffffffffffffffffffffffffff16815260200190815260200160002060009054906101000a900460ff166105e6576040517f08c379a00000000000000000000000000000000000000000000000000000000081526004016105dd90611050565b60405180910390fd5b60001515600560008373ffffffffffffffffffffffffffffffffffffffff1673ffffffffffffffffffffffffffffffffffffffff16815260200190815260200160002060003373ffffffffffffffffffffffffffffffffffffffff1673ffffffffffffffffffffffffffffffffffffffff16815260200190815260200160002060009054906101000a900460ff161515146106b6576040517f08c379a00000000000000000000000000000000000000000000000000000000081526004016106ad906110bc565b60405180910390fd5b600460009054906101000a900473ffffffffffffffffffffffffffffffffffffffff1673ffffffffffffffffffffffffffffffffffffffff168173ffffffffffffffffffffffffffffffffffffffff16146107555780600460006101000a81548173ffffffffffffffffffffffffffffffffffffffff021916908373ffffffffffffffffffffffffffffffffffffffff16021790555060006006819055505b600660008154809291906107689061110b565b919050555060036006541061081c57600460009054906101000a900473ffffffffffffffffffffffffffffffffffffffff166000806101000a81548173ffffffffffffffffffffffffffffffffffffffff021916908373ffffffffffffffffffffffffffffffffffffffff1602179055506000600460006101000a81548173ffffffffffffffffffffffffffffffffffffffff021916908373ffffffffffffffffffffffffffffffffffffffff1602179055505b50565b606060008054906101000a900473ffffffffffffffffffffffffffffffffffffffff1673ffffffffffffffffffffffffffffffffffffffff163373ffffffffffffffffffffffffffffffffffffffff16146109d957600260003373ffffffffffffffffffffffffffffffffffffffff1673ffffffffffffffffffffffffffffffffffffffff16815260200190815260200160002060009054906101000a900460ff16610900576040517f08c379a00000000000000000000000000000000000000000000000000000000081526004016108f7906111eb565b60405180910390fd5b82600160003373ffffffffffffffffffffffffffffffffffffffff1673ffffffffffffffffffffffffffffffffffffffff168152602001908152602001600020541015610982576040517f08c379a00000000000000000000000000000000000000000000000000000000081526004016109799061127d565b60405180910390fd5b82600160003373ffffffffffffffffffffffffffffffffffffffff1673ffffffffffffffffffffffffffffffffffffffff16815260200190815260200160002060008282546109d1919061129d565b925050819055505b6000808573ffffffffffffffffffffffffffffffffffffffff168585604051610a02919061130d565b60006040518083038185875af1925050503d8060008114610a3f576040519150601f19603f3d011682016040523d82523d6000602084013e610a44565b606091505b509150915081610a89576040517f08c379a0000000000000000000000000000000000000000000000000000000008152600401610a8090611396565b60405180910390fd5b80925050509392505050565b6000604051905090565b600080fd5b600080fd5b600073ffffffffffffffffffffffffffffffffffffffff82169050919050565b6000610ad482610aa9565b9050919050565b610ae481610ac9565b8114610aef57600080fd5b50565b600081359050610b0181610adb565b92915050565b600060208284031215610b1d57610b1c610a9f565b5b6000610b2b84828501610af2565b91505092915050565b60008115159050919050565b610b4981610b34565b82525050565b6000602082019050610b646000830184610b40565b92915050565b6000819050919050565b610b7d81610b6a565b8114610b8857600080fd5b50565b600081359050610b9a81610b74565b92915050565b60008060408385031215610bb757610bb6610a9f565b5b6000610bc585828601610af2565b9250506020610bd685828601610b8b565b9150509250929050565b610be981610b6a565b82525050565b6000602082019050610c046000830184610be0565b92915050565b6000610c1582610aa9565b9050919050565b610c2581610c0a565b82525050565b6000602082019050610c406000830184610c1c565b92915050565b610c4f81610b34565b8114610c5a57600080fd5b50565b600081359050610c6c81610c46565b92915050565b60008060408385031215610c8957610c88610a9f565b5b6000610c9785828601610af2565b9250506020610ca885828601610c5d565b9150509250929050565b610cbb81610c0a565b8114610cc657600080fd5b50565b600081359050610cd881610cb2565b92915050565b600060208284031215610cf457610cf3610a9f565b5b6000610d0284828501610cc9565b91505092915050565b600080fd5b600080fd5b6000601f19601f8301169050919050565b7f4e487b7100000000000000000000000000000000000000000000000000000000600052604160045260246000fd5b610d5e82610d15565b810181811067ffffffffffffffff82111715610d7d57610d7c610d26565b5b80604052505050565b6000610d90610a95565b9050610d9c8282610d55565b919050565b600067ffffffffffffffff821115610dbc57610dbb610d26565b5b610dc582610d15565b9050602081019050919050565b82818337600083830152505050565b6000610df4610def84610da1565b610d86565b905082815260208101848484011115610e1057610e0f610d10565b5b610e1b848285610dd2565b509392505050565b600082601f830112610e3857610e37610d0b565b5b8135610e48848260208601610de1565b91505092915050565b600080600060608486031215610e6a57610e69610a9f565b5b6000610e7886828701610cc9565b9350506020610e8986828701610b8b565b925050604084013567ffffffffffffffff811115610eaa57610ea9610aa4565b5b610eb686828701610e23565b9150509250925092565b600081519050919050565b600082825260208201905092915050565b60005b83811015610efa578082015181840152602081019050610edf565b60008484015250505050565b6000610f1182610ec0565b610f1b8185610ecb565b9350610f2b818560208601610edc565b610f3481610d15565b840191505092915050565b60006020820190508181036000830152610f598184610f06565b905092915050565b600082825260208201905092915050565b7f596f7520617265206e6f7420746865206f776e65722c2061626f7274696e6700600082015250565b6000610fa8601f83610f61565b9150610fb382610f72565b602082019050919050565b60006020820190508181036000830152610fd781610f9b565b9050919050565b7f596f7520617265206e6f74206120677561726469616e206f662074686973207760008201527f616c6c65742c2061626f7274696e670000000000000000000000000000000000602082015250565b600061103a602f83610f61565b915061104582610fde565b604082019050919050565b600060208201905081810360008301526110698161102d565b9050919050565b7f596f7520616c726561647920766f7465642c2061626f7274696e670000000000600082015250565b60006110a6601b83610f61565b91506110b182611070565b602082019050919050565b600060208201905081810360008301526110d581611099565b9050919050565b7f4e487b7100000000000000000000000000000000000000000000000000000000600052601160045260246000fd5b600061111682610b6a565b91507fffffffffffffffffffffffffffffffffffffffffffffffffffffffffffffffff8203611148576111476110dc565b5b600182019050919050565b7f596f7520617265206e6f7420616c6c6f77656420746f2073656e6420616e797460008201527f68696e672066726f6d207468697320736d61727420636f6e74726163742c206160208201527f626f7274696e6700000000000000000000000000000000000000000000000000604082015250565b60006111d5604783610f61565b91506111e082611153565b606082019050919050565b60006020820190508181036000830152611204816111c8565b9050919050565b7f596f752061726520747279696e6720746f2073656e64206d6f7265207468616e60008201527f20796f752061726520616c6c6f77656420746f2c2061626f7274696e67000000602082015250565b6000611267603d83610f61565b91506112728261120b565b604082019050919050565b600060208201905081810360008301526112968161125a565b9050919050565b60006112a882610b6a565b91506112b383610b6a565b92508282039050818111156112cb576112ca6110dc565b5b92915050565b600081905092915050565b60006112e782610ec0565b6112f181856112d1565b9350611301818560208601610edc565b80840191505092915050565b600061131982846112dc565b915081905092915050565b7f41626f7274696e672c2063616c6c20776173206e6f742073756363657373667560008201527f6c00000000000000000000000000000000000000000000000000000000000000602082015250565b6000611380602183610f61565b915061138b82611324565b604082019050919050565b600060208201905081810360008301526113af81611373565b905091905056fea2646970667358221220971016f70276f85ada9978a94d496aa6d6159eeca025ed6cac5a75a424b469c364736f6c63430008100033",
					"opcodes": "PUSH1 0x80 PUSH1 0x40 MSTORE CALLVALUE DUP1 ISZERO PUSH2 0x10 JUMPI PUSH1 0x0 DUP1 REVERT JUMPDEST POP CALLER PUSH1 0x0 DUP1 PUSH2 0x100 EXP DUP2 SLOAD DUP2 PUSH20 0xFFFFFFFFFFFFFFFFFFFFFFFFFFFFFFFFFFFFFFFF MUL NOT AND SWAP1 DUP4 PUSH20 0xFFFFFFFFFFFFFFFFFFFFFFFFFFFFFFFFFFFFFFFF AND MUL OR SWAP1 SSTORE POP PUSH2 0x13EC DUP1 PUSH2 0x60 PUSH1 0x0 CODECOPY PUSH1 0x0 RETURN INVALID PUSH1 0x80 PUSH1 0x40 MSTORE PUSH1 0x4 CALLDATASIZE LT PUSH2 0x8A JUMPI PUSH1 0x0 CALLDATALOAD PUSH1 0xE0 SHR DUP1 PUSH4 0x83012BE1 GT PUSH2 0x59 JUMPI DUP1 PUSH4 0x83012BE1 EQ PUSH2 0x176 JUMPI DUP1 PUSH4 0x8DA5CB5B EQ PUSH2 0x1A1 JUMPI DUP1 PUSH4 0xA364C09F EQ PUSH2 0x1CC JUMPI DUP1 PUSH4 0xB1F8100D EQ PUSH2 0x1F5 JUMPI DUP1 PUSH4 0xBE45FD62 EQ PUSH2 0x21E JUMPI PUSH2 0x91 JUMP JUMPDEST DUP1 PUSH4 0x633B14A EQ PUSH2 0x96 JUMPI DUP1 PUSH4 0xBC605AD EQ PUSH2 0xD3 JUMPI DUP1 PUSH4 0x310EC4A7 EQ PUSH2 0x110 JUMPI DUP1 PUSH4 0x3E5BEAB9 EQ PUSH2 0x139 JUMPI PUSH2 0x91 JUMP JUMPDEST CALLDATASIZE PUSH2 0x91 JUMPI STOP JUMPDEST PUSH1 0x0 DUP1 REVERT JUMPDEST CALLVALUE DUP1 ISZERO PUSH2 0xA2 JUMPI PUSH1 0x0 DUP1 REVERT JUMPDEST POP PUSH2 0xBD PUSH1 0x4 DUP1 CALLDATASIZE SUB DUP2 ADD SWAP1 PUSH2 0xB8 SWAP2 SWAP1 PUSH2 0xB07 JUMP JUMPDEST PUSH2 0x25B JUMP JUMPDEST PUSH1 0x40 MLOAD PUSH2 0xCA SWAP2 SWAP1 PUSH2 0xB4F JUMP JUMPDEST PUSH1 0x40 MLOAD DUP1 SWAP2 SUB SWAP1 RETURN JUMPDEST CALLVALUE DUP1 ISZERO PUSH2 0xDF JUMPI PUSH1 0x0 DUP1 REVERT JUMPDEST POP PUSH2 0xFA PUSH1 0x4 DUP1 CALLDATASIZE SUB DUP2 ADD SWAP1 PUSH2 0xF5 SWAP2 SWAP1 PUSH2 0xB07 JUMP JUMPDEST PUSH2 0x27B JUMP JUMPDEST PUSH1 0x40 MLOAD PUSH2 0x107 SWAP2 SWAP1 PUSH2 0xB4F JUMP JUMPDEST PUSH1 0x40 MLOAD DUP1 SWAP2 SUB SWAP1 RETURN JUMPDEST CALLVALUE DUP1 ISZERO PUSH2 0x11C JUMPI PUSH1 0x0 DUP1 REVERT JUMPDEST POP PUSH2 0x137 PUSH1 0x4 DUP1 CALLDATASIZE SUB DUP2 ADD SWAP1 PUSH2 0x132 SWAP2 SWAP1 PUSH2 0xBA0 JUMP JUMPDEST PUSH2 0x29B JUMP JUMPDEST STOP JUMPDEST CALLVALUE DUP1 ISZERO PUSH2 0x145 JUMPI PUSH1 0x0 DUP1 REVERT JUMPDEST POP PUSH2 0x160 PUSH1 0x4 DUP1 CALLDATASIZE SUB DUP2 ADD SWAP1 PUSH2 0x15B SWAP2 SWAP1 PUSH2 0xB07 JUMP JUMPDEST PUSH2 0x430 JUMP JUMPDEST PUSH1 0x40 MLOAD PUSH2 0x16D SWAP2 SWAP1 PUSH2 0xBEF JUMP JUMPDEST PUSH1 0x40 MLOAD DUP1 SWAP2 SUB SWAP1 RETURN JUMPDEST CALLVALUE DUP1 ISZERO PUSH2 0x182 JUMPI PUSH1 0x0 DUP1 REVERT JUMPDEST POP PUSH2 0x18B PUSH2 0x448 JUMP JUMPDEST PUSH1 0x40 MLOAD PUSH2 0x198 SWAP2 SWAP1 PUSH2 0xBEF JUMP JUMPDEST PUSH1 0x40 MLOAD DUP1 SWAP2 SUB SWAP1 RETURN JUMPDEST CALLVALUE DUP1 ISZERO PUSH2 0x1AD JUMPI PUSH1 0x0 DUP1 REVERT JUMPDEST POP PUSH2 0x1B6 PUSH2 0x44D JUMP JUMPDEST PUSH1 0x40 MLOAD PUSH2 0x1C3 SWAP2 SWAP1 PUSH2 0xC2B JUMP JUMPDEST PUSH1 0x40 MLOAD DUP1 SWAP2 SUB SWAP1 RETURN JUMPDEST CALLVALUE DUP1 ISZERO PUSH2 0x1D8 JUMPI PUSH1 0x0 DUP1 REVERT JUMPDEST POP PUSH2 0x1F3 PUSH1 0x4 DUP1 CALLDATASIZE SUB DUP2 ADD SWAP1 PUSH2 0x1EE SWAP2 SWAP1 PUSH2 0xC72 JUMP JUMPDEST PUSH2 0x471 JUMP JUMPDEST STOP JUMPDEST CALLVALUE DUP1 ISZERO PUSH2 0x201 JUMPI PUSH1 0x0 DUP1 REVERT JUMPDEST POP PUSH2 0x21C PUSH1 0x4 DUP1 CALLDATASIZE SUB DUP2 ADD SWAP1 PUSH2 0x217 SWAP2 SWAP1 PUSH2 0xCDE JUMP JUMPDEST PUSH2 0x55A JUMP JUMPDEST STOP JUMPDEST CALLVALUE DUP1 ISZERO PUSH2 0x22A JUMPI PUSH1 0x0 DUP1 REVERT JUMPDEST POP PUSH2 0x245 PUSH1 0x4 DUP1 CALLDATASIZE SUB DUP2 ADD SWAP1 PUSH2 0x240 SWAP2 SWAP1 PUSH2 0xE51 JUMP JUMPDEST PUSH2 0x81F JUMP JUMPDEST PUSH1 0x40 MLOAD PUSH2 0x252 SWAP2 SWAP1 PUSH2 0xF3F JUMP JUMPDEST PUSH1 0x40 MLOAD DUP1 SWAP2 SUB SWAP1 RETURN JUMPDEST PUSH1 0x3 PUSH1 0x20 MSTORE DUP1 PUSH1 0x0 MSTORE PUSH1 0x40 PUSH1 0x0 KECCAK256 PUSH1 0x0 SWAP2 POP SLOAD SWAP1 PUSH2 0x100 EXP SWAP1 DIV PUSH1 0xFF AND DUP2 JUMP JUMPDEST PUSH1 0x2 PUSH1 0x20 MSTORE DUP1 PUSH1 0x0 MSTORE PUSH1 0x40 PUSH1 0x0 KECCAK256 PUSH1 0x0 SWAP2 POP SLOAD SWAP1 PUSH2 0x100 EXP SWAP1 DIV PUSH1 0xFF AND DUP2 JUMP JUMPDEST PUSH1 0x0 DUP1 SLOAD SWAP1 PUSH2 0x100 EXP SWAP1 DIV PUSH20 0xFFFFFFFFFFFFFFFFFFFFFFFFFFFFFFFFFFFFFFFF AND PUSH20 0xFFFFFFFFFFFFFFFFFFFFFFFFFFFFFFFFFFFFFFFF AND CALLER PUSH20 0xFFFFFFFFFFFFFFFFFFFFFFFFFFFFFFFFFFFFFFFF AND EQ PUSH2 0x329 JUMPI PUSH1 0x40 MLOAD PUSH32 0x8C379A000000000000000000000000000000000000000000000000000000000 DUP2 MSTORE PUSH1 0x4 ADD PUSH2 0x320 SWAP1 PUSH2 0xFBE JUMP JUMPDEST PUSH1 0x40 MLOAD DUP1 SWAP2 SUB SWAP1 REVERT JUMPDEST DUP1 PUSH1 0x1 PUSH1 0x0 DUP5 PUSH20 0xFFFFFFFFFFFFFFFFFFFFFFFFFFFFFFFFFFFFFFFF AND PUSH20 0xFFFFFFFFFFFFFFFFFFFFFFFFFFFFFFFFFFFFFFFF AND DUP2 MSTORE PUSH1 0x20 ADD SWAP1 DUP2 MSTORE PUSH1 0x20 ADD PUSH1 0x0 KECCAK256 DUP2 SWAP1 SSTORE POP PUSH1 0x0 DUP2 GT ISZERO PUSH2 0x3D3 JUMPI PUSH1 0x1 PUSH1 0x2 PUSH1 0x0 DUP5 PUSH20 0xFFFFFFFFFFFFFFFFFFFFFFFFFFFFFFFFFFFFFFFF AND PUSH20 0xFFFFFFFFFFFFFFFFFFFFFFFFFFFFFFFFFFFFFFFF AND DUP2 MSTORE PUSH1 0x20 ADD SWAP1 DUP2 MSTORE PUSH1 0x20 ADD PUSH1 0x0 KECCAK256 PUSH1 0x0 PUSH2 0x100 EXP DUP2 SLOAD DUP2 PUSH1 0xFF MUL NOT AND SWAP1 DUP4 ISZERO ISZERO MUL OR SWAP1 SSTORE POP PUSH2 0x42C JUMP JUMPDEST PUSH1 0x0 PUSH1 0x2 PUSH1 0x0 DUP5 PUSH20 0xFFFFFFFFFFFFFFFFFFFFFFFFFFFFFFFFFFFFFFFF AND PUSH20 0xFFFFFFFFFFFFFFFFFFFFFFFFFFFFFFFFFFFFFFFF AND DUP2 MSTORE PUSH1 0x20 ADD SWAP1 DUP2 MSTORE PUSH1 0x20 ADD PUSH1 0x0 KECCAK256 PUSH1 0x0 PUSH2 0x100 EXP DUP2 SLOAD DUP2 PUSH1 0xFF MUL NOT AND SWAP1 DUP4 ISZERO ISZERO MUL OR SWAP1 SSTORE POP JUMPDEST POP POP JUMP JUMPDEST PUSH1 0x1 PUSH1 0x20 MSTORE DUP1 PUSH1 0x0 MSTORE PUSH1 0x40 PUSH1 0x0 KECCAK256 PUSH1 0x0 SWAP2 POP SWAP1 POP SLOAD DUP2 JUMP JUMPDEST PUSH1 0x3 DUP2 JUMP JUMPDEST PUSH1 0x0 DUP1 SLOAD SWAP1 PUSH2 0x100 EXP SWAP1 DIV PUSH20 0xFFFFFFFFFFFFFFFFFFFFFFFFFFFFFFFFFFFFFFFF AND DUP2 JUMP JUMPDEST PUSH1 0x0 DUP1 SLOAD SWAP1 PUSH2 0x100 EXP SWAP1 DIV PUSH20 0xFFFFFFFFFFFFFFFFFFFFFFFFFFFFFFFFFFFFFFFF AND PUSH20 0xFFFFFFFFFFFFFFFFFFFFFFFFFFFFFFFFFFFFFFFF AND CALLER PUSH20 0xFFFFFFFFFFFFFFFFFFFFFFFFFFFFFFFFFFFFFFFF AND EQ PUSH2 0x4FF JUMPI PUSH1 0x40 MLOAD PUSH32 0x8C379A000000000000000000000000000000000000000000000000000000000 DUP2 MSTORE PUSH1 0x4 ADD PUSH2 0x4F6 SWAP1 PUSH2 0xFBE JUMP JUMPDEST PUSH1 0x40 MLOAD DUP1 SWAP2 SUB SWAP1 REVERT JUMPDEST DUP1 PUSH1 0x3 PUSH1 0x0 DUP5 PUSH20 0xFFFFFFFFFFFFFFFFFFFFFFFFFFFFFFFFFFFFFFFF AND PUSH20 0xFFFFFFFFFFFFFFFFFFFFFFFFFFFFFFFFFFFFFFFF AND DUP2 MSTORE PUSH1 0x20 ADD SWAP1 DUP2 MSTORE PUSH1 0x20 ADD PUSH1 0x0 KECCAK256 PUSH1 0x0 PUSH2 0x100 EXP DUP2 SLOAD DUP2 PUSH1 0xFF MUL NOT AND SWAP1 DUP4 ISZERO ISZERO MUL OR SWAP1 SSTORE POP POP POP JUMP JUMPDEST PUSH1 0x3 PUSH1 0x0 CALLER PUSH20 0xFFFFFFFFFFFFFFFFFFFFFFFFFFFFFFFFFFFFFFFF AND PUSH20 0xFFFFFFFFFFFFFFFFFFFFFFFFFFFFFFFFFFFFFFFF AND DUP2 MSTORE PUSH1 0x20 ADD SWAP1 DUP2 MSTORE PUSH1 0x20 ADD PUSH1 0x0 KECCAK256 PUSH1 0x0 SWAP1 SLOAD SWAP1 PUSH2 0x100 EXP SWAP1 DIV PUSH1 0xFF AND PUSH2 0x5E6 JUMPI PUSH1 0x40 MLOAD PUSH32 0x8C379A000000000000000000000000000000000000000000000000000000000 DUP2 MSTORE PUSH1 0x4 ADD PUSH2 0x5DD SWAP1 PUSH2 0x1050 JUMP JUMPDEST PUSH1 0x40 MLOAD DUP1 SWAP2 SUB SWAP1 REVERT JUMPDEST PUSH1 0x0 ISZERO ISZERO PUSH1 0x5 PUSH1 0x0 DUP4 PUSH20 0xFFFFFFFFFFFFFFFFFFFFFFFFFFFFFFFFFFFFFFFF AND PUSH20 0xFFFFFFFFFFFFFFFFFFFFFFFFFFFFFFFFFFFFFFFF AND DUP2 MSTORE PUSH1 0x20 ADD SWAP1 DUP2 MSTORE PUSH1 0x20 ADD PUSH1 0x0 KECCAK256 PUSH1 0x0 CALLER PUSH20 0xFFFFFFFFFFFFFFFFFFFFFFFFFFFFFFFFFFFFFFFF AND PUSH20 0xFFFFFFFFFFFFFFFFFFFFFFFFFFFFFFFFFFFFFFFF AND DUP2 MSTORE PUSH1 0x20 ADD SWAP1 DUP2 MSTORE PUSH1 0x20 ADD PUSH1 0x0 KECCAK256 PUSH1 0x0 SWAP1 SLOAD SWAP1 PUSH2 0x100 EXP SWAP1 DIV PUSH1 0xFF AND ISZERO ISZERO EQ PUSH2 0x6B6 JUMPI PUSH1 0x40 MLOAD PUSH32 0x8C379A000000000000000000000000000000000000000000000000000000000 DUP2 MSTORE PUSH1 0x4 ADD PUSH2 0x6AD SWAP1 PUSH2 0x10BC JUMP JUMPDEST PUSH1 0x40 MLOAD DUP1 SWAP2 SUB SWAP1 REVERT JUMPDEST PUSH1 0x4 PUSH1 0x0 SWAP1 SLOAD SWAP1 PUSH2 0x100 EXP SWAP1 DIV PUSH20 0xFFFFFFFFFFFFFFFFFFFFFFFFFFFFFFFFFFFFFFFF AND PUSH20 0xFFFFFFFFFFFFFFFFFFFFFFFFFFFFFFFFFFFFFFFF AND DUP2 PUSH20 0xFFFFFFFFFFFFFFFFFFFFFFFFFFFFFFFFFFFFFFFF AND EQ PUSH2 0x755 JUMPI DUP1 PUSH1 0x4 PUSH1 0x0 PUSH2 0x100 EXP DUP2 SLOAD DUP2 PUSH20 0xFFFFFFFFFFFFFFFFFFFFFFFFFFFFFFFFFFFFFFFF MUL NOT AND SWAP1 DUP4 PUSH20 0xFFFFFFFFFFFFFFFFFFFFFFFFFFFFFFFFFFFFFFFF AND MUL OR SWAP1 SSTORE POP PUSH1 0x0 PUSH1 0x6 DUP2 SWAP1 SSTORE POP JUMPDEST PUSH1 0x6 PUSH1 0x0 DUP2 SLOAD DUP1 SWAP3 SWAP2 SWAP1 PUSH2 0x768 SWAP1 PUSH2 0x110B JUMP JUMPDEST SWAP2 SWAP1 POP SSTORE POP PUSH1 0x3 PUSH1 0x6 SLOAD LT PUSH2 0x81C JUMPI PUSH1 0x4 PUSH1 0x0 SWAP1 SLOAD SWAP1 PUSH2 0x100 EXP SWAP1 DIV PUSH20 0xFFFFFFFFFFFFFFFFFFFFFFFFFFFFFFFFFFFFFFFF AND PUSH1 0x0 DUP1 PUSH2 0x100 EXP DUP2 SLOAD DUP2 PUSH20 0xFFFFFFFFFFFFFFFFFFFFFFFFFFFFFFFFFFFFFFFF MUL NOT AND SWAP1 DUP4 PUSH20 0xFFFFFFFFFFFFFFFFFFFFFFFFFFFFFFFFFFFFFFFF AND MUL OR SWAP1 SSTORE POP PUSH1 0x0 PUSH1 0x4 PUSH1 0x0 PUSH2 0x100 EXP DUP2 SLOAD DUP2 PUSH20 0xFFFFFFFFFFFFFFFFFFFFFFFFFFFFFFFFFFFFFFFF MUL NOT AND SWAP1 DUP4 PUSH20 0xFFFFFFFFFFFFFFFFFFFFFFFFFFFFFFFFFFFFFFFF AND MUL OR SWAP1 SSTORE POP JUMPDEST POP JUMP JUMPDEST PUSH1 0x60 PUSH1 0x0 DUP1 SLOAD SWAP1 PUSH2 0x100 EXP SWAP1 DIV PUSH20 0xFFFFFFFFFFFFFFFFFFFFFFFFFFFFFFFFFFFFFFFF AND PUSH20 0xFFFFFFFFFFFFFFFFFFFFFFFFFFFFFFFFFFFFFFFF AND CALLER PUSH20 0xFFFFFFFFFFFFFFFFFFFFFFFFFFFFFFFFFFFFFFFF AND EQ PUSH2 0x9D9 JUMPI PUSH1 0x2 PUSH1 0x0 CALLER PUSH20 0xFFFFFFFFFFFFFFFFFFFFFFFFFFFFFFFFFFFFFFFF AND PUSH20 0xFFFFFFFFFFFFFFFFFFFFFFFFFFFFFFFFFFFFFFFF AND DUP2 MSTORE PUSH1 0x20 ADD SWAP1 DUP2 MSTORE PUSH1 0x20 ADD PUSH1 0x0 KECCAK256 PUSH1 0x0 SWAP1 SLOAD SWAP1 PUSH2 0x100 EXP SWAP1 DIV PUSH1 0xFF AND PUSH2 0x900 JUMPI PUSH1 0x40 MLOAD PUSH32 0x8C379A000000000000000000000000000000000000000000000000000000000 DUP2 MSTORE PUSH1 0x4 ADD PUSH2 0x8F7 SWAP1 PUSH2 0x11EB JUMP JUMPDEST PUSH1 0x40 MLOAD DUP1 SWAP2 SUB SWAP1 REVERT JUMPDEST DUP3 PUSH1 0x1 PUSH1 0x0 CALLER PUSH20 0xFFFFFFFFFFFFFFFFFFFFFFFFFFFFFFFFFFFFFFFF AND PUSH20 0xFFFFFFFFFFFFFFFFFFFFFFFFFFFFFFFFFFFFFFFF AND DUP2 MSTORE PUSH1 0x20 ADD SWAP1 DUP2 MSTORE PUSH1 0x20 ADD PUSH1 0x0 KECCAK256 SLOAD LT ISZERO PUSH2 0x982 JUMPI PUSH1 0x40 MLOAD PUSH32 0x8C379A000000000000000000000000000000000000000000000000000000000 DUP2 MSTORE PUSH1 0x4 ADD PUSH2 0x979 SWAP1 PUSH2 0x127D JUMP JUMPDEST PUSH1 0x40 MLOAD DUP1 SWAP2 SUB SWAP1 REVERT JUMPDEST DUP3 PUSH1 0x1 PUSH1 0x0 CALLER PUSH20 0xFFFFFFFFFFFFFFFFFFFFFFFFFFFFFFFFFFFFFFFF AND PUSH20 0xFFFFFFFFFFFFFFFFFFFFFFFFFFFFFFFFFFFFFFFF AND DUP2 MSTORE PUSH1 0x20 ADD SWAP1 DUP2 MSTORE PUSH1 0x20 ADD PUSH1 0x0 KECCAK256 PUSH1 0x0 DUP3 DUP3 SLOAD PUSH2 0x9D1 SWAP2 SWAP1 PUSH2 0x129D JUMP JUMPDEST SWAP3 POP POP DUP2 SWAP1 SSTORE POP JUMPDEST PUSH1 0x0 DUP1 DUP6 PUSH20 0xFFFFFFFFFFFFFFFFFFFFFFFFFFFFFFFFFFFFFFFF AND DUP6 DUP6 PUSH1 0x40 MLOAD PUSH2 0xA02 SWAP2 SWAP1 PUSH2 0x130D JUMP JUMPDEST PUSH1 0x0 PUSH1 0x40 MLOAD DUP1 DUP4 SUB DUP2 DUP6 DUP8 GAS CALL SWAP3 POP POP POP RETURNDATASIZE DUP1 PUSH1 0x0 DUP2 EQ PUSH2 0xA3F JUMPI PUSH1 0x40 MLOAD SWAP2 POP PUSH1 0x1F NOT PUSH1 0x3F RETURNDATASIZE ADD AND DUP3 ADD PUSH1 0x40 MSTORE RETURNDATASIZE DUP3 MSTORE RETURNDATASIZE PUSH1 0x0 PUSH1 0x20 DUP5 ADD RETURNDATACOPY PUSH2 0xA44 JUMP JUMPDEST PUSH1 0x60 SWAP2 POP JUMPDEST POP SWAP2 POP SWAP2 POP DUP2 PUSH2 0xA89 JUMPI PUSH1 0x40 MLOAD PUSH32 0x8C379A000000000000000000000000000000000000000000000000000000000 DUP2 MSTORE PUSH1 0x4 ADD PUSH2 0xA80 SWAP1 PUSH2 0x1396 JUMP JUMPDEST PUSH1 0x40 MLOAD DUP1 SWAP2 SUB SWAP1 REVERT JUMPDEST DUP1 SWAP3 POP POP POP SWAP4 SWAP3 POP POP POP JUMP JUMPDEST PUSH1 0x0 PUSH1 0x40 MLOAD SWAP1 POP SWAP1 JUMP JUMPDEST PUSH1 0x0 DUP1 REVERT JUMPDEST PUSH1 0x0 DUP1 REVERT JUMPDEST PUSH1 0x0 PUSH20 0xFFFFFFFFFFFFFFFFFFFFFFFFFFFFFFFFFFFFFFFF DUP3 AND SWAP1 POP SWAP2 SWAP1 POP JUMP JUMPDEST PUSH1 0x0 PUSH2 0xAD4 DUP3 PUSH2 0xAA9 JUMP JUMPDEST SWAP1 POP SWAP2 SWAP1 POP JUMP JUMPDEST PUSH2 0xAE4 DUP2 PUSH2 0xAC9 JUMP JUMPDEST DUP2 EQ PUSH2 0xAEF JUMPI PUSH1 0x0 DUP1 REVERT JUMPDEST POP JUMP JUMPDEST PUSH1 0x0 DUP2 CALLDATALOAD SWAP1 POP PUSH2 0xB01 DUP2 PUSH2 0xADB JUMP JUMPDEST SWAP3 SWAP2 POP POP JUMP JUMPDEST PUSH1 0x0 PUSH1 0x20 DUP3 DUP5 SUB SLT ISZERO PUSH2 0xB1D JUMPI PUSH2 0xB1C PUSH2 0xA9F JUMP JUMPDEST JUMPDEST PUSH1 0x0 PUSH2 0xB2B DUP5 DUP3 DUP6 ADD PUSH2 0xAF2 JUMP JUMPDEST SWAP2 POP POP SWAP3 SWAP2 POP POP JUMP JUMPDEST PUSH1 0x0 DUP2 ISZERO ISZERO SWAP1 POP SWAP2 SWAP1 POP JUMP JUMPDEST PUSH2 0xB49 DUP2 PUSH2 0xB34 JUMP JUMPDEST DUP3 MSTORE POP POP JUMP JUMPDEST PUSH1 0x0 PUSH1 0x20 DUP3 ADD SWAP1 POP PUSH2 0xB64 PUSH1 0x0 DUP4 ADD DUP5 PUSH2 0xB40 JUMP JUMPDEST SWAP3 SWAP2 POP POP JUMP JUMPDEST PUSH1 0x0 DUP2 SWAP1 POP SWAP2 SWAP1 POP JUMP JUMPDEST PUSH2 0xB7D DUP2 PUSH2 0xB6A JUMP JUMPDEST DUP2 EQ PUSH2 0xB88 JUMPI PUSH1 0x0 DUP1 REVERT JUMPDEST POP JUMP JUMPDEST PUSH1 0x0 DUP2 CALLDATALOAD SWAP1 POP PUSH2 0xB9A DUP2 PUSH2 0xB74 JUMP JUMPDEST SWAP3 SWAP2 POP POP JUMP JUMPDEST PUSH1 0x0 DUP1 PUSH1 0x40 DUP4 DUP6 SUB SLT ISZERO PUSH2 0xBB7 JUMPI PUSH2 0xBB6 PUSH2 0xA9F JUMP JUMPDEST JUMPDEST PUSH1 0x0 PUSH2 0xBC5 DUP6 DUP3 DUP7 ADD PUSH2 0xAF2 JUMP JUMPDEST SWAP3 POP POP PUSH1 0x20 PUSH2 0xBD6 DUP6 DUP3 DUP7 ADD PUSH2 0xB8B JUMP JUMPDEST SWAP2 POP POP SWAP3 POP SWAP3 SWAP1 POP JUMP JUMPDEST PUSH2 0xBE9 DUP2 PUSH2 0xB6A JUMP JUMPDEST DUP3 MSTORE POP POP JUMP JUMPDEST PUSH1 0x0 PUSH1 0x20 DUP3 ADD SWAP1 POP PUSH2 0xC04 PUSH1 0x0 DUP4 ADD DUP5 PUSH2 0xBE0 JUMP JUMPDEST SWAP3 SWAP2 POP POP JUMP JUMPDEST PUSH1 0x0 PUSH2 0xC15 DUP3 PUSH2 0xAA9 JUMP JUMPDEST SWAP1 POP SWAP2 SWAP1 POP JUMP JUMPDEST PUSH2 0xC25 DUP2 PUSH2 0xC0A JUMP JUMPDEST DUP3 MSTORE POP POP JUMP JUMPDEST PUSH1 0x0 PUSH1 0x20 DUP3 ADD SWAP1 POP PUSH2 0xC40 PUSH1 0x0 DUP4 ADD DUP5 PUSH2 0xC1C JUMP JUMPDEST SWAP3 SWAP2 POP POP JUMP JUMPDEST PUSH2 0xC4F DUP2 PUSH2 0xB34 JUMP JUMPDEST DUP2 EQ PUSH2 0xC5A JUMPI PUSH1 0x0 DUP1 REVERT JUMPDEST POP JUMP JUMPDEST PUSH1 0x0 DUP2 CALLDATALOAD SWAP1 POP PUSH2 0xC6C DUP2 PUSH2 0xC46 JUMP JUMPDEST SWAP3 SWAP2 POP POP JUMP JUMPDEST PUSH1 0x0 DUP1 PUSH1 0x40 DUP4 DUP6 SUB SLT ISZERO PUSH2 0xC89 JUMPI PUSH2 0xC88 PUSH2 0xA9F JUMP JUMPDEST JUMPDEST PUSH1 0x0 PUSH2 0xC97 DUP6 DUP3 DUP7 ADD PUSH2 0xAF2 JUMP JUMPDEST SWAP3 POP POP PUSH1 0x20 PUSH2 0xCA8 DUP6 DUP3 DUP7 ADD PUSH2 0xC5D JUMP JUMPDEST SWAP2 POP POP SWAP3 POP SWAP3 SWAP1 POP JUMP JUMPDEST PUSH2 0xCBB DUP2 PUSH2 0xC0A JUMP JUMPDEST DUP2 EQ PUSH2 0xCC6 JUMPI PUSH1 0x0 DUP1 REVERT JUMPDEST POP JUMP JUMPDEST PUSH1 0x0 DUP2 CALLDATALOAD SWAP1 POP PUSH2 0xCD8 DUP2 PUSH2 0xCB2 JUMP JUMPDEST SWAP3 SWAP2 POP POP JUMP JUMPDEST PUSH1 0x0 PUSH1 0x20 DUP3 DUP5 SUB SLT ISZERO PUSH2 0xCF4 JUMPI PUSH2 0xCF3 PUSH2 0xA9F JUMP JUMPDEST JUMPDEST PUSH1 0x0 PUSH2 0xD02 DUP5 DUP3 DUP6 ADD PUSH2 0xCC9 JUMP JUMPDEST SWAP2 POP POP SWAP3 SWAP2 POP POP JUMP JUMPDEST PUSH1 0x0 DUP1 REVERT JUMPDEST PUSH1 0x0 DUP1 REVERT JUMPDEST PUSH1 0x0 PUSH1 0x1F NOT PUSH1 0x1F DUP4 ADD AND SWAP1 POP SWAP2 SWAP1 POP JUMP JUMPDEST PUSH32 0x4E487B7100000000000000000000000000000000000000000000000000000000 PUSH1 0x0 MSTORE PUSH1 0x41 PUSH1 0x4 MSTORE PUSH1 0x24 PUSH1 0x0 REVERT JUMPDEST PUSH2 0xD5E DUP3 PUSH2 0xD15 JUMP JUMPDEST DUP2 ADD DUP2 DUP2 LT PUSH8 0xFFFFFFFFFFFFFFFF DUP3 GT OR ISZERO PUSH2 0xD7D JUMPI PUSH2 0xD7C PUSH2 0xD26 JUMP JUMPDEST JUMPDEST DUP1 PUSH1 0x40 MSTORE POP POP POP JUMP JUMPDEST PUSH1 0x0 PUSH2 0xD90 PUSH2 0xA95 JUMP JUMPDEST SWAP1 POP PUSH2 0xD9C DUP3 DUP3 PUSH2 0xD55 JUMP JUMPDEST SWAP2 SWAP1 POP JUMP JUMPDEST PUSH1 0x0 PUSH8 0xFFFFFFFFFFFFFFFF DUP3 GT ISZERO PUSH2 0xDBC JUMPI PUSH2 0xDBB PUSH2 0xD26 JUMP JUMPDEST JUMPDEST PUSH2 0xDC5 DUP3 PUSH2 0xD15 JUMP JUMPDEST SWAP1 POP PUSH1 0x20 DUP2 ADD SWAP1 POP SWAP2 SWAP1 POP JUMP JUMPDEST DUP3 DUP2 DUP4 CALLDATACOPY PUSH1 0x0 DUP4 DUP4 ADD MSTORE POP POP POP JUMP JUMPDEST PUSH1 0x0 PUSH2 0xDF4 PUSH2 0xDEF DUP5 PUSH2 0xDA1 JUMP JUMPDEST PUSH2 0xD86 JUMP JUMPDEST SWAP1 POP DUP3 DUP2 MSTORE PUSH1 0x20 DUP2 ADD DUP5 DUP5 DUP5 ADD GT ISZERO PUSH2 0xE10 JUMPI PUSH2 0xE0F PUSH2 0xD10 JUMP JUMPDEST JUMPDEST PUSH2 0xE1B DUP5 DUP3 DUP6 PUSH2 0xDD2 JUMP JUMPDEST POP SWAP4 SWAP3 POP POP POP JUMP JUMPDEST PUSH1 0x0 DUP3 PUSH1 0x1F DUP4 ADD SLT PUSH2 0xE38 JUMPI PUSH2 0xE37 PUSH2 0xD0B JUMP JUMPDEST JUMPDEST DUP2 CALLDATALOAD PUSH2 0xE48 DUP5 DUP3 PUSH1 0x20 DUP7 ADD PUSH2 0xDE1 JUMP JUMPDEST SWAP2 POP POP SWAP3 SWAP2 POP POP JUMP JUMPDEST PUSH1 0x0 DUP1 PUSH1 0x0 PUSH1 0x60 DUP5 DUP7 SUB SLT ISZERO PUSH2 0xE6A JUMPI PUSH2 0xE69 PUSH2 0xA9F JUMP JUMPDEST JUMPDEST PUSH1 0x0 PUSH2 0xE78 DUP7 DUP3 DUP8 ADD PUSH2 0xCC9 JUMP JUMPDEST SWAP4 POP POP PUSH1 0x20 PUSH2 0xE89 DUP7 DUP3 DUP8 ADD PUSH2 0xB8B JUMP JUMPDEST SWAP3 POP POP PUSH1 0x40 DUP5 ADD CALLDATALOAD PUSH8 0xFFFFFFFFFFFFFFFF DUP2 GT ISZERO PUSH2 0xEAA JUMPI PUSH2 0xEA9 PUSH2 0xAA4 JUMP JUMPDEST JUMPDEST PUSH2 0xEB6 DUP7 DUP3 DUP8 ADD PUSH2 0xE23 JUMP JUMPDEST SWAP2 POP POP SWAP3 POP SWAP3 POP SWAP3 JUMP JUMPDEST PUSH1 0x0 DUP2 MLOAD SWAP1 POP SWAP2 SWAP1 POP JUMP JUMPDEST PUSH1 0x0 DUP3 DUP3 MSTORE PUSH1 0x20 DUP3 ADD SWAP1 POP SWAP3 SWAP2 POP POP JUMP JUMPDEST PUSH1 0x0 JUMPDEST DUP4 DUP2 LT ISZERO PUSH2 0xEFA JUMPI DUP1 DUP3 ADD MLOAD DUP2 DUP5 ADD MSTORE PUSH1 0x20 DUP2 ADD SWAP1 POP PUSH2 0xEDF JUMP JUMPDEST PUSH1 0x0 DUP5 DUP5 ADD MSTORE POP POP POP POP JUMP JUMPDEST PUSH1 0x0 PUSH2 0xF11 DUP3 PUSH2 0xEC0 JUMP JUMPDEST PUSH2 0xF1B DUP2 DUP6 PUSH2 0xECB JUMP JUMPDEST SWAP4 POP PUSH2 0xF2B DUP2 DUP6 PUSH1 0x20 DUP7 ADD PUSH2 0xEDC JUMP JUMPDEST PUSH2 0xF34 DUP2 PUSH2 0xD15 JUMP JUMPDEST DUP5 ADD SWAP2 POP POP SWAP3 SWAP2 POP POP JUMP JUMPDEST PUSH1 0x0 PUSH1 0x20 DUP3 ADD SWAP1 POP DUP2 DUP2 SUB PUSH1 0x0 DUP4 ADD MSTORE PUSH2 0xF59 DUP2 DUP5 PUSH2 0xF06 JUMP JUMPDEST SWAP1 POP SWAP3 SWAP2 POP POP JUMP JUMPDEST PUSH1 0x0 DUP3 DUP3 MSTORE PUSH1 0x20 DUP3 ADD SWAP1 POP SWAP3 SWAP2 POP POP JUMP JUMPDEST PUSH32 0x596F7520617265206E6F7420746865206F776E65722C2061626F7274696E6700 PUSH1 0x0 DUP3 ADD MSTORE POP JUMP JUMPDEST PUSH1 0x0 PUSH2 0xFA8 PUSH1 0x1F DUP4 PUSH2 0xF61 JUMP JUMPDEST SWAP2 POP PUSH2 0xFB3 DUP3 PUSH2 0xF72 JUMP JUMPDEST PUSH1 0x20 DUP3 ADD SWAP1 POP SWAP2 SWAP1 POP JUMP JUMPDEST PUSH1 0x0 PUSH1 0x20 DUP3 ADD SWAP1 POP DUP2 DUP2 SUB PUSH1 0x0 DUP4 ADD MSTORE PUSH2 0xFD7 DUP2 PUSH2 0xF9B JUMP JUMPDEST SWAP1 POP SWAP2 SWAP1 POP JUMP JUMPDEST PUSH32 0x596F7520617265206E6F74206120677561726469616E206F6620746869732077 PUSH1 0x0 DUP3 ADD MSTORE PUSH32 0x616C6C65742C2061626F7274696E670000000000000000000000000000000000 PUSH1 0x20 DUP3 ADD MSTORE POP JUMP JUMPDEST PUSH1 0x0 PUSH2 0x103A PUSH1 0x2F DUP4 PUSH2 0xF61 JUMP JUMPDEST SWAP2 POP PUSH2 0x1045 DUP3 PUSH2 0xFDE JUMP JUMPDEST PUSH1 0x40 DUP3 ADD SWAP1 POP SWAP2 SWAP1 POP JUMP JUMPDEST PUSH1 0x0 PUSH1 0x20 DUP3 ADD SWAP1 POP DUP2 DUP2 SUB PUSH1 0x0 DUP4 ADD MSTORE PUSH2 0x1069 DUP2 PUSH2 0x102D JUMP JUMPDEST SWAP1 POP SWAP2 SWAP1 POP JUMP JUMPDEST PUSH32 0x596F7520616C726561647920766F7465642C2061626F7274696E670000000000 PUSH1 0x0 DUP3 ADD MSTORE POP JUMP JUMPDEST PUSH1 0x0 PUSH2 0x10A6 PUSH1 0x1B DUP4 PUSH2 0xF61 JUMP JUMPDEST SWAP2 POP PUSH2 0x10B1 DUP3 PUSH2 0x1070 JUMP JUMPDEST PUSH1 0x20 DUP3 ADD SWAP1 POP SWAP2 SWAP1 POP JUMP JUMPDEST PUSH1 0x0 PUSH1 0x20 DUP3 ADD SWAP1 POP DUP2 DUP2 SUB PUSH1 0x0 DUP4 ADD MSTORE PUSH2 0x10D5 DUP2 PUSH2 0x1099 JUMP JUMPDEST SWAP1 POP SWAP2 SWAP1 POP JUMP JUMPDEST PUSH32 0x4E487B7100000000000000000000000000000000000000000000000000000000 PUSH1 0x0 MSTORE PUSH1 0x11 PUSH1 0x4 MSTORE PUSH1 0x24 PUSH1 0x0 REVERT JUMPDEST PUSH1 0x0 PUSH2 0x1116 DUP3 PUSH2 0xB6A JUMP JUMPDEST SWAP2 POP PUSH32 0xFFFFFFFFFFFFFFFFFFFFFFFFFFFFFFFFFFFFFFFFFFFFFFFFFFFFFFFFFFFFFFFF DUP3 SUB PUSH2 0x1148 JUMPI PUSH2 0x1147 PUSH2 0x10DC JUMP JUMPDEST JUMPDEST PUSH1 0x1 DUP3 ADD SWAP1 POP SWAP2 SWAP1 POP JUMP JUMPDEST PUSH32 0x596F7520617265206E6F7420616C6C6F77656420746F2073656E6420616E7974 PUSH1 0x0 DUP3 ADD MSTORE PUSH32 0x68696E672066726F6D207468697320736D61727420636F6E74726163742C2061 PUSH1 0x20 DUP3 ADD MSTORE PUSH32 0x626F7274696E6700000000000000000000000000000000000000000000000000 PUSH1 0x40 DUP3 ADD MSTORE POP JUMP JUMPDEST PUSH1 0x0 PUSH2 0x11D5 PUSH1 0x47 DUP4 PUSH2 0xF61 JUMP JUMPDEST SWAP2 POP PUSH2 0x11E0 DUP3 PUSH2 0x1153 JUMP JUMPDEST PUSH1 0x60 DUP3 ADD SWAP1 POP SWAP2 SWAP1 POP JUMP JUMPDEST PUSH1 0x0 PUSH1 0x20 DUP3 ADD SWAP1 POP DUP2 DUP2 SUB PUSH1 0x0 DUP4 ADD MSTORE PUSH2 0x1204 DUP2 PUSH2 0x11C8 JUMP JUMPDEST SWAP1 POP SWAP2 SWAP1 POP JUMP JUMPDEST PUSH32 0x596F752061726520747279696E6720746F2073656E64206D6F7265207468616E PUSH1 0x0 DUP3 ADD MSTORE PUSH32 0x20796F752061726520616C6C6F77656420746F2C2061626F7274696E67000000 PUSH1 0x20 DUP3 ADD MSTORE POP JUMP JUMPDEST PUSH1 0x0 PUSH2 0x1267 PUSH1 0x3D DUP4 PUSH2 0xF61 JUMP JUMPDEST SWAP2 POP PUSH2 0x1272 DUP3 PUSH2 0x120B JUMP JUMPDEST PUSH1 0x40 DUP3 ADD SWAP1 POP SWAP2 SWAP1 POP JUMP JUMPDEST PUSH1 0x0 PUSH1 0x20 DUP3 ADD SWAP1 POP DUP2 DUP2 SUB PUSH1 0x0 DUP4 ADD MSTORE PUSH2 0x1296 DUP2 PUSH2 0x125A JUMP JUMPDEST SWAP1 POP SWAP2 SWAP1 POP JUMP JUMPDEST PUSH1 0x0 PUSH2 0x12A8 DUP3 PUSH2 0xB6A JUMP JUMPDEST SWAP2 POP PUSH2 0x12B3 DUP4 PUSH2 0xB6A JUMP JUMPDEST SWAP3 POP DUP3 DUP3 SUB SWAP1 POP DUP2 DUP2 GT ISZERO PUSH2 0x12CB JUMPI PUSH2 0x12CA PUSH2 0x10DC JUMP JUMPDEST JUMPDEST SWAP3 SWAP2 POP POP JUMP JUMPDEST PUSH1 0x0 DUP2 SWAP1 POP SWAP3 SWAP2 POP POP JUMP JUMPDEST PUSH1 0x0 PUSH2 0x12E7 DUP3 PUSH2 0xEC0 JUMP JUMPDEST PUSH2 0x12F1 DUP2 DUP6 PUSH2 0x12D1 JUMP JUMPDEST SWAP4 POP PUSH2 0x1301 DUP2 DUP6 PUSH1 0x20 DUP7 ADD PUSH2 0xEDC JUMP JUMPDEST DUP1 DUP5 ADD SWAP2 POP POP SWAP3 SWAP2 POP POP JUMP JUMPDEST PUSH1 0x0 PUSH2 0x1319 DUP3 DUP5 PUSH2 0x12DC JUMP JUMPDEST SWAP2 POP DUP2 SWAP1 POP SWAP3 SWAP2 POP POP JUMP JUMPDEST PUSH32 0x41626F7274696E672C2063616C6C20776173206E6F7420737563636573736675 PUSH1 0x0 DUP3 ADD MSTORE PUSH32 0x6C00000000000000000000000000000000000000000000000000000000000000 PUSH1 0x20 DUP3 ADD MSTORE POP JUMP JUMPDEST PUSH1 0x0 PUSH2 0x1380 PUSH1 0x21 DUP4 PUSH2 0xF61 JUMP JUMPDEST SWAP2 POP PUSH2 0x138B DUP3 PUSH2 0x1324 JUMP JUMPDEST PUSH1 0x40 DUP3 ADD SWAP1 POP SWAP2 SWAP1 POP JUMP JUMPDEST PUSH1 0x0 PUSH1 0x20 DUP3 ADD SWAP1 POP DUP2 DUP2 SUB PUSH1 0x0 DUP4 ADD MSTORE PUSH2 0x13AF DUP2 PUSH2 0x1373 JUMP JUMPDEST SWAP1 POP SWAP2 SWAP1 POP JUMP INVALID LOG2 PUSH5 0x6970667358 0x22 SLT KECCAK256 SWAP8 LT AND 0xF7 MUL PUSH23 0xF85ADA9978A94D496AA6D6159EECA025ED6CAC5A75A424 0xB4 PUSH10 0xC364736F6C6343000810 STOP CALLER "
				},
				"gasEstimates": {
					"creation": {
						"codeDepositCost": "1020000",
						"executionCost": "25327",
						"totalCost": "1045327"
					},
					"external": {
						"allowance(address)": "2881",
						"confirmationsFromGuardiansForReset()": "329",
						"guardians(address)": "2846",
						"isAllowedToSend(address)": "2868",
						"owner()": "2533",
						"proposeNewOwner(address)": "63045",
						"setAllowance(address,uint256)": "49438",
						"setGaurdian(address,bool)": "27202",
						"transfer(address,uint256,bytes)": "infinite"
					}
				},
				"methodIdentifiers": {
					"allowance(address)": "3e5beab9",
					"confirmationsFromGuardiansForReset()": "83012be1",
					"guardians(address)": "0633b14a",
					"isAllowedToSend(address)": "0bc605ad",
					"owner()": "8da5cb5b",
					"proposeNewOwner(address)": "b1f8100d",
					"setAllowance(address,uint256)": "310ec4a7",
					"setGaurdian(address,bool)": "a364c09f",
					"transfer(address,uint256,bytes)": "be45fd62"
				}
			},
			"storageLayout": {
				"storage": [
					{
						"astId": 3,
						"contract": "contracts/SmartContractWallet.sol:SmartContractWallet",
						"label": "owner",
						"offset": 0,
						"slot": "0",
						"type": "t_address_payable"
					},
					{
						"astId": 7,
						"contract": "contracts/SmartContractWallet.sol:SmartContractWallet",
						"label": "allowance",
						"offset": 0,
						"slot": "1",
						"type": "t_mapping(t_address,t_uint256)"
					},
					{
						"astId": 11,
						"contract": "contracts/SmartContractWallet.sol:SmartContractWallet",
						"label": "isAllowedToSend",
						"offset": 0,
						"slot": "2",
						"type": "t_mapping(t_address,t_bool)"
					},
					{
						"astId": 15,
						"contract": "contracts/SmartContractWallet.sol:SmartContractWallet",
						"label": "guardians",
						"offset": 0,
						"slot": "3",
						"type": "t_mapping(t_address,t_bool)"
					},
					{
						"astId": 17,
						"contract": "contracts/SmartContractWallet.sol:SmartContractWallet",
						"label": "nextOwner",
						"offset": 0,
						"slot": "4",
						"type": "t_address_payable"
					},
					{
						"astId": 23,
						"contract": "contracts/SmartContractWallet.sol:SmartContractWallet",
						"label": "nextOwnerGuardianVotedBool",
						"offset": 0,
						"slot": "5",
						"type": "t_mapping(t_address,t_mapping(t_address,t_bool))"
					},
					{
						"astId": 25,
						"contract": "contracts/SmartContractWallet.sol:SmartContractWallet",
						"label": "guardiansResetCount",
						"offset": 0,
						"slot": "6",
						"type": "t_uint256"
					}
				],
				"types": {
					"t_address": {
						"encoding": "inplace",
						"label": "address",
						"numberOfBytes": "20"
					},
					"t_address_payable": {
						"encoding": "inplace",
						"label": "address payable",
						"numberOfBytes": "20"
					},
					"t_bool": {
						"encoding": "inplace",
						"label": "bool",
						"numberOfBytes": "1"
					},
					"t_mapping(t_address,t_bool)": {
						"encoding": "mapping",
						"key": "t_address",
						"label": "mapping(address => bool)",
						"numberOfBytes": "32",
						"value": "t_bool"
					},
					"t_mapping(t_address,t_mapping(t_address,t_bool))": {
						"encoding": "mapping",
						"key": "t_address",
						"label": "mapping(address => mapping(address => bool))",
						"numberOfBytes": "32",
						"value": "t_mapping(t_address,t_bool)"
					},
					"t_mapping(t_address,t_uint256)": {
						"encoding": "mapping",
						"key": "t_address",
						"label": "mapping(address => uint256)",
						"numberOfBytes": "32",
						"value": "t_uint256"
					},
					"t_uint256": {
						"encoding": "inplace",
						"label": "uint256",
						"numberOfBytes": "32"
					}
				}
			},
			"userdoc": {
				"kind": "user",
				"methods": {},
				"version": 1
			}
		}
	}
}