{
	"contracts/Wallet.sol": {
		"SendWithdrawMoney": {
			"abi": [
				{
					"inputs": [],
					"name": "balanceReceived",
					"outputs": [
						{
							"internalType": "uint256",
							"name": "",
							"type": "uint256"
						}
					],
					"stateMutability": "view",
					"type": "function"
				},
				{
					"inputs": [],
					"name": "deposit",
					"outputs": [],
					"stateMutability": "payable",
					"type": "function"
				},
				{
					"inputs": [],
					"name": "getContractBalance",
					"outputs": [
						{
							"internalType": "uint256",
							"name": "",
							"type": "uint256"
						}
					],
					"stateMutability": "view",
					"type": "function"
				},
				{
					"inputs": [],
					"name": "withdrawAll",
					"outputs": [],
					"stateMutability": "nonpayable",
					"type": "function"
				}
			],
			"devdoc": {
				"kind": "dev",
				"methods": {},
				"version": 1
			},
			"evm": {
				"assembly": "    /* \"contracts/Wallet.sol\":61:466  contract SendWithdrawMoney {... */\n  mstore(0x40, 0x80)\n  callvalue\n  dup1\n  iszero\n  tag_1\n  jumpi\n  0x00\n  dup1\n  revert\ntag_1:\n  pop\n  dataSize(sub_0)\n  dup1\n  dataOffset(sub_0)\n  0x00\n  codecopy\n  0x00\n  return\nstop\n\nsub_0: assembly {\n        /* \"contracts/Wallet.sol\":61:466  contract SendWithdrawMoney {... */\n      mstore(0x40, 0x80)\n      jumpi(tag_1, lt(calldatasize, 0x04))\n      shr(0xe0, calldataload(0x00))\n      dup1\n      0x52a90c42\n      eq\n      tag_2\n      jumpi\n      dup1\n      0x6f9fb98a\n      eq\n      tag_3\n      jumpi\n      dup1\n      0x853828b6\n      eq\n      tag_4\n      jumpi\n      dup1\n      0xd0e30db0\n      eq\n      tag_5\n      jumpi\n    tag_1:\n      0x00\n      dup1\n      revert\n        /* \"contracts/Wallet.sol\":97:124  uint public balanceReceived */\n    tag_2:\n      callvalue\n      dup1\n      iszero\n      tag_6\n      jumpi\n      0x00\n      dup1\n      revert\n    tag_6:\n      pop\n      tag_7\n      tag_8\n      jump\t// in\n    tag_7:\n      mload(0x40)\n      tag_9\n      swap2\n      swap1\n      tag_10\n      jump\t// in\n    tag_9:\n      mload(0x40)\n      dup1\n      swap2\n      sub\n      swap1\n      return\n        /* \"contracts/Wallet.sol\":219:322  function getContractBalance() public view returns(uint) {... */\n    tag_3:\n      callvalue\n      dup1\n      iszero\n      tag_11\n      jumpi\n      0x00\n      dup1\n      revert\n    tag_11:\n      pop\n      tag_12\n      tag_13\n      jump\t// in\n    tag_12:\n      mload(0x40)\n      tag_14\n      swap2\n      swap1\n      tag_10\n      jump\t// in\n    tag_14:\n      mload(0x40)\n      dup1\n      swap2\n      sub\n      swap1\n      return\n        /* \"contracts/Wallet.sol\":330:463  function withdrawAll() public {... */\n    tag_4:\n      callvalue\n      dup1\n      iszero\n      tag_15\n      jumpi\n      0x00\n      dup1\n      revert\n    tag_15:\n      pop\n      tag_16\n      tag_17\n      jump\t// in\n    tag_16:\n      stop\n        /* \"contracts/Wallet.sol\":131:211  function deposit() public payable{... */\n    tag_5:\n      tag_18\n      tag_19\n      jump\t// in\n    tag_18:\n      stop\n        /* \"contracts/Wallet.sol\":97:124  uint public balanceReceived */\n    tag_8:\n      sload(0x00)\n      dup2\n      jump\t// out\n        /* \"contracts/Wallet.sol\":219:322  function getContractBalance() public view returns(uint) {... */\n    tag_13:\n        /* \"contracts/Wallet.sol\":269:273  uint */\n      0x00\n        /* \"contracts/Wallet.sol\":293:314  address(this).balance */\n      selfbalance\n        /* \"contracts/Wallet.sol\":286:314  return address(this).balance */\n      swap1\n      pop\n        /* \"contracts/Wallet.sol\":219:322  function getContractBalance() public view returns(uint) {... */\n      swap1\n      jump\t// out\n        /* \"contracts/Wallet.sol\":330:463  function withdrawAll() public {... */\n    tag_17:\n        /* \"contracts/Wallet.sol\":371:389  address payable to */\n      0x00\n        /* \"contracts/Wallet.sol\":400:410  msg.sender */\n      caller\n        /* \"contracts/Wallet.sol\":371:411  address payable to = payable(msg.sender) */\n      swap1\n      pop\n        /* \"contracts/Wallet.sol\":422:424  to */\n      dup1\n        /* \"contracts/Wallet.sol\":422:433  to.transfer */\n      0xffffffffffffffffffffffffffffffffffffffff\n      and\n        /* \"contracts/Wallet.sol\":422:455  to.transfer(getContractBalance()) */\n      0x08fc\n        /* \"contracts/Wallet.sol\":434:454  getContractBalance() */\n      tag_22\n        /* \"contracts/Wallet.sol\":434:452  getContractBalance */\n      tag_13\n        /* \"contracts/Wallet.sol\":434:454  getContractBalance() */\n      jump\t// in\n    tag_22:\n        /* \"contracts/Wallet.sol\":422:455  to.transfer(getContractBalance()) */\n      swap1\n      dup2\n      iszero\n      mul\n      swap1\n      mload(0x40)\n      0x00\n      mload(0x40)\n      dup1\n      dup4\n      sub\n      dup2\n      dup6\n      dup9\n      dup9\n      call\n      swap4\n      pop\n      pop\n      pop\n      pop\n      iszero\n      dup1\n      iszero\n      tag_24\n      jumpi\n      returndatasize\n      0x00\n      dup1\n      returndatacopy\n      revert(0x00, returndatasize)\n    tag_24:\n      pop\n        /* \"contracts/Wallet.sol\":360:463  {... */\n      pop\n        /* \"contracts/Wallet.sol\":330:463  function withdrawAll() public {... */\n      jump\t// out\n        /* \"contracts/Wallet.sol\":131:211  function deposit() public payable{... */\n    tag_19:\n        /* \"contracts/Wallet.sol\":194:203  msg.value */\n      callvalue\n        /* \"contracts/Wallet.sol\":175:190  balanceReceived */\n      0x00\n      dup1\n        /* \"contracts/Wallet.sol\":175:203  balanceReceived += msg.value */\n      dup3\n      dup3\n      sload\n      tag_26\n      swap2\n      swap1\n      tag_27\n      jump\t// in\n    tag_26:\n      swap3\n      pop\n      pop\n      dup2\n      swap1\n      sstore\n      pop\n        /* \"contracts/Wallet.sol\":131:211  function deposit() public payable{... */\n      jump\t// out\n        /* \"#utility.yul\":7:84   */\n    tag_28:\n        /* \"#utility.yul\":44:51   */\n      0x00\n        /* \"#utility.yul\":73:78   */\n      dup2\n        /* \"#utility.yul\":62:78   */\n      swap1\n      pop\n        /* \"#utility.yul\":7:84   */\n      swap2\n      swap1\n      pop\n      jump\t// out\n        /* \"#utility.yul\":90:208   */\n    tag_29:\n        /* \"#utility.yul\":177:201   */\n      tag_34\n        /* \"#utility.yul\":195:200   */\n      dup2\n        /* \"#utility.yul\":177:201   */\n      tag_28\n      jump\t// in\n    tag_34:\n        /* \"#utility.yul\":172:175   */\n      dup3\n        /* \"#utility.yul\":165:202   */\n      mstore\n        /* \"#utility.yul\":90:208   */\n      pop\n      pop\n      jump\t// out\n        /* \"#utility.yul\":214:436   */\n    tag_10:\n        /* \"#utility.yul\":307:311   */\n      0x00\n        /* \"#utility.yul\":345:347   */\n      0x20\n        /* \"#utility.yul\":334:343   */\n      dup3\n        /* \"#utility.yul\":330:348   */\n      add\n        /* \"#utility.yul\":322:348   */\n      swap1\n      pop\n        /* \"#utility.yul\":358:429   */\n      tag_36\n        /* \"#utility.yul\":426:427   */\n      0x00\n        /* \"#utility.yul\":415:424   */\n      dup4\n        /* \"#utility.yul\":411:428   */\n      add\n        /* \"#utility.yul\":402:408   */\n      dup5\n        /* \"#utility.yul\":358:429   */\n      tag_29\n      jump\t// in\n    tag_36:\n        /* \"#utility.yul\":214:436   */\n      swap3\n      swap2\n      pop\n      pop\n      jump\t// out\n        /* \"#utility.yul\":442:622   */\n    tag_30:\n        /* \"#utility.yul\":490:567   */\n      0x4e487b7100000000000000000000000000000000000000000000000000000000\n        /* \"#utility.yul\":487:488   */\n      0x00\n        /* \"#utility.yul\":480:568   */\n      mstore\n        /* \"#utility.yul\":587:591   */\n      0x11\n        /* \"#utility.yul\":584:585   */\n      0x04\n        /* \"#utility.yul\":577:592   */\n      mstore\n        /* \"#utility.yul\":611:615   */\n      0x24\n        /* \"#utility.yul\":608:609   */\n      0x00\n        /* \"#utility.yul\":601:616   */\n      revert\n        /* \"#utility.yul\":628:933   */\n    tag_27:\n        /* \"#utility.yul\":668:671   */\n      0x00\n        /* \"#utility.yul\":687:707   */\n      tag_39\n        /* \"#utility.yul\":705:706   */\n      dup3\n        /* \"#utility.yul\":687:707   */\n      tag_28\n      jump\t// in\n    tag_39:\n        /* \"#utility.yul\":682:707   */\n      swap2\n      pop\n        /* \"#utility.yul\":721:741   */\n      tag_40\n        /* \"#utility.yul\":739:740   */\n      dup4\n        /* \"#utility.yul\":721:741   */\n      tag_28\n      jump\t// in\n    tag_40:\n        /* \"#utility.yul\":716:741   */\n      swap3\n      pop\n        /* \"#utility.yul\":875:876   */\n      dup3\n        /* \"#utility.yul\":807:873   */\n      0xffffffffffffffffffffffffffffffffffffffffffffffffffffffffffffffff\n        /* \"#utility.yul\":803:877   */\n      sub\n        /* \"#utility.yul\":800:801   */\n      dup3\n        /* \"#utility.yul\":797:878   */\n      gt\n        /* \"#utility.yul\":794:901   */\n      iszero\n      tag_41\n      jumpi\n        /* \"#utility.yul\":881:899   */\n      tag_42\n      tag_30\n      jump\t// in\n    tag_42:\n        /* \"#utility.yul\":794:901   */\n    tag_41:\n        /* \"#utility.yul\":925:926   */\n      dup3\n        /* \"#utility.yul\":922:923   */\n      dup3\n        /* \"#utility.yul\":918:927   */\n      add\n        /* \"#utility.yul\":911:927   */\n      swap1\n      pop\n        /* \"#utility.yul\":628:933   */\n      swap3\n      swap2\n      pop\n      pop\n      jump\t// out\n\n    auxdata: 0xa2646970667358221220a1853961a7b1dec1ecea298242bb077081614f0b3cb83b4f58d2e47f930ebe5964736f6c634300080f0033\n}\n",
				"bytecode": {
					"linkReferences": {},
					"object": "608060405234801561001057600080fd5b50610228806100206000396000f3fe60806040526004361061003f5760003560e01c806352a90c42146100445780636f9fb98a1461006f578063853828b61461009a578063d0e30db0146100b1575b600080fd5b34801561005057600080fd5b506100596100bb565b6040516100669190610152565b60405180910390f35b34801561007b57600080fd5b506100846100c1565b6040516100919190610152565b60405180910390f35b3480156100a657600080fd5b506100af6100c9565b005b6100b961011f565b005b60005481565b600047905090565b60003390508073ffffffffffffffffffffffffffffffffffffffff166108fc6100f06100c1565b9081150290604051600060405180830381858888f1935050505015801561011b573d6000803e3d6000fd5b5050565b34600080828254610130919061019c565b92505081905550565b6000819050919050565b61014c81610139565b82525050565b60006020820190506101676000830184610143565b92915050565b7f4e487b7100000000000000000000000000000000000000000000000000000000600052601160045260246000fd5b60006101a782610139565b91506101b283610139565b9250827fffffffffffffffffffffffffffffffffffffffffffffffffffffffffffffffff038211156101e7576101e661016d565b5b82820190509291505056fea2646970667358221220a1853961a7b1dec1ecea298242bb077081614f0b3cb83b4f58d2e47f930ebe5964736f6c634300080f0033",
					"opcodes": "PUSH1 0x80 PUSH1 0x40 MSTORE CALLVALUE DUP1 ISZERO PUSH2 0x10 JUMPI PUSH1 0x0 DUP1 REVERT JUMPDEST POP PUSH2 0x228 DUP1 PUSH2 0x20 PUSH1 0x0 CODECOPY PUSH1 0x0 RETURN INVALID PUSH1 0x80 PUSH1 0x40 MSTORE PUSH1 0x4 CALLDATASIZE LT PUSH2 0x3F JUMPI PUSH1 0x0 CALLDATALOAD PUSH1 0xE0 SHR DUP1 PUSH4 0x52A90C42 EQ PUSH2 0x44 JUMPI DUP1 PUSH4 0x6F9FB98A EQ PUSH2 0x6F JUMPI DUP1 PUSH4 0x853828B6 EQ PUSH2 0x9A JUMPI DUP1 PUSH4 0xD0E30DB0 EQ PUSH2 0xB1 JUMPI JUMPDEST PUSH1 0x0 DUP1 REVERT JUMPDEST CALLVALUE DUP1 ISZERO PUSH2 0x50 JUMPI PUSH1 0x0 DUP1 REVERT JUMPDEST POP PUSH2 0x59 PUSH2 0xBB JUMP JUMPDEST PUSH1 0x40 MLOAD PUSH2 0x66 SWAP2 SWAP1 PUSH2 0x152 JUMP JUMPDEST PUSH1 0x40 MLOAD DUP1 SWAP2 SUB SWAP1 RETURN JUMPDEST CALLVALUE DUP1 ISZERO PUSH2 0x7B JUMPI PUSH1 0x0 DUP1 REVERT JUMPDEST POP PUSH2 0x84 PUSH2 0xC1 JUMP JUMPDEST PUSH1 0x40 MLOAD PUSH2 0x91 SWAP2 SWAP1 PUSH2 0x152 JUMP JUMPDEST PUSH1 0x40 MLOAD DUP1 SWAP2 SUB SWAP1 RETURN JUMPDEST CALLVALUE DUP1 ISZERO PUSH2 0xA6 JUMPI PUSH1 0x0 DUP1 REVERT JUMPDEST POP PUSH2 0xAF PUSH2 0xC9 JUMP JUMPDEST STOP JUMPDEST PUSH2 0xB9 PUSH2 0x11F JUMP JUMPDEST STOP JUMPDEST PUSH1 0x0 SLOAD DUP2 JUMP JUMPDEST PUSH1 0x0 SELFBALANCE SWAP1 POP SWAP1 JUMP JUMPDEST PUSH1 0x0 CALLER SWAP1 POP DUP1 PUSH20 0xFFFFFFFFFFFFFFFFFFFFFFFFFFFFFFFFFFFFFFFF AND PUSH2 0x8FC PUSH2 0xF0 PUSH2 0xC1 JUMP JUMPDEST SWAP1 DUP2 ISZERO MUL SWAP1 PUSH1 0x40 MLOAD PUSH1 0x0 PUSH1 0x40 MLOAD DUP1 DUP4 SUB DUP2 DUP6 DUP9 DUP9 CALL SWAP4 POP POP POP POP ISZERO DUP1 ISZERO PUSH2 0x11B JUMPI RETURNDATASIZE PUSH1 0x0 DUP1 RETURNDATACOPY RETURNDATASIZE PUSH1 0x0 REVERT JUMPDEST POP POP JUMP JUMPDEST CALLVALUE PUSH1 0x0 DUP1 DUP3 DUP3 SLOAD PUSH2 0x130 SWAP2 SWAP1 PUSH2 0x19C JUMP JUMPDEST SWAP3 POP POP DUP2 SWAP1 SSTORE POP JUMP JUMPDEST PUSH1 0x0 DUP2 SWAP1 POP SWAP2 SWAP1 POP JUMP JUMPDEST PUSH2 0x14C DUP2 PUSH2 0x139 JUMP JUMPDEST DUP3 MSTORE POP POP JUMP JUMPDEST PUSH1 0x0 PUSH1 0x20 DUP3 ADD SWAP1 POP PUSH2 0x167 PUSH1 0x0 DUP4 ADD DUP5 PUSH2 0x143 JUMP JUMPDEST SWAP3 SWAP2 POP POP JUMP JUMPDEST PUSH32 0x4E487B7100000000000000000000000000000000000000000000000000000000 PUSH1 0x0 MSTORE PUSH1 0x11 PUSH1 0x4 MSTORE PUSH1 0x24 PUSH1 0x0 REVERT JUMPDEST PUSH1 0x0 PUSH2 0x1A7 DUP3 PUSH2 0x139 JUMP JUMPDEST SWAP2 POP PUSH2 0x1B2 DUP4 PUSH2 0x139 JUMP JUMPDEST SWAP3 POP DUP3 PUSH32 0xFFFFFFFFFFFFFFFFFFFFFFFFFFFFFFFFFFFFFFFFFFFFFFFFFFFFFFFFFFFFFFFF SUB DUP3 GT ISZERO PUSH2 0x1E7 JUMPI PUSH2 0x1E6 PUSH2 0x16D JUMP JUMPDEST JUMPDEST DUP3 DUP3 ADD SWAP1 POP SWAP3 SWAP2 POP POP JUMP INVALID LOG2 PUSH5 0x6970667358 0x22 SLT KECCAK256 LOG1 DUP6 CODECOPY PUSH2 0xA7B1 0xDE 0xC1 0xEC 0xEA 0x29 DUP3 TIMESTAMP 0xBB SMOD PUSH17 0x81614F0B3CB83B4F58D2E47F930EBE5964 PUSH20 0x6F6C634300080F00330000000000000000000000 "
				},
				"gasEstimates": {
					"creation": {
						"codeDepositCost": "110400",
						"executionCost": "159",
						"totalCost": "110559"
					},
					"external": {
						"balanceReceived()": "2407",
						"deposit()": "infinite",
						"getContractBalance()": "339",
						"withdrawAll()": "infinite"
					}
				},
				"methodIdentifiers": {
					"balanceReceived()": "52a90c42",
					"deposit()": "d0e30db0",
					"getContractBalance()": "6f9fb98a",
					"withdrawAll()": "853828b6"
				}
			},
			"storageLayout": {
				"storage": [
					{
						"astId": 3,
						"contract": "contracts/Wallet.sol:SendWithdrawMoney",
						"label": "balanceReceived",
						"offset": 0,
						"slot": "0",
						"type": "t_uint256"
					}
				],
				"types": {
					"t_uint256": {
						"encoding": "inplace",
						"label": "uint256",
						"numberOfBytes": "32"
					}
				}
			},
			"userdoc": {
				"kind": "user",
				"methods": {},
				"version": 1
			}
		}
	}
}